:020000040800F2
:10000000087E0020A102000867540008214F000864
:10001000655400083B060008B77F00080000000098
:10002000000000000000000000000000B3580008BD
:10003000F11F0008000000006B580008B5580008C8
:10004000BB020008BB020008BB020008BB0200089C
:10005000BB020008BB020008BB020008BB0200088C
:10006000BB020008BB020008BB020008BB0200087C
:10007000BB020008BB020008BB020008BB0200086C
:10008000BB020008BB020008BB020008BB0200085C
:10009000BB020008BB020008BB020008BB0200084C
:1000A000BB020008BD590008E9590008155A0008AC
:1000B000BB020008BB020008BB020008BB0200082C
:1000C000BB020008BB020008BB020008BB0200081C
:1000D000BB020008BB020008BB020008BB0200080C
:1000E000BB020008BB020008BB020008BB020008FC
:1000F000BB020008BB020008000000000000000076
:100100000000000000000000BB020008BB02000865
:100110000000000000000000BB020008BB02000855
:10012000BB020008BB020008491F0008551F000859
:10013000611F0008BB020008BB020008BB020008E8
:10014000BB020008000000000000000000000000EA
:10015000000000000000000000000000000000009F
:100160000000000000000000BB020008317F000812
:10017000BB02000800000000BB02000800000000F5
:1001800000000000BB02000800F002F800F05EF87A
:100190000AA090E8000C82448344AAF10107DA45E2
:1001A00001D100F053F8AFF2090EBAE80F0013F0D6
:1001B000010F18BFFB1A43F001031847C4A3000046
:1001C000E4A300000A444FF0000C10F8013B13F0C8
:1001D000070408BF10F8014B1D1108BF10F8015BA0
:1001E000641E05D010F8016B641E01F8016BF9D193
:1001F00013F0080F1EBF10F8014BAD1C0C1B09D1EA
:100200006D1E58BF01F801CBFAD505E014F8016B5B
:1002100001F8016B6D1EF9D59142D6D370470000ED
:100220000023002400250026103A28BF78C1FBD8FF
:10023000520728BF30C148BF0B6070471FB509F097
:1002400090F900F0DAF81FBD10B510BD00F092F97A
:100250001146FFF7F3FF08F02FFA00F0B0F903B4EE
:10026000FFF7F2FF03BC00F0B3F900000B49D1F82F
:1002700000C04A685CF8043B1068184442F8040B5C
:100280008C4528BFA1F1DC0C8A4228BFA1F1DC0219
:10029000C1F800C04A6020F000407047A071002003
:1002A0000948804709480047FEE7FEE7FEE7FEE70A
:1002B000FEE7FEE7FEE7FEE7FEE7FEE70448054946
:1002C000054A064B7047000055590008890100088F
:1002D00008720020087E002008780020087800209E
:1002E00053EA020C00F069802DE9F04B4FF0000654
:1002F000002B1FBFB3FA83F503FA05F424FA05F6C1
:100300005E4012BF1643B2FA82F502FA05F4C5F157
:1003100020051EBF22FA05FC44EA0C04203556EAEB
:10032000044C4FEA144418BF641C4FF000084FF00F
:100330000009904271EB030C39D3002919BFB1FABF
:1003400081F701FA07F6B0FA80F700FA07F6C7F16D
:1003500020071EBF20FA07FC46EA0C062037B6FB32
:10036000F4FCA7EB0507103F07F01F0BCBF12006AD
:100370000CFA0BFB2CFA06F644BFB3460026202FDE
:10038000A4BF5E464FF0000B5BEA060C08BF4FF0BF
:10039000010B19EB0B09ABFB027C48EB0608C01BF9
:1003A00006FB02CC0BFB03CC71EB0C01C1E70B4647
:1003B000024641464846BDE8F08B13B54FF00000B9
:1003C0004FF00001AFF30080BDE81C407047000013
:1003D0000B4910B5A1F17C020A4CC2E93712372152
:1003E00006E000EB104342F82130074B00FB0340CE
:1003F0000B1EA1F10101F4DC10BD0120E8E70000B3
:1004000040710020E119D666CD0D0100032A40F2AB
:10041000308010F0030C00F0158011F8013BBCF1A6
:10042000020F624498BF11F801CB00F8013B38BFBE
:1004300011F8013BA2F1040298BF00F801CB38BFCC
:1004400000F8013B11F0030300F02580083AC0F0EA
:10045000088051F8043B083A51F804CBA0E8081092
:10046000F5E7121D5CBF51F8043B40F8043BAFF3C5
:100470000080D20724BF11F8013B11F801CB48BF1F
:1004800011F8012B24BF00F8013B00F801CB48BF55
:1004900000F8012B704710B5203AC0F00B80B1E88E
:1004A0001850203AA0E81850B1E81850A0E81850A9
:1004B000BFF4F5AF5FEA027C24BFB1E81850A0E8B2
:1004C000185044BF18C918C0BDE810405FEA827CCC
:1004D00024BF51F8043B40F8043B08BF7047D207E3
:1004E00028BF31F8023B48BF11F8012B28BF20F884
:1004F000023B48BF00F8012B70474FF0000200B5E7
:10050000134694469646203922BFA0E80C50A0E836
:100510000C50B1F12001BFF4F7AF090728BFA0E8E4
:100520000C5048BF0CC05DF804EB890028BF40F8B0
:10053000042B08BF704748BF20F8022B11F0804FF2
:1005400018BF00F8012B704770477047704710B50F
:1005500000F008F8006810BD10B5044600F002F87D
:10056000046010BD00487047A87100200048704723
:10057000A87100207546FFF7F9FFAE4605006946F1
:10058000534620F00700854618B020B5FFF796FEC9
:10059000BDE820404FF000064FF000074FF0000884
:1005A0004FF0000B21F00701AC46ACE8C009ACE805
:1005B000C009ACE8C009ACE8C0098D46704710B569
:1005C0000446AFF300802046BDE81040FFF747BE69
:1005D00001491820ABBEFEE726000200704770B547
:1005E00004462068816811F0010F24D0816821F051
:1005F0000101816002F0E8F805462068806810F08B
:10060000010F18D002F0E0F8401B02280ED9206834
:10061000806810F0010F09D0A06A40F01000A062BD
:10062000E06A40F00100E062012070BD206880684F
:1006300010F0010FE6D1002070BDFEE700207047EA
:100640000020704710B500220449054805F0DDFF81
:100650000449034805F0D3FF002010BDDC6C0020E6
:10066000245F0020F468002070B50E460546014660
:10067000084805F0C4FF074805F0A0FF002404E087
:10068000295D0548641C01F0E8F83068A042F7D8FD
:10069000002070BD245F0020B83C00200A460949B4
:1006A00010B5D1F8B812D1F8141209B1012010BD5B
:1006B0000146044805F0A9FFBDE81040014806F0D6
:1006C0001FB80000245F002010B504462DED028BFA
:1006D000806A01F019FBB0EE408A84ED008AE06A7E
:1006E00001F012FBE06901281BD0F0EE408A606B3C
:1006F000B0EE680A01F008FB84ED010A84ED028A7D
:10070000C4ED038A0021A06B01F0B6FBA06B90F84A
:100710002800C00702D0002000F0BEFBBDEC028B19
:1007200010BDF0EEC08AE2E7704710B504462DED2B
:10073000028BF0EE608A806A01F0E6FAA069012877
:100740003CD0B0EE408A206BB0EE480A01F0DCFAF3
:1007500084ED000AB0EE680AE06A01F0D5FAE069BB
:1007600001282ED0F0EE408A606BB0EE680A01F0EE
:10077000CBFA84ED010A84ED028AC4ED038A94ED7C
:10078000000A0021A06B01F077FB94ED010A012122
:10079000E06B01F071FBA06B90F82800C00702D05D
:1007A000002000F079FBE06B90F82800C00702D031
:1007B000012000F071FBBDEC028B10BDB0EEC08AD1
:1007C000C1E7F0EEC08ACFE72DE9F04104462DEDF8
:1007D0000C8BB0EE608A806A01F096FAF0EE408AE7
:1007E000206B01F091FAB0EE40AAB0EE480AE06A40
:1007F00001F08AFAB0EE408A606B01F085FAB0EE43
:1008000040CA2AEE0A0A08EEA80A10EE100A08F0FA
:1008100037FE41EC100B07F04BFE51EC100B08F0CB
:10082000CDF82CEE0C0A206008EE080A10EE100A33
:1008300008F026FE41EC100B07F03AFE51EC100BCD
:1008400008F0BCF86060C4ED028A84ED038A94ED80
:10085000000A0021A06B01F00FFB94ED010A0121B9
:10086000E06B01F009FBA06B002590F82800C007A1
:1008700000D0012518EE900A08F002FE41EC190B99
:100880001AEE100A08F0FCFD41EC100BB0EE491A0C
:10089000F0EE691A07F014FD51EC100B08F08EF819
:1008A00009EE100A206A0127564E90ED520AD0ED4B
:1008B000568AB4EEC09AF1EE10FA01DA002577609C
:1008C0009FED51AB9FED52BBF4EEC08AF1EE10FAF2
:1008D00021D218EE900A08F0D3FD53EC1A2B08F041
:1008E0009FF808F06BF808EE900A7068400008F076
:1008F00097FA53EC1B2B08F003FB41EC1D0B19EE90
:10090000100A08F0BDFD53EC1D2B08F089F808F023
:1009100055F809EE100A4FF00008B4EEE89AF1EE2F
:1009200010FA03DB002000F013FB05E025B10020E6
:1009300000F0B2FAC6F80480E06B002590F82800B9
:10094000C00700D0012518EE100A08F099FD41EC0F
:10095000180B1CEE100A08F093FD41EC100BB0EEE2
:10096000481AF0EE681A07F0ABFC51EC100B08F0D7
:1009700025F808EE900A206A90ED520A90ED568A0A
:10098000F4EEC08AF1EE10FA01DA0025B760B4EE99
:10099000C08AF1EE10FA21D218EE100A08F070FDAC
:1009A00053EC1A2B08F03CF808F008F808EE100A8F
:1009B000B068400008F034FA53EC1B2B08F0A0FAA2
:1009C00041EC190B18EE900A08F05AFD53EC192B64
:1009D00008F026F807F0F2FF08EE900AF4EEC88A55
:1009E000F1EE10FA06DB012000F0B2FABDEC0C8B40
:1009F000BDE8F081002DF9D0012000F04DFAC6F8D5
:100A00000880F3E700000020112D4454FB21194019
:100A1000112D4454FB21094010B504462DED028BE5
:100A2000F0EE608A806A01F06FF9A069012839D080
:100A3000B0EE408A206BB0EE480A01F065F984ED13
:100A4000000AB0EE680AE06A01F05EF9E069012888
:100A50002BD0F0EE408A606BB0EE680A01F054F9DA
:100A600084ED010A84ED028AC4ED038A94ED000A44
:100A70000021A06B01F000FA94ED010A0121E06B66
:100A800001F0FAF9A06B90F82800C00707D0E06BDE
:100A900090F82800C00702D0002000F0FDF9BDEC5E
:100AA000028B10BDB0EEC08AC4E7F0EEC08AD2E778
:100AB0002DE9FF5F9A46DDF83CB091460E460546AB
:100AC000002405EB4400418A21F400614182204664
:100AD00000F0ECF9C4EB0410C0EBC00005EB840798
:100AE0000AEBC003BB620E99C4EBC4020BEBC20855
:100AF00001EBC001C7F838803963288A052808D976
:100B000009EB4422D2F884000A2802D21830C2F835
:100B1000840009EB4422184600F00EFB06EB84002B
:100B2000D0F8E8C0D0F8D83050F8A82F01698DE887
:100B30000E1090ED160AD6E93E234046316801F0CA
:100B40006BF90120641CB861022CBADBD6E95012A3
:100B5000284600F0A7F82E62B6F8A400002180B263
:100B60002882E982082809D2DFE800F004060F1184
:100B7000131517190B4800E00B4868620B48006812
:100B800004B0BDE8F05FFFF723BC0948F5E709486A
:100B9000F3E70948F1E70948EFE70948EDE70948B5
:100BA000EBE7000029070008AD0C000828280040EA
:100BB0002B070008C9060008190A0008C90B00081D
:100BC000FD0C0008C907000810B500F14801D1E983
:100BD00002325B1E42F1FF32C1E90232D94371EAAF
:100BE000020104D100F004F8002000F055F910BD16
:100BF0002DE9F04100F148042DED028B016A0988CE
:100C00008DB2FFF733FB00EE100ADFED180AD4E9CE
:100C10000060B8EEC00A801B60EE200A00EE100AE9
:100C2000B8EE400A20EE800A10EE100A08F0E0FC50
:100C3000361841F10007284608F009F99FED0C1B12
:100C400053EC112B07F094FF41EC180B304639465A
:100C500008F010F953EC182B08F052F908F08CFC4E
:100C6000C4E90201BDEC028BBDE8F0810000003058
:100C7000000000000000244000280DD1074841F288
:100C800087310268D162006801640549488820F410
:100C9000C05040F40050488070470000D806002043
:100CA0000C000020C0E91212FFF7A2BF10B50446E5
:100CB0002DED028B806A01F027F8A069012819D078
:100CC000B0EE408A206BB0EE480A01F01DF884EDCA
:100CD000000A84ED028A0021A06B01F0CDF8A06B20
:100CE00090F82800C00702D0002000F0D5F8BDEC35
:100CF000028B10BDB0EEC08AE4E7000070B5044678
:100D00002DED048B806A00F0FFFFB0EE408A206B6F
:100D100000F0FAFFB0EE409A29EE090A08EE080A40
:100D200010EE100A08F0ACFB41EC100B07F0C0FB12
:100D300051EC100B07F042FE206084ED028A18EEA1
:100D4000100A08F09DFB41EC180B19EE100A08F090
:100D500097FB41EC100BB0EE481AF0EE681A07F062
:100D6000AFFA51EC100B07F029FE08EE900A18EECE
:100D7000900A08F085FB9FED2D1B53EC112B07F01B
:100D8000F7FE9FED2C9B53EC192B08F0B9F853ECB0
:100D9000192B07F045FE07F011FE6060E06094ED4E
:100DA000000A0021A06B01F067F8A06B002590F805
:100DB0002800C00700D00125206A90ED529A90EDDE
:100DC000568AB4EEC98AF1EE10FA0DD218EE100A66
:100DD00008F056FB9FED191B53EC112B07F020FE7A
:100DE00007F0ECFD08EE100A164C35B1F4EEC98A96
:100DF000F1EE10FA01DBC4ED008AD4ED000AB0EE8A
:100E0000680A07F09DFDB4EEC80A84ED000AF1EE11
:100E100010FA05DB002000F09BF8BDEC048B70BDE0
:100E2000002DFAD0002000F037F8F6E7112D4454D9
:100E3000FB21094000000000004CCD40112D44541E
:100E4000FB21194000000020028A4FF40061082AAB
:100E50000BD2DFE802F00A04060606040406806BE3
:100E600002E0826B9162C06B8162704700280ED1F4
:100E7000074841F287310268D16200684910016475
:100E80000449488820F4205040F48050488070473E
:100E9000D80600200C000020034900EBC00001EB45
:100EA000800000F06ABC0000105E00207CB504F0F9
:100EB0008DF904F0D7F9234800F00CFC21482430C8
:100EC000054600F007FC00231A461F491D4800F0A4
:100ED00051FB1D49012300224C31284600F04AFBFA
:100EE000FFF7C4F9194CD4F8D820D4F8E81000FB67
:100EF000012082B2B4F8B800B4F8C81080B289B248
:100F0000CDE9001034F8A80F83B2B4F8780081B2AC
:100F10000C4800F047FBFFF7A9F9626B616C00FB1E
:100F2000012082B2A08AA18C80B289B2CDE90010E2
:100F3000A08883B2B4F87C0081B2284600F032FB6E
:100F40007CBD0000105E002024070020C028002087
:100F5000034900EBC00001EB800000F0A1BA0000E3
:100F6000105E002010B5002812D10A4842F20F711D
:100F70000268D1620068491001640021054803F04D
:100F8000F5FE0549488820F4405040F40060488050
:100F900010BD0000D80600200C00002010B500F5A0
:100FA0008053D3F8A040F4B1D3F89C4000EB840404
:100FB00004F5805464690C60D3F89C1000EB810048
:100FC00000F58050406D1060D3F89C00411C08294A
:100FD00001D2401C00E0C01F43F89C0F5868401E1F
:100FE0005860002010BD4FF0FF3010BD10B500F567
:100FF0008053D3F8944000EB840404F5805461617D
:10100000D3F8941000EB810000F580504265D3F8CE
:101010009400411C082901D2401C00E0C01F43F885
:10102000940FD868401CD860002010BD00B500F5B2
:101030008051002281F88020CA6F496FFFF7D6FFE8
:10104000002000BD30B500F5805241F21005D2F805
:10105000983000240B44AB4201D3C2F89840D2F838
:101060009830801C1844D167C2E91D04012482F81D
:1010700080405C18AC4203D3A1F5805110395C1854
:10108000C2F8984030BD10B500F58050D0E91E344C
:101090005A1CA34204D2446F82670020E15410BD61
:1010A00082674FF0FF3010BD00F58050002180F8BE
:1010B0008010816708467047A0F6887000F50050E0
:1010C00003C8081A70470146122830D012DC0529DF
:1010D00022D008DC40F20120012903D0022901D0EE
:1010E000032919D17047062918D0102919D01128C1
:1010F00012D11CE040290FD008DC142911D0152989
:1011000011D020290FD0212806D10EE0412903D08B
:1011100060290ED083280AD00120704740F20220B7
:10112000704706207047162070470E207047022037
:1011300070470520704700002DE9F74FCD4DD2F8DC
:10114000843005F61452CC4981B005F5EA7A05F5EC
:10115000587905F2EC4605F5CF6B05F5106E05F5EF
:101160003D6705F2BC7CA2F51974222B77D2DFE82B
:1011700003F0112233445465778798A8B0BE767681
:1011800076767676767676767676CDDEF7F5F4F345
:10119000F2F1F0EFB74A03234832A2F1240100959F
:1011A00000F002FEB3486C30032300F1480200F166
:1011B0002401009059E1B14A0323A2F12401CDF8A2
:1011C00000A000F0F1FDAD482430032300F14802F7
:1011D00000F12401009048E1A94A0323A2F124016F
:1011E000CDF8009000F0E0FDA5482430032300F185
:1011F000480200F12401009037E1A24A0323A2F142
:101200002401009600F0D0FD9E482430032300F115
:10121000480200F12401009027E19B4A0323A2F138
:101220002401CDF800B000F0BFFD9748243003231F
:1012300000F1480200F12401009016E1934A0323D3
:10124000A2F12401CDF800E000F0AEFD8F4824307B
:10125000032300F1480200F12401009005E107E1B9
:101260008B4A0323A2F12401009700F09DFD8848DA
:101270002430032300F1480200F124010090F4E03F
:10128000844A0323A2F12401CDF800C000F08CFDB4
:1012900080482430032300F1480200F1240100902B
:1012A000E3E000927C4A0323A2F1240100F07CFDDC
:1012B00079482430032300F1480200F12401009012
:1012C000D3E072490323FC3101F14802009124313B
:1012D00019E00B882BB10A1D009201F5827244318E
:1012E00011E06E4A0323A2F124010094BDE0B1F89D
:1012F000C431002BF5D0604901F5E472009201F58C
:10130000327201F5027100F04FFDEAE7594A0323FA
:101310004832A2F12401009500F046FD5548D8302E
:10132000072300F1A80200F1540100909DE0534A08
:101330000323A2F12401CDF800A000F035FD4F48B1
:101340009030052300F1780200F13C0100908CE020
:101350007AE069E057E046E034E022E011E0FFE7A0
:10136000474A0323A2F12401CDF8009000F01CFDB0
:1013700043489030052300F1780200F13C010090D1
:1013800073E0404A0323A2F12401009600F00CFD13
:101390003C489030052300F1780200F13C010090B8
:1013A00063E0394A0323A2F12401CDF800B000F034
:1013B000FBFC35489030032300F1480200F1240182
:1013C000009052E0314A0323A2F12401CDF800E05D
:1013D00000F0EAFC2D489030032300F1480200F1B0
:1013E0002401009041E02A4A0323A2F1240100973E
:1013F00000F0DAFC26489030032300F1480200F1A7
:101400002401009031E0234A0323A2F12401CDF806
:1014100000C000F0C9FC1F489030032300F14802CF
:1014200000F12401009020E000921B4A0323A2F166
:10143000240100F0B9FC18489030032300F1480261
:1014400000F12401009010E014490323B43901F1A4
:1014500048020091243100F0A7FC104824300523F5
:1014600000F1780200F13C010090029800F09CFC31
:10147000BDE8FF8F4C960008A40100206898000882
:10148000F4990008809B00080C9D0008949F0008B8
:1014900064A20008509E0008A8A3000844A1000808
:1014A00010B50446006803F02BFA20680168086A4A
:1014B00041F21112104207D1086A9210104203D172
:1014C000486C20F400404864204600F021F9204692
:1014D00000F09AF92020208110BD10B5018921F07B
:1014E0000101018100F0B0F810BD10B5044600689C
:1014F00003F006FA208940F0020020812069B0F54F
:10150000803F01D34FF6FF702168C860216800203A
:101510004861226861891268D1622168096808639C
:10152000206803F038F920680068016921F01F0184
:1015300001612068BDE8104003F0A2B9018941F0C3
:10154000010101817047016809680A690B6923F08C
:101550001F030B61D10708D001898A0703D449070B
:1015600007D5818B19B100F036B800F09FB800F0B4
:10157000EDB8704770B50384016004468280012095
:101580009040E0808020886120680025056102F09D
:101590001BFA42F21071B0FBF1F02168401E486066
:1015A000658470BD30B5DDE9035481826D1E4583CD
:1015B000C38242814FF6FF71C1830483016883882F
:1015C0003425096805EB0313CC500168CA60006834
:1015D0000021416130BD10B50446006803F090F968
:1015E000208920F0020040F0080020812168A08AB4
:1015F000C860206803F0CFF82068A1883422006812
:1016000002EB01110844E18A0160A08801228100F7
:101610002068006804F0A4FB20680068016921F0DC
:101620001F01016120680068C168E28841EA420147
:10163000C160206803F024F9204600F017F8A08B61
:10164000401EA08310BD00004FF09040816941F022
:1016500080618161816941F0007181610248418846
:1016600021F00F01418070470C0000200D49D1F896
:10167000A010012912D14FF09042916941F480618C
:101680009161094B018C588849B1012906D140F07C
:1016900008005880906940F040009061704740F029
:1016A0000200F6E7C02800200C00002010B5044618
:1016B0000089002220F0080040F010002081A0885E
:1016C00081002068006804F04BFB204600F002F81F
:1016D00010BD00004FF09042916941F0806191612E
:1016E0000A4B018C588849B1012906D1916941F40E
:1016F0008001916120F0080058807047916941F4A1
:101700008001916120F00200F6E700000C0000204B
:101710004FF09042916941F0806191610A4B018CD8
:10172000588849B1012906D1916941F4800191613C
:1017300020F0080058807047916941F48001916160
:1017400020F00200F6E700000C00002010B504466F
:10175000006803F0D5F8A0880022810020680068A6
:1017600004F0FEFA208920F01C0020812046FFF7BB
:10177000B1FF204600F048F810BD10B50446408C7B
:1017800008B318202189014223D141F004002081AF
:10179000204600F01FF8FEF769FD01464FF6FF7086
:1017A00091FBF0F200FB1211A2895143B1FBF0F062
:1017B000618908182061618BA183204605D0BDE8AE
:1017C0001040FFF792BE1A20DCE7BDE81040FFF79B
:1017D00002BF10BD4FF090418A6942F400728A61E5
:1017E0008A6942F020028A61064A018C508829B138
:1017F000012902D140F004005080704740F0010000
:10180000FAE700000C0000204FF090418A6942F096
:1018100000728A618A6942F400128A61064A018C68
:10182000508829B1012902D120F00400508070476E
:1018300020F00100FAE700000C00002041F2A403B0
:101840001844FFF7ABBB41F2A4010844FFF7EEBB1D
:1018500041F2A4021044FFF716BC2DE9F0410F46F7
:1018600041F2A40100F5005480464618D4F848011E
:101870004FF0FF35810536D54FF48450805D78B93F
:101880003846FFF720FC002807DD3846FFF71BFC31
:1018900001463046FFF7D6FB02E03046FFF704FC76
:1018A0003046FFF709FC002809DD39464046FFF7BE
:1018B000CFFF401C1ED13046FFF7F6FB0EE03E2F57
:1018C00009D03046FFF7F0FBD4F8480120F400704F
:1018D000C4F848010EE04046FFF7B5FFD4F84801D0
:1018E00020F4007003E03C2F04D140F40070002588
:1018F000C4F848012846BDE8F08100002DE9FC410C
:1019000004460078A04FA14A07F5E06815287DD06D
:1019100014DC9F4E9F4D102879D006DC01281ED084
:1019200002284DD006284AD15EE00021012311286B
:101930006ED012286DD01428F5D1B7E0944934390F
:10194000412867D006DC202865D021287AD040289D
:10195000E9D1FDE0602876D08328E4D10DE14FF491
:10196000FC72611C8A48FEF751FD8B4BCDE9007576
:10197000A3F58062864903F55960FFF799F8FEF7F1
:1019800075FCD6F8D820D6F8E81000FB012082B20A
:10199000B6F8B80081B2B6F8C80080B2CDE900014F
:1019A00036F8A80F83B2B6F8780081B27748FFF70F
:1019B000F9FD78487030FFF747FA00F08BF9DFE067
:1019C0004FF40072611C7548FEF720FD724BCDE9A3
:1019D0000075724A6E4903F55960FFF769F86D4862
:1019E0007030FFF731FACBE060786D4BC0EB00113F
:1019F000C1EBC010B4F8035023F8205003EB80066D
:101A0000611DAA00301DFEF746FD05E060E01BE009
:101A100030E03DE0A0E069E004EB850705EB450020
:101A200084007F1D06F1440022463946FEF733FD4F
:101A300005EB450007EB8001224606F58270FEF7B4
:101A40002AFD9DE062E08BE0627869460020231861
:101A50009B780B54401C0428F9DBC2EBC2009DEDBF
:101A6000000A05EBC00080ED060AD0ED070A20EE63
:101A7000200A2AE0607828B14448C6F8A030FFF771
:101A80005DFD7DE04148C6F8A010FFF726FD77E038
:101A9000607828B1A8F816305384A2F846306FE079
:101AA000A8F816105184A2F8461069E062786946D9
:101AB000002023189B780B54401C0428F9DB9DED73
:101AC000000AC2EBC20005EBC00080ED050A57E03A
:101AD00032481022611CC038FEF798FC2F481022B3
:101AE00004F11101B038FEF791FC49E06178638898
:101AF00001EBC10102EB81014B81E2888A8162899D
:101B0000CA82E2898A82608A488339E066782349FA
:101B1000A01C01EB46250268C5F88C204168C5F879
:101B200084108068C5F88000C6EB0610C0EBC000CA
:101B3000194B07EBC0012A4603EBC000FFF7FCFA84
:101B4000D5F8840000B1012008EB8601886117E018
:101B5000486840F0020001E06FF0020048600FE0CA
:101B6000D4F801000A21B0FBF1F000EE100A0D4894
:101B7000B8EE400A80ED010A02E00448FFF7FDFDDF
:101B80000020BDE8FC81000058350020105E0020D8
:101B9000C0280020E83B0020C82E0020C82A0020D2
:101BA000A40100200C00002009480169826801F5A9
:101BB00080718A4203D8B1FBF2F303FB1211016179
:101BC0008169A1F580718161024900200870704728
:101BD0008C2800200C00002038B5374C207870B1DC
:101BE00001284BD0022809D13E208DF800000121A8
:101BF0006846FEF753FD002800D1207038BD2E48FE
:101C00003C210C302D4D0170AD214170A96B2C4A47
:101C1000DFED2C0A91ED050A10EE101A914201DD5C
:101C2000B0EE600A10EE101A4FF047439FED261AEF
:101C3000994201D9B0EE410ABDEEC00A10EE101A69
:101C40004180E96B91ED050A10EE101A914201DD19
:101C5000B0EE600A10EE101A994201D9B0EE410AB6
:101C6000BDEEC00A10EE101A8180134806210C3018
:101C7000FEF714FD0028C1D10120BEE71348144926
:101C8000006908444FF48071FEF708FD0028B5D1C3
:101C9000022020700D480169826801F580718A4236
:101CA00003D8B1FBF2F303FB121101618169A1F5C5
:101CB0008071816138BD00000C000020583C00207C
:101CC00000FEFF4600FEFF46000000C78C280020F3
:101CD0008C0800200A4810B5D0F8A000094C002854
:101CE000A4F1240005D0FFF729FC2046FFF726FCCD
:101CF00010BDFFF7F2FB2046FFF7EFFB10BD000021
:101D0000C0280020345E0020F0B5002246E002EB3F
:101D1000420100EB810400EB8205D4ED600AD0F8AB
:101D20004063D5F80013B0EE402A20EE800A8E46BC
:101D3000012356F8227015E004EB830C04EB8106B6
:101D4000DCED600A96ED001AD6ED301A491E60EE01
:101D5000810A9CED901A41EE610A30EE800A00D5AE
:101D600039445B1C9F42E7DC0EF1010EC5F800E32D
:101D7000D0F8401351F82210714501DD714602E0A0
:101D80000021C5F8001304EB8101521C81ED002AEB
:101D9000D5F8001304EB810181ED300AD0F844132B
:101DA0009142B4DCF0BD00002DE9F04F9946934616
:101DB0008A460023DDF824E025E003EB43020021FE
:101DC0009FED140A0F4600EB83060BEB82050AEB2E
:101DD000820400EB820C0CEB810205EB810882EDA2
:101DE000000A82ED300AC6F80073D8ED000A04EB51
:101DF0008108C2ED900AD8ED000A491CC2ED600AC4
:101E00000329E8DB5B1C4B45D7DBC0E9D0E9BDE823
:101E1000F08F000000000000F0B54A43DDE90754F0
:101E2000DDE90576426201FB03F2026201FB07F382
:101E30004FF47A72B3FBF2F3C36001FB06F3B3FB1A
:101E4000F2F3036101FB05F36143B3FBF2F5B1FB70
:101E5000F2F1C0E90151B3FBF2F101600021C1626E
:101E600080ED060A9FED030A416380ED050A816259
:101E7000F0BD00000000000070B50446806A020555
:101E800056D5020454D4820446D4C20427D5656AC8
:101E9000636BAB423CDB226A15449D420CDD00EED5
:101EA000902AF8EEE00A80EE201A94ED070A31EE4F
:101EB000000A84ED070A2BE094ED070AD4ED060A28
:101EC00020F4805040F4005020EE200A84ED050AF2
:101ED000A0620020E0620846FEF7CEFE18E0636ACA
:101EE000626B9A420CDB20F480409FED160A40F4AE
:101EF000805084ED070AA0620846FEF7B7FF07E0AE
:101F0000420405D440F48040A0620846FFF72AF856
:101F1000606B401C60630BE0D4ED050AC10709D07B
:101F2000F4EEC00AF1EE10FA02DD20F00100A0622A
:101F3000A06A70BDF4EEC00AF1EE10FAF8D240F0DB
:101F40000100F4E700000000014800F051BA000071
:101F5000585E0020014800F04BBA00009C5E002053
:101F6000014800F045BA0000E05E00200C4B01681B
:101F70000C4A994209D20C4B1944A2FB01210909D0
:101F8000890001640949C1637047094B1944A2FBE8
:101F900001210909890001640649C16370470000F5
:101FA00008040240CDCCCCCCF8FFFDBF00000240BD
:101FB000F8FBFDBF0004024010B490F840C00124BB
:101FC00004FA0CFCC46BC4F804C0D0F800C0CCF810
:101FD00004304368102B05D0036899600068C26024
:101FE00010BC704703689A600068C16010BC7047FD
:101FF0007047FEE778B40024A446CDF800C090F8FE
:102000002420012A14D0012280F824204A681F25A8
:10201000072A10D203685E6B521E02EB82029540C3
:1020200026EA05050E6806FA02F22A435A631FE003
:1020300078BC022070470D2A0DD203681E6BD21F98
:1020400002EB8202954026EA05050E6806FA02F2C6
:102050002A431A630CE00368DE6A0D3A02EB82023F
:10206000954026EA05050E6806FA02F22A43DA626E
:102070000A6807250A2A0DD90368DE680A3A02EBC6
:102080004202954026EA05058E6806FA02F22A43C6
:10209000DA600BE003681E6902EB4202954026EA13
:1020A00005058E6806FA02F22A431A610A68102AA8
:1020B00004D0112A02D0122A1AD01EE002689368B6
:1020C00043F4000393600968102916D10D490E4AA4
:1020D0000968B1FBF2F101EB81014900009100991F
:1020E00059B10099491E009100990029F9D104E0E5
:1020F00006490A6842F080720A6080F824C02046CF
:1021000078BC70478000002040420F000000014072
:102110002DE9F041044600270025002C03D0A06AD9
:10212000002618B108E00120BDE8F081E66284F8DD
:102130002460204600F07CF82046FEF750FA014665
:10214000A06A10F0100F00D139B1A06A40F0100061
:10215000A06201210846BDE8F081A06A20F4885001
:1021600040F00200A062E2696068237B104347EA06
:1021700043020243A068B0F5807F08D0012806D052
:10218000002094F814C0BCF1010F03D00BE04FF411
:102190008070F6E7F3B1A36A43F02003A362E36A19
:1021A00043F00103E3622368D3F804C02CF4694CC4
:1021B0004CEA0000586020688368DFF86CC003EACE
:1021C0000C0313438360A068B0F5807F09D0012819
:1021D00007D009E0A3695B1E40EA433040F4006089
:1021E000E1E7208A401E05052068C36A23F47003D6
:1021F0002B43C362206880680C4B1840904207D183
:10220000E662A06A20F0020040F00100A062A1E7AF
:10221000A06A20F0020040F01000A062E06A40F0E6
:102220000100E062012195E7FDF7E1FFFE0E1FFFCF
:1022300010B586B0044614216846FEF75EF91149D0
:10224000206888421BD11048816941F40071816186
:10225000816901F400710591416941F400314161E6
:102260004069694600F40030059001200090032089
:102270000190002002904FF0904000F099F906B0D4
:1022800010BD0000002401400010024030B443792A
:10229000012B21D001244471022303710368D3F878
:1022A00000C040F6FE7595402CEA050C0D684968A3
:1022B0002943914041EA0C01196001680B684FF015
:1022C000C00C0CFA02F223EA02020A600471002137
:1022D000417130BC0020704730BC0220704770B59F
:1022E0000446002C03D02079002510B105E0012020
:1022F00070BD6571204600F007F80220207125614D
:1023000001202071002070BD10B586B00446142154
:102310006846FEF7F2F81149206888421BD1104840
:10232000C16941F00051C161C16901F000510591DD
:10233000416941F4003141614069694600F400306F
:1023400005901020009003200190002002904FF093
:10235000904000F02DF906B010BD00000074004060
:102360000010024081B0D0F800C0CDF800C0006875
:102370000029104406D0143000900098036000201B
:1023800001B0704708300090F7E710B44279012A95
:1023900015D001234371022202710268D2F800C0F5
:1023A00003FA01F44CEA040CC2F800C051B1016810
:1023B0000A684FF4701C3CEA02020FD012E010BC15
:1023C0000220704701680A684FF03C0C3CEA0202A8
:1023D00008D14A6842F001024A6003E04A6842F0CC
:1023E00002024A6003710021417110BC0020704755
:1023F000F0B4C16B0A6801680B68D0F840C00424CF
:1024000004FA0CF5154215D013F0040F12D00A6827
:1024100012F0200F03D10A6822F004020A6090F83B
:102420004010C26B04FA01F15160C16A002941D029
:10243000F0BC0847022505FA0CF414424FF00006E0
:102440004FF0010419D013F0020F16D00A6812F0F1
:10245000200F05D10A6822F00A020A6080F82140A4
:1024600090F84010C26B05FA01F1516080F82060CD
:10247000816A00291ED0F0BC0847082505FA0CFC2B
:102480001CEA020F16D013F0080F13D00A6822F0CE
:102490000E020A6090F84010C26B04FA01F151601C
:1024A000846380F8214080F82060016B002901D00E
:1024B000F0BC0847F0BC704710B50446002C22D091
:1024C000022084F82100206801686FF30D11A368D1
:1024D0006268D4F810C01A43E36843EA0C031A4355
:1024E00063691A43A3691A43E3691A4311430160FC
:1024F0002046FFF73BFD0020A063012184F8211056
:1025000084F8200010BD012010BD70B504460025E0
:1025100094F8200001280DD0012084F8200094F8C0
:1025200021C00020BCF1010F06D084F82000022554
:10253000284670BD022070BD4FF0020C84F821C007
:10254000A0632068D0F800C02CF0010CC0F800C0D7
:102550002046FFF731FDE06A28B12068016841F0AC
:102560000E01016009E02068016841F00A01016084
:102570002068016821F0040101602068016841F0D1
:1025800001010160D4E7000070B5044600F01CF9B9
:102590000546B4F1FF3F02D004480078044400F03F
:1025A00013F9401BA042FAD370BD00008400002044
:1025B0002DE9F84F00220B68002B7CD0DFF8F0A14A
:1025C000DFF8E8914FF0010E03274FF00F080AF1F2
:1025D000040B0B680EFA02F42340002B6CD091F828
:1025E00004C00CF0030CBCF1010F02D0BCF1020FCF
:1025F00018D185684FEA420C07FA0CF6B543CE684D
:1026000006FA0CFC4CEA050CC0F808C0D0F804C06F
:102610002CEA040C0C79C4F30014944044EA0C0C2A
:10262000C0F804C0D1F804C037EA0C0C0CD0C46860
:102630004FEA420C07FA0CF5AC438D6805FA0CFC26
:102640004CEA040CC0F80CC091F804C00CF0030C68
:10265000BCF1020F12D14FEAD20C00EB8C04256AB8
:102660004FEA427C4FEADC6C08FA0CF6B5430E697F
:1026700006FA0CFC4CEA050CC4F820C004684FEACA
:10268000420C07FA0CF5AC430D7905F0030505FA89
:102690000CFC4CEA040CC0F800C0D1F804C01CF4D7
:1026A000403F6DD0D9F818C04CF0010CC9F818C0E3
:1026B000D9F818C001E068E062E00CF0010CCDF838
:1026C00000C022F0030C0CF1804505F58035D5F8EB
:1026D00008C09407240F08FA04F62CEA0606B0F1A5
:1026E000904F57D0A0F1904CBCF5806C4FD0A0F12A
:1026F000904CBCF5006C50D0A0F1904CBCF5406CF7
:102700004ED0A0F1904CBCF5805C4CD04FF0050C45
:102710000CFA04FC4CEA060CC5F808C0DAF800C054
:102720002CEA030C4C6814F4803F01D04CEA030CF3
:10273000CAF800C0DBF800C02CEA030C4C6814F4A3
:10274000003F01D04CEA030CCBF800C0194CD4F880
:1027500000C02CEA030C4D6815F4801F01D04CEA30
:10276000030CC4F800C0144CD4F800C02CEA030CCD
:102770004D6815F4001F01D04CEA030CC4F800C0EA
:10278000521C0B68D3407FF424AFBDE8F88F4FF0A4
:10279000010CBDE74FF0000CBAE74FF0020CB7E7B1
:1027A0004FF0030CB4E74FF0040CB1E70010024007
:1027B00000040140080401400C040140002A01D03B
:1027C00081617047816270470148806870470000EE
:1027D0008400002090F84120202A01D00220704778
:1027E00090F84020012A20D0012280F840202422A5
:1027F00080F841200268136823F001031360026827
:10280000136823F48053136002681368194311603E
:1028100001680A6842F001020A60202180F8411034
:10282000002180F84010002070470220704790F887
:102830004120202A01D00220704790F84020012A30
:102840001ED0012280F84020242280F84120026816
:10285000136823F0010313600268136823F47063A4
:1028600043EA0121116001680A6842F001020A602E
:10287000202180F84110002180F84010002070478E
:102880000220704770B50446002C04D094F8410033
:10289000002510B106E0012070BD84F840502046AC
:1028A00000F050F8242084F841002068016821F0ED
:1028B000010101606068216820F070600861206893
:1028C000816821F400418160E068012808D0A06897
:1028D000216840F404408860E068022806D009E0DE
:1028E000A068216840F400408860F5E721684FF453
:1028F000006048602068416841F4004141F0007187
:1029000041602068C16821F40041C16061692069AB
:102910000843A16940EA01202168C860216AE06992
:102920000843216808602068016841F001010160E6
:102930006564202084F84100256384F8425000201B
:1029400070BD000010B586B0044614216846FDF73E
:10295000D4FD1349206888421FD1124C606940F4AD
:10296000802060616069694600F4802005904FF422
:1029700040700090122001900120029003200390EB
:10298000042004900848FFF713FEE06940F40010AB
:10299000E061E06900F40010059006B010BD000091
:1029A00000540040001002400004004802488168C2
:1029B00002781144816070478400002010B50748F8
:1029C000016841F010010160032000F085F800204B
:1029D00000F006F800F026F8002010BD00200240AC
:1029E00070B504460D4D4FF47A712878B1FBF0F0C4
:1029F0000B490968B1FBF0F001F03EFE08B101207F
:102A000070BD102C07D200222146501E00F030F875
:102A10006C60002070BD012070BD000084000020AB
:102A2000800000200A4882B0816941F00101816183
:102A3000816901F001010091C16941F08051C161DA
:102A4000C06900F080500090052002B000F044B84A
:102A50000010024000280ADB00F01F01012202FAE8
:102A600001F14009800000F1E020C0F8001170473A
:102A700010B4184B1B68C3F30223C3F1070CBCF15D
:102A8000040F01D94FF0040C1C1D072C01D20023A8
:102A900000E0DB1E012404FA0CFCACF1010C0CEA92
:102AA0000101994004FA03F35B1E1A401143002808
:102AB00006DB00F1E020090180F8001410BC70472B
:102AC00000F00F0000F1E020090180F8141D10BC97
:102AD000704700000CED00E000F00700064A1168A6
:102AE0004FF6FF03194041EA002040F0FD7040F02E
:102AF00080601060704700000CED00E011F0800F66
:102B000007D001F0070101EB810100EBC100283083
:102B100005E001EB810100EBC10000F5B47099B252
:102B200032B1012202730181190C418100207047EA
:102B300000220273C180F9E7704701EB810200EBCC
:102B4000C202D0F8E802D26B04F03AB801EB81027D
:102B500000EBC202D0F8E802D2F87C2104F09BB866
:102B600070B5044611F0800F01F0070000EB800102
:102B700004EBC1014FF001024FF0000502D02831F3
:102B80004A7002E001F5B4714D70087094F8A80223
:102B9000012808D084F8A822206804F097FD84F862
:102BA000A852002070BD022070BD70B5044601F02F
:102BB0000F006268904201D9012070BD11F0800FB2
:102BC00001F0070000EB800104EBC1014FF00102AE
:102BD0004FF0000502D028314A7002E001F5B471CF
:102BE0004D708D70087094F8A802012808D084F800
:102BF000A822206804F042FE84F8A852002070BD8C
:102C0000022070BD2DE9F0470B78D1F818C0046898
:102C100012F4804F4FF0000848F2800748F2C005D8
:102C20004FF480663DD0B4F850904FF0020A0AEBA2
:102C3000C30AD14406EB4906A45BC4F30904A445C6
:102C400004D3ACEB040CC1F818C001E0C1F8188043
:102C5000D1F818C0BCF1000F0CD1D0F800C03CF87E
:102C6000236026F0700626F4804686F400563E4324
:102C70002CF8236012F0400F0BD00B78026832F86A
:102C800023C02CF0700C2CF4E04C4CEA050C22F81C
:102C900023C0ECB30A8949690068234605F051F95D
:102CA0003EE0B4F850904FF0060A0AEBC30AD14454
:102CB00006EB4906A45BC4F30904A44504D3ACEBBA
:102CC000040CC1F818C001E0C1F81880D1F818C090
:102CD000BCF1000F0CD1D0F800C03CF8236026F006
:102CE000700626F4804686F400563E432CF8236096
:102CF00012F0400F0BD10B78026832F823C02CF091
:102D0000700C2CF4E04C4CEA050C22F823C000E0D7
:102D100006E02CB14A8949690068234605F011F99B
:102D20002046BDE8F0872DE9F05F05460C461646C3
:102D30002178A269286816F0400F4CF280074FF600
:102D4000FF734FF4806E4FF002094FF006084FF00A
:102D5000000C7CD0B0F850B009EBC10AD3440EEBA4
:102D60004B0B30F80B00C0F30900824202D9121A53
:102D7000A26101E0C4F818C0A26992B116F4804FB4
:102D800009D02A6832F8216026F0700626F4E04661
:102D90003E4322F8216094F82410012958D000F015
:102DA00085B9607810B1012811D018E02868B0F812
:102DB0005010084400EB4A0000F58060018821F4BF
:102DC000F8410180018841F40041018007E0286852
:102DD000B0F85010084400EB4A00A0F800C428687E
:102DE000617811B1012913D01CE0B0F850100844EB
:102DF000217808EBC10100EB410000F580600188FB
:102E000021F4F8410180018841F40041018009E08A
:102E1000B0F850100844217808EBC10100EB4100E4
:102E2000A0F800C421782846FFF787FE16F4804FEB
:102E300000F03C812078296831F8202022F07002CF
:102E400022F4E0423A4321F8202000F02FB958E064
:102E5000616901446161E1690144E1612269216ABA
:102E6000914203D31046091A216205E049B184F862
:102E700024C00846C4F820C0617829B101292ED0A9
:102E800038E084F824C0F7E72968B1F850201144ED
:102E9000227809EBC20201EB420101F5806150B1D9
:102EA0003E2811D8420810F0010F00D0521C03EA4E
:102EB00082220A801EE00A8822F4F8420A800A88E8
:102EC00042F400420A8015E0420910F01F0F00D1C1
:102ED000521E4FF4004343EA82220A800AE0296826
:102EE000B1F850201144227809EBC20201EB4201F3
:102EF000A1F8000483B222896169286805F046F8C8
:102F0000D4E0B0F850A008EBC10BDA440EEB4A0A4B
:102F100030F80A00C0F30900824202D3121AA261FB
:102F200001E0C4F818C0A2691AB116F4804F58D055
:102F300061E0607810B1012813D01CE02868B0F877
:102F40005020104409EBC10100EB410000F5806006
:102F5000018821F4F8410180018841F40041018099
:102F600009E02868B0F85020104409EBC10100EBDB
:102F70004100A0F800C42868617811B1012913D07C
:102F80001CE0B0F850100844217808EBC10100EBB8
:102F9000410000F58060018821F4F841018001883A
:102FA00041F40041018009E0B0F850100844217854
:102FB00008EBC10100EB4100A0F800C421782846CD
:102FC000FFF7BBFD16F4804F70D12178286830F8E8
:102FD000212022F0700222F4E0423A4320F821201E
:102FE00064E02A6832F8216026F0700626F4E04694
:102FF0003E4322F8216094F82410012956D16169DA
:1030000001446161E1690144E1612269216A9142FF
:1030100003D31046091A216205E051B10846C4F8ED
:1030200020C084F824C0296862782AB1012A2DD0F2
:1030300036E084F824C0F6E7B1F850201144227835
:1030400008EBC20201EB420101F5806150B13E285C
:1030500011D8420810F0010F00D0521C03EA82225E
:103060000A801DE00A8822F4F8420A800A8842F4A5
:1030700000420A8014E0420910F01F0F00D1521ED6
:103080004FF4004343EA82220A8009E0B1F850205D
:103090001144227808EBC20201EB4201A1F80004BE
:1030A00083B262896169286804F070FF207829681A
:1030B00031F8202022F4415222F4804282F01002A2
:1030C00082F0200248F280031A4321F820200020D9
:1030D000BDE8F09F01F0070101EB810100EBC100A9
:1030E000D0F88401704770B5044611F0800F01F0EC
:1030F000070000EB800104EBC1014FF0010C4FF021
:10310000000503D0283181F801C002E001F5B47157
:103110004D7008700A61CB704A7802B1C881022BE9
:1031200000D10D7194F8A802012808D084F8A8C233
:10313000206804F039F9284684F8A85270BD0220AE
:1031400070BD10B501F0070C0CEB8C0100EBC10158
:1031500001F5B4714A618B610022CA614A7081F83D
:1031600000C0BCF1000F04D0006804F0F3FB0020A5
:1031700010BD006804F0EEFBF9E770B5044601F0FD
:1031800007006268904201D9012070BD11F0800FE4
:103190004FF000054FF0010206D000EB800104EB78
:1031A000C10128314A7006E001EB810104EBC10145
:1031B00001F5B4714D708A70087094F8A802012866
:1031C00008D084F8A822206804F0A5FB84F8A8524F
:1031D000002070BD022070BD10B501F0070C0CEB93
:1031E0008C0100EBC10128314A618B61012281F819
:1031F00024200B620023CB614A7081F800C0BCF12F
:10320000000F04D0006804F0A5FB002010BD00688A
:1032100004F0A0FBF9E710B50446206804F08EFE28
:1032200010F4004F02D0204602F01EF9206804F08E
:1032300085FE10F4806F0DD02068B0F8441021F4A2
:103240008061A0F84410204600F00CF900212046CF
:1032500000F023F9206804F071FE10F4804F06D0CE
:103260002068B0F8441021F48041A0F84410206890
:1032700004F064FE10F4005F06D02068B0F844103B
:1032800021F40051A0F84410206804F057FE10F417
:10329000805F17D02068B0F8401021F00401A0F83A
:1032A00040102068B0F8401021F00801A0F840104C
:1032B000204600F0EAF82068B0F8441021F480516C
:1032C000A0F84410206804F039FE10F4006F17D005
:1032D0002068B0F8401041F00801A0F840102068C4
:1032E000B0F8441021F40061A0F844102068B0F850
:1032F000401041F00401A0F84010204600F002F90F
:10330000206804F01BFE10F4007F09D02068B0F89C
:10331000441021F40071A0F84410204600F0B9F8E0
:10332000206804F00BFE10F4807F06D02068B0F80F
:10333000441021F48071A0F8441010BD70B586B01F
:103340000446002C04D094F8A902002518B107E027
:1033500006B0012070BD84F8A852204600F048F85D
:10336000032084F8A902206804F080FA0021606834
:103370000126002812D901EB810004EBC00080F87F
:10338000296080F82810C18680F82B508563C563BA
:103390000564481CC1B260688842ECD800216068AE
:1033A000002814D901EB810004EBC00080F86951BA
:1033B00080F8681180F86B51C0F87851C0F87C51E2
:1033C000C0F88051481CC1B260688842EAD804F154
:1033D000100090E80F108DE80F1094E80F0004F033
:1033E00039FA84F8245084F8A96206B0002070BD30
:1033F00010B586B0044614216846FDF77EF81749DB
:103400002068884228D1164C606940F40030606121
:103410006069694600F4003005904FF4C050009098
:103420000220019000200290032003900E200490BF
:103430004FF09040FFF7BCF8E06940F40000E06115
:10344000E069002200F40000059011464B20FFF7D0
:103450000FFB4B20FFF7FEFA06B010BD005C0040EA
:103460000010024070B5044680680125022801D092
:10347000FEF7BFFD2946D4F8E80203F0F9FCD4F8C2
:10348000E802BDE8704003F0B4BCD0F8E80203F0F5
:10349000D9BCD0F8E80203F0DFBC10B5044694F8BC
:1034A000A80201280BD0012084F8A80284F8241077
:1034B000206804F064FD002084F8A80210BD0220FA
:1034C00010BDD0F8E82200F52C71104603F0DCBCEA
:1034D00010B5044694F8A802012810D0012084F801
:1034E000A802206804F01BFD01212046FFF724FB01
:1034F000206804F0ADF9002084F8A80210BD022075
:1035000010BD000010B50446D0F8E80203F0FDFC41
:10351000A069002804D00348016841F00601016059
:1035200010BD000010ED00E081B00749CA6942F00B
:103530008052CA61C96901F08051009103490A684B
:103540001043086001B07047001002400070004056
:103550002DE9F84F0446002620688A4D10F4803F7C
:1035600070D0E86910F0805F08D1E86940F08050C1
:10357000E861E86900F0805000900126824F3868C9
:1035800010F4807F17D1386840F480703860FFF7FE
:103590001BF98046386810F4807F0CD1FFF714F9CE
:1035A000A0EB0800642802D90320BDE8F88F386832
:1035B00010F4807FF2D0286A00F44070002878D0A0
:1035C000A18801F44071814273D0286A20F44070D0
:1035D0004FF4803191FAA1F2B2FA82F2920002F134
:1035E000844202F584024FF00109C2F8009491FA76
:1035F000A1F10022B1FA81F1890001F1844101F5C4
:103600008401C1F80024286210F0010F51D0FFF7A7
:10361000DBF807464FF0020898FAA8F0B0FA80F0FD
:1036200040F04000B9EB501F01D128680CE098FA37
:10363000A8F0B0FA80F040F04000B8EB501F02D183
:10364000286A01E041E0686A98FAA8F1B1FA81F1CC
:1036500001F01F0109FA01F108422AD141F2883A2A
:10366000FFF7B2F8C01B504502D90320BDE8F88F20
:1036700098FAA8F0B0FA80F040F04000B9EB501F83
:1036800001D128680BE098FAA8F0B0FA80F040F079
:103690004000B8EB501F01D1286A00E0686A98FA30
:1036A000A8F1B1FA81F101F01F0109FA01F1084214
:1036B000D6D0286A616820F4407008432862012E41
:1036C00003D1E86920F08050E861207810F0010F04
:1036D00005D0286BA16820F00300084328632078F8
:1036E00010F0020F05D0286BE16820F44030084349
:1036F0002863207810F0040F05D0286B216920F48E
:10370000402008432863207810F0200F05D0286B54
:10371000616920F0100008432863206810F4003F1E
:1037200005D06868A16A20F48000084368602078AA
:1037300010F0400F05D0286BA16920F0200008434D
:103740002863207810F0800F05D06868E16920F4C4
:10375000404008436860208810F4006F05D0686816
:10376000216A20F0784008436860208810F4806F58
:1037700005D0286B616A20F04000084328630020D0
:10378000BDE8F88F00100240007000402DE9F047BE
:1037900004460D46002C17D0DFF8B481D8F800009D
:1037A00000F00700A84212D2D8F8000020F007006D
:1037B0002843C8F80000D8F8000000F00700A8422D
:1037C00005D00120BDE8F0870120BDE8F087207812
:1037D000604E10F0020F05D07068A16820F0F00074
:1037E00008437060207810F0010F6FD060680122EC
:1037F00001280CD0022823D0022393FAA3F1B1FAB6
:1038000081F141F02001490933D0316832E04FF4B1
:10381000003393FAA3F1B1FA81F141F02001490993
:1038200001D0316800E0716A93FAA3F3B3FA83F32D
:1038300003F01F039A40114228D10120BDE8F08710
:103840004FF0007393FAA3F1B1FA81F141F0200136
:10385000490901D0316800E0716A93FAA3F3B3FA21
:1038600083F303F01F039A4011420FD10120BDE8FA
:10387000F087716A93FAA3F3B3FA83F303F01F039B
:103880009A40114202D10120BDE8F087716821F011
:10389000030108437060FEF797FF07467068616890
:1038A00000F00C00B0EB810F10D041F28839FEF728
:1038B0008BFFC01B484502D90320BDE8F087706824
:1038C000616800F00C00B0EB810FF0D1D8F8000077
:1038D00000F00700A8420FD9D8F8000020F0070038
:1038E0002843C8F80000D8F8000000F00700A842FC
:1038F00002D00120BDE8F087207810F0040F05D039
:103900007068E16820F4E06008437060207810F08F
:10391000080F06D07068216920F4605040EAC100A9
:10392000706000F051F87168F02292FAA2F201F092
:10393000F001B2FA82F2D140074A515CC84007490F
:10394000086007480068FFF74BF80020BDE8F087E3
:103950000020024000100240A4A4000880000020C3
:1039600088000020014800687047000080000020A7
:1039700000B5FFF7F7FF074949684FF4E06292FA94
:10398000A2F201F4E061B2FA82F2D140024A515C43
:10399000C84000BD00100240B4A4000800B5FFF705
:1039A000E1FF074949684FF4605292FAA2F201F42C
:1039B0006051B2FA82F2D140024A515CC84000BD67
:1039C00000100240B4A4000810B5194B59681948FA
:1039D00001F00C02042A02D0082A01D0164810BDBA
:1039E0004FF4701C9CFAACFC01F47012BCFA8CFC15
:1039F00022FA0CF2DFF844C01CF80240DA6A0F2306
:103A000093FAA3F302F00F02B3FA83F3DA400CF156
:103A100010039A5C11F4803F06D000231946FCF78E
:103A20005FFCA0FB040110BD0548A4FB000110BD14
:103A300000100240001BB70000127A00BCA400086E
:103A400000093D002DE9F84F0446002C12D02078E3
:103A5000FA4D10F0010F4FF001067DD06868770431
:103A600000F00C0004280CD0686800F00C00082856
:103A700003D021E00120BDE8F88F686810F4803F92
:103A80001AD097FAA7F0B0FA80F040F02000400971
:103A900001D0286800E0686A97FAA7F1B1FA81F1CD
:103AA00001F01F0106FA01F1084255D060680028B4
:103AB00052D10120BDE8F88F6068B0F5803F20D07A
:103AC00020B3B0F5A02F2AD0286820F480302860D9
:103AD000286820F480202860E86AA16820F00F00A0
:103AE0000843E8626068C0B3FEF76EFE804697FA4E
:103AF000A7F0B0FA80F040F02000400918D0286804
:103B000017E0286840F480302860E5E7286820F452
:103B100080302860286820F480202860DCE728684E
:103B200040F480202860286840F480302860D3E783
:103B3000686A97FAA7F1B1FA81F101F01F0106FA5C
:103B400001F1084256D1FEF73FFEA0EB08006428C1
:103B500004D90320BDE8F88F4CE015E097FAA7F0F0
:103B6000B0FA80F040F02000400901D0286800E061
:103B7000686A97FAA7F1B1FA81F101F01F0106FA1C
:103B800001F10842DFD035E0FEF71EFE804697FACD
:103B9000A7F0B0FA80F040F02000400901D028687A
:103BA00000E0686A97FAA7F1B1FA81F101F01F010C
:103BB00006FA01F108421DD0FEF706FEA0EB080050
:103BC000642802D90320BDE8F88F97FAA7F0B0FA6D
:103BD00080F040F02000400901D0286800E0686AC9
:103BE00097FAA7F1B1FA81F101F01F0106FA01F18C
:103BF0000842E1D120784FF0000910F0020F4FF099
:103C000002074ED068684FF0F80A10F00C0F21D070
:103C1000686800F00C00082803D1686810F4803F41
:103C200018D0206988B396FAA6F0B0FA80F0800028
:103C300000F1844000F584000660FEF7C5FD804673
:103C400097FAA7F0B0FA80F040F02000400929D0A0
:103C5000286828E097FAA7F0B0FA80F040F020003A
:103C6000400901D0286800E0686A97FAA7F1B1FA24
:103C700081F101F01F0106FA01F1084206D0206926
:103C8000012803D00120BDE8F88F40E028689AFAA7
:103C9000AAF26169B2FA82F220F0F800914008437A
:103CA000286075E0686A97FAA7F1B1FA81F101F02E
:103CB0001F0106FA01F108421DD1FEF785FDA0EBB8
:103CC0000800022802D90320BDE8F88F97FAA7F070
:103CD000B0FA80F040F02000400901D0286800E0F0
:103CE000686A97FAA7F1B1FA81F101F01F0106FAAB
:103CF00001F10842E1D028689AFAAAF220F0F8010E
:103D00006069B2FA82F290400843286040E096FA77
:103D1000A6F0B0FA80F0800000F1844000F5840045
:103D2000C0F80090FEF750FD804697FAA7F0B0FA71
:103D300080F040F02000400901D0286800E0686A67
:103D400097FAA7F1B1FA81F101F01F0106FA01F12A
:103D500008421DD0FEF738FDA0EB0800022802D96A
:103D60000320BDE8F88F97FAA7F0B0FA80F040F092
:103D70002000400901D0286800E0686A97FAA7F19E
:103D8000B1FA81F101F01F0106FA01F10842E1D117
:103D9000207810F0080F5ED0A069B8B396FAA6F0AC
:103DA000B0FA80F0800000F1844000F58400C0F893
:103DB0008064FEF709FD804697FAA7F0B0FA80F01C
:103DC00040F06000B6EB501F01D128680BE097FA75
:103DD000A7F0B0FA80F040F06000B7EB501F01D1BF
:103DE000286A00E0686A97FAA7F1B1FA81F101F058
:103DF0001F0106FA01F108422DD1FEF7E5FCA0EB08
:103E00000800022803D90320BDE8F88F24E097FAC0
:103E1000A7F0B0FA80F040F06000B6EB501F01D17F
:103E200028680EE097FAA7F0B0FA80F040F0600042
:103E3000B7EB501F04D1286A03E0000000100240D5
:103E4000686A97FAA7F1B1FA81F101F01F0106FA49
:103E500001F10842D1D058E096FAA6F0B0FA80F00D
:103E6000800000F1844000F58400C0F88094FEF7E3
:103E7000ABFC804697FAA7F0B0FA80F040F0600003
:103E8000B6EB501F01D128680BE097FAA7F0B0FA03
:103E900080F040F06000B7EB501F01D1286A00E0CD
:103EA000686A97FAA7F1B1FA81F101F01F0106FAE9
:103EB00001F1084229D0FEF787FCA0EB0800022898
:103EC00002D90320BDE8F88F97FAA7F0B0FA80F086
:103ED00040F06000B6EB501F01D128680BE097FA64
:103EE000A7F0B0FA80F040F06000B7EB501F01D1AE
:103EF000286A00E0686A97FAA7F1B1FA81F101F047
:103F00001F0106FA01F10842D5D1207810F0040F04
:103F100074D04FF00008E86910F0805F09D1E869BB
:103F200040F08050E861E86900F0805000904FF068
:103F30000108DFF8C0B3DBF8000010F4807F1BD16C
:103F4000DBF8000040F48070CBF80000FEF73CFC8A
:103F50008246DBF8000010F4807F0DD1FEF734FCC0
:103F6000A0EB0A00642802D90320BDE8F88FDBF833
:103F7000000010F4807FF1D0E06801281CD000B36D
:103F8000052827D0286A20F001002862286A20F03E
:103F900004002862E06841F2883B80B3FEF714FC1D
:103FA000824697FAA7F0B0FA80F040F04000B6EBF6
:103FB000501F18D1286824E0286A40F001002862C8
:103FC000E8E7286A20F001002862286A20F004004F
:103FD0002862DFE7286A40F004002862286A40F07F
:103FE00001002862D6E797FAA7F0B0FA80F040F017
:103FF0004000B7EB501F03D1286A02E08BE035E0A8
:10400000686A97FAA7F1B1FA81F101F01F0106FA87
:1040100001F1084278D1FEF7D7FBA0EB0A00584522
:1040200002D90320BDE8F88F97FAA7F0B0FA80F024
:1040300040F04000B6EB501F01D128680BE097FA22
:10404000A7F0B0FA80F040F04000B7EB501F01D16C
:10405000286A00E0686A97FAA7F1B1FA81F101F0E5
:104060001F0106FA01F10842D5D04DE0FEF7ACFB86
:10407000824697FAA7F0B0FA80F040F04000B6EB25
:10408000501F01D128680BE097FAA7F0B0FA80F032
:1040900040F04000B7EB501F01D1286A00E0686A89
:1040A00097FAA7F1B1FA81F101F01F0106FA01F1C7
:1040B000084229D0FEF788FBA0EB0A00584502D938
:1040C0000320BDE8F88F97FAA7F0B0FA80F040F02F
:1040D0004000B6EB501F01D128680BE097FAA7F01B
:1040E000B0FA80F040F04000B7EB501F01D1286AD1
:1040F00000E0686A97FAA7F1B1FA81F101F01F01B7
:1041000006FA01F10842D5D1B8F1010F03D1E869EF
:1041100020F08050E861E069D0B3696801F00C01DB
:1041200008297DD04FF0807A4FF00078022817D010
:104130009AFAAAF0B0FA80F0800000F1844000F50D
:104140008400C0F80090FEF73FFB044698FAA8F000
:10415000B0FA80F040F02000400975D028688BE06C
:104160009AFAAAF0B0FA80F0800000F1844000F5DD
:104170008400C0F80090FEF727FB074698FAA8F0E5
:10418000B0FA80F040F02000400902D0286801E039
:1041900099E0686A98FAA8F1B1FA81F101F01F017B
:1041A00006FA01F108421CD0FEF70EFBC01B0228E4
:1041B00002D90320BDE8F88F98FAA8F0B0FA80F091
:1041C00040F02000400901D0286800E0686A98FAB1
:1041D000A8F1B1FA81F101F01F0106FA01F10842DC
:1041E000E2D1216A606A0843696821F474110843C6
:1041F00068609AFAAAF0B0FA80F0800000F184407A
:1042000000F584000660FEF7DFFA044698FAA8F08D
:10421000B0FA80F040F02000400902D0286801E0A8
:1042200052E0686A98FAA8F1B1FA81F101F01F0131
:1042300006FA01F108425AD1FEF7C6FA001B02281D
:1042400003D90320BDE8F88F15E098FAA8F0B0FA7A
:1042500080F040F02000400901D0296800E0696A40
:1042600098FAA8F0B0FA80F000F01F0006FA00F00B
:104270000142E1D03BE0686A98FAA8F1B1FA81F115
:1042800001F01F0106FA01F1084230D0FEF79CFA56
:10429000001B022802D90320BDE8F88F98FAA8F085
:1042A000B0FA80F040F02000400901D0296800E019
:1042B000696A98FAA8F0B0FA80F000F01F0006FAD8
:1042C00000F00142E2D112E001280DD06868226AB4
:1042D00000F48031914204D1616A00F47010884288
:1042E00005D00120BDE8F88F0120BDE8F88F00203F
:1042F000BDE8F88F007000402DE9F04104460F46FC
:104300001646002594F83C00012801D0012524E040
:10431000204601F0ABFA20B1FF2084F83C000325D1
:104320001BE0A7F50020B0F5807011D0380C216893
:104330000B6C1F2202EA80000322824023EA020261
:104340000A6421680A6C06FA00F01043086401E070
:1043500020684664204601F0A6FA2846BDE8F081B0
:1043600070B504460E46002594F83C00012802D0A2
:104370000125284670BD204601F078FA20B1FF20C3
:1043800084F83C000325F4E72068416821F0060129
:1043900041602068416831434160204601F083FA62
:1043A0002068416841F010014160022084F83C001F
:1043B000DFE710B44FF0000C90F83C30002B19D020
:1043C000FF2B17D003685C6824F49E045C60012A0C
:1043D00007D003685C686FF30F0121435960826165
:1043E0000AE003685C686FF30F0141F48001214328
:1043F0005960F4E74FF0010C10BC604670470000B4
:1044000070B50446002C45D00020A061E061012574
:1044100025626562A062E062690321636063A06354
:104420002064204600F03AF82068016821F4E05149
:104430000160E1686068014320680268114301601F
:104440002068416821F08071416020684168A2685D
:104450001143416010480168226901F440719142A2
:104460000AD0016821F4407101600168226911439A
:1044700001600220FEF788F82068416841F00101E0
:1044800041602068816811F4004FFBD184F83C50F2
:10449000002070BD012070BD006001402DE9F04793
:1044A00086B0044614216846FCF727F84948DFF82F
:1044B00020C1236800250321474A861507154FF0C0
:1044C00020084FF4405963452AD1836943F0807333
:1044D0008361836903F080730593436943F4802308
:1044E0004361406900F48020059005208DE8230099
:1044F00069461046FEF75CF8DFF8E4A037495046FD
:10450000E0E8021520C080E8E0015046CAF81C909F
:1045100056E0C4F814A0CAF8244006B0BDE8F087FD
:10452000DFF8C0C0634524D1836943F00073836121
:10453000836903F000730593436943F48023436167
:10454000406900F48020059004208DE8230069462E
:104550001046FEF72DF8DFF890A0204950461431A0
:10456000E0E8021520C080E8E0015046CAF81C903F
:1045700026E01E4A9342D0D1826942F08062826175
:10458000826902F080620592426942F480124261BF
:104590004069009600F480100590CDE90115694648
:1045A0001348FEF705F8DFF84CA00C4950462831B7
:1045B000E0E8021520C080E8E0015046CAF81C90EF
:1045C000FDF77AFF0028A4D0FDF713FDA1E7000056
:1045D0000060014000100240000400483004024026
:1045E000585E0020006401409C5E0020006801408D
:1045F000000C0048E05E00202DE9F04105460F4622
:104600001446002695F83C00012801D0012618E048
:10461000284601F02BF920B1FF2085F83C00032645
:104620000FE02021286801EB8701084462682168B7
:10463000E3681143A2681A4311430160284601F060
:1046400032F93046BDE8F08100220368A3F1804CC6
:10465000BCF5B03C01D101290AD090F83C30012BC7
:1046600008D0022B06D0042B04D00122104670473C
:104670000122FBE78162F9E7401EB0F1807F01D3A0
:10468000012070474FF0E0214861044AF02010708B
:1046900000208861072008610020704723ED00E0BA
:1046A00090F83C20012A2CD0012280F83C20CA68D6
:1046B0000023D1F808C022F4407242EA0C02D1F87B
:1046C00004C022F4806242EA0C02D1F800C022F455
:1046D000006242EA0C02D1F810C022F4805242EA91
:1046E0000C02D1F814C022F4005242EA0C02C9694B
:1046F00022F4804211430268516480F83C3000206B
:1047000070470220704730B490F83C20012A3FD017
:10471000012480F83C40022280F83D200268D2F853
:1047200004C093682CF0700C0D6845EA0C0CC2F8BC
:1047300004C00268B2F1804F1DD0A2F1804CBCF5DC
:10474000806C18D0A2F1804CBCF5006C13D0A2F1A3
:10475000804CBCF5406C0ED0A2F1804CBCF5C05C26
:1047600009D0A2F1804CBCF5A03C04D0A2F1804C51
:10477000BCF5AE3C04D123F0800349681943916035
:1047800080F83D40002180F83C1030BC002070478C
:1047900030BC0220704710B50446002C03D094F8BA
:1047A0003D0010B107E0012010BD002084F83C005E
:1047B000204600F01FF8022084F83D00211D2068EB
:1047C00001F068FA012084F8480084F83E0084F87B
:1047D0003F0084F8400084F8410084F8440084F8E5
:1047E000450084F8460084F8470084F83D00002026
:1047F00010BD000008B500681D4A1E4990420ED148
:10480000886940F4003088618869002200F4003033
:10481000009011461920FEF72BF9192022E0164AC4
:1048200090420ED1886940F4802088618869012215
:1048300000F48020009000211A20FEF719F91A20B8
:1048400010E00E4A904211D1C86940F40070C8616E
:10485000C869002200F40070009001211B20FEF7BF
:1048600007F91B20BDE80840FEF7F4B808BD0000BA
:10487000004401400010024000480140009C0040FC
:1048800090F83D10012901D001207047022180F8E5
:104890003D100168CA6842F00102CA600068B0F1C8
:1048A000804F23D0A0F18041B1F580611ED0A0F1EE
:1048B0008041B1F5006119D0A0F18041B1F54061AE
:1048C00014D0A0F18041B1F5C0510FD0A0F18041CA
:1048D000B1F5A0310AD0A0F18041B1F5AE3105D0DB
:1048E000016841F00101016000207047816801F01A
:1048F00007010629F8D0016841F001010160F3E7E2
:104900000168CA6822F00102CA6001680A6A41F2BD
:1049100011131A4207D10A6A9B101A4203D10A687E
:1049200022F001020A60012180F83D10002070474A
:1049300070B505460C46002695F83C0001280FD0BE
:10494000012085F83C006AB1042A1CD0082A2CD02A
:104950000C2A3BD00126002085F83C00304670BD73
:10496000022070BDE36862682168286801F0B5FA2A
:104970002868816921F00C01816128688169A26839
:1049800011438161E7E7E36862682168286801F004
:10499000E6FA2868816921F44061816128688169AB
:1049A000A26841EA02218161D5E7E3686268216873
:1049B000286801F0F4FA2868C16921F00C01C1618E
:1049C0002868C169A2681143C161C4E7E3686268ED
:1049D0002168286801F001FB2868C16921F4406161
:1049E000C1612868C169A26841EA0221C161B2E7D8
:1049F00010B50446002C03D094F83D0010B107E038
:104A0000012010BD002084F83C00204600F01EF874
:104A1000022084F83D00211D206801F03BF90120AF
:104A200084F8480084F83E0084F83F0084F8400091
:104A300084F8410084F8440084F8450084F8460076
:104A400084F8470084F83D00002010BD10B586B002
:104A5000044614216846FBF750FD2068B0F1804FF2
:104A60001FD11148C16941F00101C161C16901F063
:104A700001010591416941F4003141614069694694
:104A800000F40030059004200090022001900020E6
:104A9000029003200390012004904FF09040FDF716
:104AA00087FD06B010BD00000010024010B586B0B2
:104AB000044614216846FBF720FD0E492068884211
:104AC00016D10D48416941F400314161406900212E
:104AD00000F4003005904FF4807000900220CDE982
:104AE0000101CDE9031069464FF09040FDF760FDEC
:104AF00006B010BD000C00400010024070B5044626
:104B0000002594F83C0001280FD0012084F83C00D7
:104B10006AB1042A0FD0082A11D00C2A13D001251B
:104B2000002084F83C00284670BD022070BD20683B
:104B300001F026F9F4E7206801F062F9F0E7206857
:104B400001F092F9ECE7206801F0AAF9E8E710B566
:104B50000446002C03D094F83D0010B107E001207A
:104B600010BD002084F83C00204600F01EF8022012
:104B700084F83D00211D206801F08CF8012084F8A4
:104B8000480084F83E0084F83F0084F8400084F830
:104B9000410084F8440084F8450084F8460084F815
:104BA000470084F83D00002010BD704770B50446F2
:104BB0000D46002C03D094F83D0010B107E0012011
:104BC00070BD002084F83C00204600F01FF8022051
:104BD00084F83D00211D206801F05CF82068016820
:104BE00021F008010160206801682943016001206B
:104BF00084F8480084F83E0084F83F0084F84400BC
:104C000084F8450084F83D00002070BD704770B501
:104C100004460D46002694F83C0001280FD00120E0
:104C200084F83C006AB1042A1FD0082A32D00C2A2A
:104C300044D00126002084F83C00304670BD02209C
:104C400070BD2946206801F09BF82068816941F019
:104C5000080181612068816921F004018161206877
:104C600081692A6911438161E4E72946206801F0DE
:104C7000C7F82068816941F4006181612068816919
:104C800021F480618161206881692A6941EA0221F9
:104C90008161CFE72946206801F0E6F82068C16904
:104CA00041F00801C1612068C16921F00401C161BE
:104CB0002068C1692A691143C161BBE729462068A0
:104CC00001F0EEF82068C16941F40061C16120681B
:104CD000C16921F48061C1612068C1692A6941EA22
:104CE0000221C161A6E710B50446002C03D094F858
:104CF0003D0010B107E0012010BD002084F83C0009
:104D0000204600F01FF8022084F83D00211D206895
:104D100000F0C0FF012084F8480084F83E0084F8C9
:104D20003F0084F8400084F8410084F8440084F88F
:104D3000450084F8460084F8470084F83D000020D0
:104D400010BD000008B500680649884208D1064831
:104D5000C16941F00801C161C06900F0080000901C
:104D600008BD0000000C00400010024010B50446D1
:104D7000002909D004290AD008290BD094F8410051
:104D800001280AD0012010BD94F83E00F8E794F8FD
:104D90003F00F5E794F84000F2E70220F1B3042960
:104DA0004DD008294ED084F841000122206800F03F
:104DB000D7FF26492068884209D0A0F18042B2F589
:104DC000A23204D0A0F18042B2F5A43203D1426CE9
:104DD00042F4004242642068B0F1804F22D0A0F13A
:104DE0008042B2F580621DD0A0F18042B2F500622F
:104DF00018D0A0F18042B2F5406213D0A0F18042F9
:104E0000B2F5C0520ED088420CD0A0F18041B1F56D
:104E1000AE3107D0016841F0010100E00CE0016013
:104E2000002010BD816801F007010629F8D0016853
:104E300041F001010160F3E784F83E00B5E784F832
:104E40003F00B2E784F84000AFE7000000400140B7
:104E500010B50446002C02D0A06F10B107E001206D
:104E600010BD002084F87400204600F027F82420AC
:104E7000A0672068016821F001010160204601F06F
:104E80006BF9012818D0606A10B1204601F0C5F80E
:104E90002068416821F4904141602068816821F0D8
:104EA0002A0181602068016841F00101016020460B
:104EB000BDE8104001F01DB9012010BD10B586B04D
:104EC000044614216846FBF718FB12492068884203
:104ED0001ED11148C16941F40031C161C16901F4B9
:104EE00000310591416941F4802141614069694681
:104EF00000F48020059018200090022001900020EE
:104F0000029003200390072004900448FDF750FB13
:104F100006B010BD004400400010024000040048EC
:104F2000FEE7F0B500230A24302537261F4610E09F
:104F3000B4EB107F02D905EB107C01E006EB107C8E
:104F400001F813C001EB430C00015B1C8CF80170ED
:104F5000DBB29342ECD3F0BD3EB500240F48009481
:104F6000019402940C498460016004730475012566
:104F700005614FF460214460C161FDF7C9F800B1DB
:104F8000FEE7CDE90045694604480294FDF732F892
:104F9000002800D0FEE73EBD00240140300500207F
:104FA000F0B587B014216846FBF7A7FA2948416994
:104FB00041F480014161416901F480010591416939
:104FC00041F400314161416901F4003105914169C9
:104FD00041F480214161416901F4802105914169D9
:104FE00041F48011416140694FF4CC6400F48010B9
:104FF0004FF090450590002221462846FDF7DEFB44
:105000000120CDE90040002402946946284603941B
:10501000FDF7CEFA0225032600950F4FCDE9016476
:1050200069463846FDF7C4FAB003CDE90004694685
:1050300038460294FDF7BCFA2020CDE90005029421
:105040000520CDE9036069463846FDF7B1FA07B09F
:10505000F0BD00000010024000040048114810B5E7
:105060000F4901601049416000210122C0E902128C
:10507000016141618161C1610162FDF703FC00B121
:10508000FEE700210748FDF7A5FB00B1FEE7002180
:105090000448FDF7CCFB002800D0FEE710BD00005F
:1050A00000540040740500200E0900201FB50024A4
:1050B00012480094019402940F490394C0E900142B
:1050C0008460C4600461FFF79BF900B1FEE7002132
:1050D0000A48FFF7B9FA00B1FEE74FF04060CDE9AA
:1050E000000402946A46002104480394FFF784FAFE
:1050F000002800D0FEE71FBD00600140C005002071
:105100001FB5002412480094019402940F4903949F
:10511000C0E900148460C4600461FFF771F900B154
:10512000FEE700210A48FFF78FFA00B1FEE74FF0D3
:105130004060CDE9000402946A46002104480394CB
:10514000FFF75AFA002800D0FEE71FBD00640140B7
:10515000040600201FB500241A480094019402940C
:1051600017490394C0E900148460C4600461FFF728
:1051700047F900B1FEE700211248FFF765FA00B1D8
:10518000FEE74FF04060CDE9000402946A4600213A
:105190000C480394FFF730FA00B1FEE70A4C0022F6
:1051A00021460848FFF7A8F800B1FEE70122214692
:1051B0000448FFF7FEF8002800D0FEE71FBD0000FE
:1051C00000680140480600204000060010B590B07D
:1051D0001C2108A8FBF791F920216846FBF78DF9FF
:1051E0001F481E490024016041F61F41C0E9011417
:1051F0004FF6FF71C0E9031444618461FFF7CBFAF5
:1052000000B1FEE71648FFF7A2FC00B1FEE7082157
:105210001348FFF7CBFC00B1FEE7089409940A9409
:105220000B940C940D94002208A90D480E94FFF7DE
:1052300065FC00B1FEE700944FF40050CDE9044056
:10524000029401940394694605480794FFF728FAED
:10525000002800D0FEE710B010BD0000004401405F
:105260002407002010B590B01C2108A8FBF745F9D1
:1052700020216846FBF741F91F481E4900240160C0
:1052800041F61F41C0E901144FF6FF71C0E9031454
:1052900044618461FFF77FFA00B1FEE71648FFF72B
:1052A00022FD00B1FEE708211348FFF77FFC00B1A3
:1052B000FEE76020CDE908040A940B940C940D9449
:1052C000002208A90C480E94FFF7A1FC00B1FEE7EC
:1052D00000944FF40050CDE90440029401940394EB
:1052E000694605480794FFF7DBF9002800D0FEE780
:1052F00010B010BD004801407007002010B586B006
:1053000000241748009401940294039404944FF0ED
:1053100080410594016041F61F41C0E9011442F249
:105320000F71C0E9031480218161FFF761FB00B1B7
:10533000FEE7009469460A480194FFF7E4F900B1DA
:10534000FEE70120CDE902400494082202A90448A6
:105350000594FFF7EDFA002800D0FEE706B010BD77
:105360008C06002010B58AB0002407941C216846E2
:105370000894FBF7C2F817481549016041F61F4130
:10538000C0E9011442F20F71C0E903148021816168
:10539000FFF7A9FC00B1FEE7079407A90D480894A0
:1053A000FFF7B1F900B1FEE76020009041F28730CD
:1053B000CDE901040022694606480494FFF727FC62
:1053C00000B1FEE70348FFF771FB0AB010BD000013
:1053D000000C0040D80600200C4810B50A490160B6
:1053E0004FF416414160002181600C22C160C0E988
:1053F00004128161C16101624162FFF729FD002849
:1054000000D0FEE710BD0000004400400808002066
:1054100010B500220F49104801F0AAFB08B1FCF7B3
:10542000E8FD0E490C4801F096FD08B1FCF7E1FDDE
:105430000B49094801F0DBF808B1FCF7DAFD064832
:1054400001F03AFE002803D0BDE81040FCF7D1BDC2
:1054500010BD000020000020245F00206C0100200F
:1054600070000020FEE770472DE9F05F04462068D9
:10547000B0F8440010F4004F00F0CF814FF0060860
:105480004FF002094FF480672068B0F8441001F033
:105490000F06002E47D030F826A01AF4004F00F077
:1054A000458130F8261021F0700121F4704141F05F
:1054B000800120F8261006EB860004EBC00000F502
:1054C000B475287B002800F0EE80E878022800F010
:1054D000FF802978206830F8212022F0700222F421
:1054E000E04248F2C0031A4320F8212029782068BE
:1054F00030F8212012F4804F00F0F180B0F85020F5
:1055000009EBC101114407EB4101415AC1F3090BF9
:10551000BBF1000F00F0F5802A895B46696902F053
:1055200010FD00F0EEB811F0100F25D004F5B475A1
:10553000018811F4006F52D0B0F850102A7808EBAF
:10554000C202114407EB4101405AC0F30903EB6169
:10555000EA8804F52C71206802F0F3FC20680188C9
:1055600021F0700121F4704141F08001018020465A
:10557000FDF7A7FF00F04AB9018821F0F00121F4FE
:10558000E04141F40041018004F128052068B0F8B1
:1055900050102A7809EBC202114407EB4101405A2E
:1055A000C0F30900E8616969084468610021204688
:1055B000FDF7C3FA94F82400002800F02781A869B9
:1055C000002840F0238194F82400216840F08000F6
:1055D000A1F84C00002084F8240000F017B911F461
:1055E000004F00F01381018821F0700121F4704117
:1055F00041F0800101802068B0F850102A7808EB53
:10560000C202114407EB4101405AC0F30900E861AE
:1056100070B1696961B183B2EA88206802F091FCD7
:10562000E96968690844686100212046FDF78EFA3F
:105630002068018811F4006F73D1B0F8501008444D
:1056400000F20C40296961B13E2913D84A0811F0D3
:10565000010F00D0521C4FF6FF7101EA8221018038
:1056600012E0018821F4F8410180018841F40041F1
:10567000018009E04A0911F01F0F00D1521E4FF4BA
:10568000004141EA822101802068018821F07001F7
:1056900021F4804181F4805181F4005148F280026C
:1056A00011430180B2E02068B0F850102A7808EB6E
:1056B000C202114407EB4101415AC1F3090BBBF18E
:1056C000000F1ED0EA885B46696902F03AFC18E0D8
:1056D000524629462046FDF795FA834611E0B0F878
:1056E000502008EBC101114407EB4101415AC1F3BD
:1056F000090BBBF1000F04D06A895B46696902F0AF
:1057000020FCE8695844E861686958446861A86900
:1057100010B12869584505D929782046FDF716FAB1
:1057200004E06BE02946206802F014F91AF0800FBB
:105730006CD006EB860004EBC00000F12801206865
:1057400030F8262022F0F00222F4E04242F4004237
:1057500020F82620C878022851D000238B611AF047
:10576000400F24D0487810B1012814D042E02068BE
:10577000B0F8502010440A7809EBC20200EB420056
:1057800000F58060028822F4F8420280028842F428
:10579000004202802EE02068B0F8502010440A78C1
:1057A00009EBC20200EB4200A0F8003422E02068BE
:1057B0004A7812B1012A13D01CE0B0F850201044EE
:1057C0000A7808EBC20200EB420000F58060028814
:1057D00022F4F8420280028842F40042028009E08A
:1057E000B0F8502010440A7808EBC20200EB4200E7
:1057F000A0F8003409782046FDF79FF906E01AF476
:10580000807F0DD052462046FDF78DFA2068B0F813
:10581000440010F4004F7FF437AE0020BDE8F09F45
:105820002068B0F850200B7809EBC3031A4407EB4B
:105830004202805AC0F309008A69824202D9121AD0
:105840008A6101E000228A618A694AB14A69024498
:105850004A61CA691044C861206802F07BF8D5E744
:1058600009782046FDF769F9D0E7704770B504461E
:105870002068016841F000410160FCF7A5FF054682
:105880002068806810F0004F0BD1FCF79DFF401B93
:10589000C82801D9032070BD2068806810F0004F2F
:1058A000F3D0002070BD0068016821F00041016064
:1058B00070477047FDF77AB830B59BB0282168462D
:1058C000FAF71BFE142115A8FAF717FE2C210AA8D7
:1058D000FAF713FE032001210090049110214FF4E8
:1058E000803000240591CDE901040225CDE907505F
:1058F000000109906846FEF7A5F800B1FEE70F2009
:10590000CDE915054FF48065CDE91745022115A8AD
:105910001994FDF73BFF00B1FEE70F940C48149477
:105920000A900D944FF02840CDE911400AA8FDF7E8
:105930000FFE00B1FEE74FF40070FDF7F5FD2846BD
:10594000FDF7F2FD4FF40060FDF7EEFD1BB030BD3A
:10595000A20802001448016841F470010160134874
:10596000016841F0010101604168114A1140416044
:105970000168104A11400160016821F48021016032
:10598000416821F4FE014160C16A21F00F01C1624A
:10599000016B094A11400163002181600249C00383
:1059A000803908607047000088ED00E00010024078
:1059B0000CC07FF8FFFFF6FECCFC00FF0948006832
:1059C0000068016A41F21112114207D1016A921076
:1059D000114203D1416C21F4004141640148FBF7BD
:1059E000B2BD0000105E00200948406A0068016AEC
:1059F00041F21112114207D1016A9210114203D1F2
:105A0000416C21F40041416401482430FBF79BBD07
:105A1000105E002070B594496FF0010009680861BC
:105A2000934D924CB5F90010B5F90200D4F88020DE
:105A30000B1A22B1012A05D0022A07D10EE000EE8E
:105A4000101A01E000EE100AB8EEC00AD4F8802265
:105A50003AB1012A08D0022A0AD102E100EE103A36
:105A6000F2E700EE901A01E000EE900AF8EEE00A8C
:105A7000804C2046616A88477F4928888A6ACB68BB
:105A8000D0528889801CC0F30C00C860002001EB54
:105A90008002401C93699B1C93610228F7DB7649C6
:105AA00068888A6ACB68D0528889801CC0F30C0051
:105AB000C860002001EB8002401C93699B1C93612D
:105AC0000228F7DB94ED020A6C4B10EE100ADFEDB2
:105AD0006C0A984201DDB0EE600A10EE100A4FF039
