:020000040800F2
:10000000387800209D010008BF400008893C0008A6
:10001000BD400008CD020008855700080000000020
:10002000000000000000000000000000B5440008CF
:10003000771400080000000077440008B744000867
:10004000B7010008B7010008B7010008B7010008B0
:10005000B7010008B7010008B7010008B7010008A0
:10006000B7010008B7010008B7010008B701000890
:10007000B7010008B7010008B7010008B701000880
:10008000B7010008B7010008B7010008B701000870
:10009000B7010008B7010008B7010008B701000860
:1000A000B7010008C9450008054600084146000898
:1000B000B7010008B7010008B7010008B701000840
:1000C000B7010008B7010008B7010008B701000830
:1000D000B7010008B7010008B7010008B701000820
:1000E000B7010008B7010008B7010008B701000810
:1000F000B7010008B7010008000000000000000080
:100100000000000000000000B7010008B70100086F
:100110000000000000000000B7010008B70100085F
:10012000B7010008B7010008F9130008051400081A
:10013000B7010008B7010008B7010008B7010008BF
:10014000B7010008000000000000000000000000EF
:10015000000000000000000000000000000000009F
:100160000000000000000000B701000879570008F7
:10017000B701000800000000B701000800000000FF
:1001800000000000B7010008DFF80CD000F03CF8D8
:1001900000480047C95700083878002006488047C3
:1001A00006480047FEE7FEE7FEE7FEE7FEE7FEE75C
:1001B000FEE7FEE7FEE7FEE761450008890100086B
:1001C0000649074A0868504343F239021044086060
:1001D000400870470149086070470000780100201E
:1001E0006D4EC64140EA01039B0703D009E008C9F0
:1001F000121F08C0042AFAD203E011F8013B00F8EC
:10020000013B521EF9D27047064C074D06E0E068EC
:1002100040F0010394E8070098471034AC42F6D34D
:10022000FFF7B6FF905E0008B05E000870B58C184E
:1002300010F8015B15F0070301D110F8013B2A11FA
:1002400006D110F8012B03E010F8016B01F8016BE7
:100250005B1EF9D12B0705D40023521E0DD401F8E3
:10026000013BFAE710F8013BCB1A921C03E013F8AC
:10027000015B01F8015B521EF9D5A142D8D30020E1
:1002800070BD70B5044600688168C943C9071BD1B9
:10029000816821F00101816001F03AFC05460EE021
:1002A00001F036FC401B022809D9A06A40F010007A
:1002B000A062E06A40F00100E062012070BD2068A9
:1002C0008068C043C007EBD0002070BDFEE700206F
:1002D000704700207047000010B50022044905480F
:1002E00004F04AFD0449034804F040FD002010BD1D
:1002F0004C73002078650020646F002070B50E46B6
:1003000005460146084804F031FD074804F012FD97
:10031000002404E0295D0548641C00F04AFD3068B3
:10032000A042F7D8002070BD78650020504300201F
:100330000A46094910B5D1F81812D1F8141209B1BA
:10034000012010BD0146044804F016FDBDE8104030
:10035000014804F051BD00007865002010B5044646
:100360002DED028B006A00F011FFB0EE408A84EDA3
:10037000008A606A00F00AFFE16AB0EEC01A01F577
:100380000062D1F8040800EE900AD1F80008F8EEF7
:10039000E01A01EB8000C1EE210A92ED031AD0EDC4
:1003A000001A31EE611A82ED031AD1F8000801EB50
:1003B0008000C0ED000A92ED031A71EE200AC2ED32
:1003C000030AD1F80008401CC1F80008D1F804283D
:1003D000904202DB0020C1F80008C4ED010A84ED60
:1003E000028A84ED030AB0EE600A0121606B00F01E
:1003F0009DFF606B90F82800C00702D0012000F03C
:1004000013FABDEC028B10BD704770B504462DED9C
:10041000028BF0EE608A006A00F0B8FEA16AB0EECE
:10042000408A0025D1F80408B0EEC81A00EE100A80
:10043000D1F8002801F50060F8EEC00A01EB820255
:1004400081EE200AD0ED030A92ED001A70EEC10A87
:10045000C0ED030AD1F8002801EB820282ED000A08
:10046000D0ED030A30EE800A80ED030AD1F80008CF
:10047000401CC1F80008D1F80428904201DBC1F803
:10048000005884ED000AB0EE680A606A00F07EFE53
:10049000E16AB0EEC01AD1F80408D1F8002800EEE5
:1004A000900A01F5006001EB8202F8EEE01AC1EE5D
:1004B000210A90ED031AD2ED001A31EE611A80ED97
:1004C000031AD1F8002801EB8202C2ED000A90ED78
:1004D000031A71EE200AC0ED030AD1F80008401C8F
:1004E000C1F80008D1F80428904201DBC1F8005897
:1004F000C4ED010A84ED028A84ED030A94ED000A3A
:100500000021206B00F012FF94ED010A0121606BC5
:1005100000F00CFF206B90F82800C00702D00120EB
:1005200000F082F9606B90F82800C00702D002202A
:1005300000F07AF9BDEC028B70BD70B504462DED6C
:10054000028BF0EE608A006A00F020FEA16AB0EE35
:10055000408A0025D1F80408B0EEC81A00EE100A4F
:10056000D1F8002801F50060F8EEC00A01EB820224
:1005700081EE200AD0ED030A92ED001A70EEC10A56
:10058000C0ED030AD1F8002801EB820282ED000AD7
:10059000D0ED030A30EE800A80ED030AD1F800089E
:1005A000401CC1F80008D1F80428904201DBC1F8D2
:1005B000005884ED000AB0EE680A606A00F0E6FDBB
:1005C000E16AB0EEC01AD1F80408D1F8002800EEB4
:1005D000900A01F5006001EB8202F8EEE01AC1EE2C
:1005E000210A90ED031AD2ED001A31EE611A80ED66
:1005F000031AD1F8002801EB8202C2ED000A90ED47
:10060000031A71EE200AC0ED030AD1F80008401C5D
:10061000C1F80008D1F80428904201DBC1F8005865
:10062000C4ED010A84ED028A84ED030A94ED000A08
:100630000021206B00F07AFE94ED010A0121606B2D
:1006400000F074FE206B90F82800C00707D0606BA4
:1006500090F82800C00702D0012000F0E5F8BDECBA
:10066000028B70BD2DE9FF5F9846DDE90EBA914619
:100670000E4605460024C4EB0410C0EBC00108EB95
:10068000C10305EB8400C4EBC40704EBC4120AEBFE
:10069000C7070BEB021107630362816209EB442277
:1006A000184600F0A7F906EB8400D0F8E8C0D0F8AF
:1006B000D83050F8A82F01698DE80E1090ED160A79
:1006C000D6E93E233846316800F000FE641C022C57
:1006D000D1DBAE61B6F8A40080B22882052808D22A
:1006E000DFE800F003050E101200084800E008489B
:1006F000E8610848006804B0BDE8F05FFFF76ABD34
:100700000548F5E70548F3E70548F1E7090400085F
:100710004D070008282800400B0400085D0300086E
:100720003B050008074941F287300A68D062096832
:1007300008640549488820F4C05040F400504880BF
:1007400070470000BC0400200000002010B50446E3
:10075000006A00F01BFDA16AB0EEC01A01F500624C
:10076000D1F8040800EE900AD1F80008F8EEE01A7B
:1007700001EB8000C1EE210A92ED031AD0ED001AC0
:1007800031EE611A82ED031AD1F8000801EB800006
:10079000C0ED000A92ED031A71EE200AC2ED030AC1
:1007A000D1F80008401CC1F80008D1F80428904294
:1007B00002DB0020C1F80008C4ED000A84ED020A43
:1007C000B0EE600A0021206B00F0B0FD206B90F8C5
:1007D0002800C00702D0012000F026F810BD028AD0
:1007E0004FF40061052A0AD2DFE802F0090305058B
:1007F0000500006B02E0026B9162406B8162704702
:10080000074841F287310268D162006849100164EB
:100810000449488820F4205040F4805048807047B4
:10082000BC04002000000020014800F06CBA000069
:10083000A86400200A4810B5026842F20F71D16224
:100840000068491001640C21054803F0F9F90549D5
:10085000488820F4405040F40060488010BD0000FB
:10086000BC0400200000002010B500F58053D3F830
:10087000A040F4B1D3F89C4000EB840404F580540C
:1008800064690C60D3F89C1000EB810000F5805087
:10089000406D1060D3F89C00411C082901D2401C17
:1008A00000E0C01F43F89C0F5868401E58600020AD
:1008B00010BD4FF0FF3010BD10B500F58053D3F8D8
:1008C000944000EB840404F580546161D3F89410E3
:1008D00000EB810000F580504265D3F89400411C84
:1008E000082901D2401C00E0C01F43F8940FD868CB
:1008F000401CD860002010BD00B500F580510022DA
:1009000081F88020CA6F496FFFF7D6FF002000BD35
:1009100030B500F5805241F21005D2F8983000242D
:100920000B44AB4201D3C2F89840D2F89830801CF7
:100930001844D167C2E91D04012482F880405C1884
:10094000AC4203D3A1F5805110395C18C2F898402D
:1009500030BD10B500F58050D0E91E345A1CA342BA
:1009600004D2446F82670020E15410BD82674FF0CB
:10097000FF3010BD00F58050002180F880108167A5
:1009800008467047A0F6887000F5005003C8081AA2
:1009900070470146112829D012DC40F201200429B9
:1009A0001ED006DC012903D0022901D0032917D16A
:1009B0007047052914D00629FAD0102910D117E064
:1009C00040290DD006DC142912D020290AD0212874
:1009D00006D109E0412903D0602909D0832805D038
:1009E00001207047152070470D2070470220704786
:1009F0000520704738B50D46D2F8841014460929F1
:100A00004CD2DFE801F0050C141B232A32394100D7
:100A10002649052301F15002009114313CE023499D
:100A200005238C3101F150020091143134E020494A
:100A3000052301F15002009114312DE01C490523DA
:100A40008C3101F150020091143125E01949052340
:100A500001F15002009114311EE0164905238C313A
:100A600001F150020091143116E01349052301F100
:100A70005002009114310FE00F4905238C3101F130
:100A800050020091143107E00C490B8833B1091D65
:100A900001F580720091403100F0C8FB2846D4F87F
:100AA0008C10BDE8384000F0F9BB0000005A000887
:100AB000185B0008305C0008485D00087C010020DD
:100AC00010B5018921F00101018100F0ABF810BDE2
:100AD00010B50446008940F0020020812069B0F57D
:100AE000803F01D34FF6FF702168C8602168002065
:100AF0004861226861891268D162216809680863C7
:100B0000206802F090FD20680068016921F01F0153
:100B100001612068BDE8104002F0E6BD018941F0A6
:100B2000010101817047016809680A690B6923F0B6
:100B30001F030B61D10708D001898A0703D4490735
:100B400007D5818B19B100F035B800F097B800F0E7
:100B5000C3B8704710B50384016004468280012049
:100B60009040E0808020886121680020086101F0C9
:100B7000FFFF42F21071B0FBF1F02168401E4860A7
:100B800010BD30B5DDE9035481826D1E4583C382FB
:100B900042814FF6FF71C183048301688388342545
:100BA000096805EB0313CC500168CA600068002196
:100BB000416130BD10B50446006802F0A1FD2089F6
:100BC00020F0020040F0080020812168A08AC8605F
:100BD000206802F028FD2068A1883422006802EB1A
:100BE00001110844E18A0160A08801228100206887
:100BF000006803F0D1FE20680068016921F01F0140
:100C0000016120680068C168E28841EA4201C16070
:100C1000206802F069FD204600F016F8A08B401E07
:100C2000A08310BD4FF09040816941F080718161D7
:100C3000816941F0007181610248418821F003011E
:100C400041807047000000204FF09043996941F4C3
:100C500080719961084A018C508829B1012902D11B
:100C600040F008005080704740F0020050809869C2
:100C700040F04000986170470000002010B5044625
:100C80000089002220F0080040F010002081A08898
:100C900081002068006803F07FFE204600F002F823
:100CA00010BD00004FF09043996941F08071996147
:100CB000084A018C508829B1012902D120F008008E
:100CC00050807047996941F48001996120F00200D9
:100CD000F6E700000000002010B50446006802F0AE
:100CE0000FFDA088002281002068006803F054FEF8
:100CF000208920F01C0020812046FFF7D3FF2046EA
:100D000000F03AF810BD10B504460089C10724D0A0
:100D100010F01A0F21D140F004002081204600F08D
:100D20001DF8FFF74DFA01464FF6FF7091FBF0F208
:100D300000FB1211A2895143B1FBF0F06189081840
:100D40002061618BA183204603D0BDE81040FFF7EE
:100D5000BFBEBDE81040FFF72DBF10BD4FF0904063
:100D6000816941F4007181610248418841F00101CB
:100D700041807047000000204FF09040816941F0B1
:100D8000007181610248418821F001014180704772
:100D90000000002041F2A4031844FFF765BD41F2B2
:100DA000A4010844FFF7A8BD41F2A4021044FFF7D4
:100DB000D0BD2DE9F0410F4641F2A40100F50054E9
:100DC00080464618D4F848014FF0FF35810536D5E6
:100DD0004FF48450805D78B93846FFF7DAFD00287B
:100DE00007DD3846FFF7D5FD01463046FFF790FD99
:100DF00002E03046FFF7BEFD3046FFF7C3FD002896
:100E000009DD39464046FFF7CFFF401C1ED1304672
:100E1000FFF7B0FD0EE03E2F09D03046FFF7AAFDE8
:100E2000D4F8480120F40070C4F848010EE04046B0
:100E3000FFF7B5FFD4F8480120F4007003E03C2F21
:100E400004D140F400700025C4F848012846BDE8EC
:100E5000F08100002DE9FC4704460078DFF8EC91B2
:100E600020287CD013DC7A4E7A4D102878D009DC0B
:100E7000794F4FF40072012818D0022844D0062878
:100E800041D146E011286CD01428F9D198E070497E
:100E90003439412866D004DC21287CD04028EFD1A9
:100EA000B8E0602878D083282DD1C8E0611C68485C
:100EB000FFF798F96649CDE90075684B634A01F57B
:100EC000E950FFF7CFFBFFF77BF9D6F8D820D6F82B
:100ED000E81000FB012082B2B6F8B800B6F8C810DE
:100EE00080B289B2CDE9001036F8A80F83B2B6F807
:100EF000780081B25A48FFF744FE56487030FFF739
:100F00006EFC00F031F99DE0611C5048FFF76AF972
:100F10001FE054486688211D20F8046BB200FFF7DB
:100F200061F904EB860000F1040806EB460084003A
:100F30004C48224641464430FFF754F906EB46013F
:100F4000224608EB81014848FFF74CF90821C9F80F
:100F500084103F49414B3D4A01F5E95003E03CE034
:100F60000AE01DE05AE0CDE90075FFF77BFB394848
:100F70007030FFF734FC65E0694600202218527893
:100F80000A54401C0428F9DB9DED000A85ED060A91
:100F9000D5ED070A01E02DE044E020EE200A19E03B
:100FA000607830B10120C6F8A0002D48FFF7B6FDEB
:100FB00048E00020C6F8A0002948FFF781FD41E085
:100FC00069460020221852780A54401C0428F9DB94
:100FD0009DED000A85ED050A34E0214834F8011F33
:100FE0004181A18881812189C182A1898182218A4F
:100FF000418327E054F8011FC9F88C106168C9F8D3
:101000008410A168C9F88010104A13491348FFF7EB
:10101000F1FC17E0486840F0020001E06FF00200C8
:1010200048600FE0D4F801000A21B0FBF1F000EEB7
:10103000100A0E48B8EE400A80ED010A02E00848A6
:10104000FFF761FE0020BDE8FC870000F0270020CC
:10105000F0250020A042002080320020F02B00204C
:10106000A86400207C0100208002002000000020F5
:1010700009480169826801F580718A4203D8B1FB91
:10108000F2F303FB121101618169A1F580718161A5
:101090000249002008707047BC2500200000002095
:1010A00010B52A4C04F10C00217859B101292FD038
:1010B000022906D10121001DFFF73AF9002800D1CD
:1010C000207010BD3C210170AD2141703E210171A5
:1010D0001F49204A096B91ED050A10EE101A914242
:1010E00001DD9FED1D0A10EE101AB1F1474F01D935
:1010F0009FED1A0ABDEEC00A10EE101A4180134887
:1011000004210C30FFF714F90028DAD10120D7E7C9
:1011100013481449006908444FF48071FFF708F937
:101120000028CED1022020700D480169826801F5A7
:1011300080718A4203D8B1FBF2F303FB1211016103
:101140008169A1F58071816110BD0000000000205F
:101150001043002000FEFF4600FEFF46000000C7CF
:10116000BC250020BC050020064810B5D0F8A00022
:101170000028054802D0FFF7D1FC10BDFFF7A0FC06
:1011800010BD0000F0250020A8640020F0B500226A
:1011900046E002EB420100EB810400EB8205D4ED56
:1011A000600AD0F84063D5F80013B0EE402A20EE74
:1011B000800A8E46012356F8227015E004EB830C5A
:1011C00004EB8106DCED600A96ED001AD6ED301ACC
:1011D000491E60EE810A9CED901A41EE610A30EEE4
:1011E000800A00D539445B1C9F42E7DC0EF1010EFA
:1011F000C5F800E3D0F8401351F82210714501DD25
:10120000714602E00021C5F8001304EB8101521C75
:1012100081ED002AD5F8001304EB810181ED300A3D
:10122000D0F844139142B4DCF0BD00002DE9F04F3A
:10123000994693468A460023DDF824E025E003EB37
:10124000430200219FED140A0F4600EB83060BEBCF
:1012500082050AEB820400EB820C0CEB810205EBA9
:10126000810882ED000A82ED300AC6F80073D8EDDD
:10127000000A04EB8108C2ED900AD8ED000A491C6F
:10128000C2ED600A0329E8DB5B1C4B45D7DBC0E9F4
:10129000D0E9BDE8F08F00000000000000229FEDC3
:1012A0000A0A04E000EB8203521C83ED000A8A4222
:1012B000F8DBC0F804180021C0F8001800F5006041
:1012C00080ED030A7047000000000000F0B54A43BB
:1012D000DDE90754DDE90576426201FB03F20262B3
:1012E00001FB07F34FF47A72B3FBF2F3C36001FB27
:1012F00006F3B3FBF2F3036101FB05F36143B3FBB8
:10130000F2F5B1FBF2F1C0E90151B3FBF2F101607A
:101310000021C16280ED060A9FED030A416380ED62
:10132000050A8162F0BD00000000000070B50446AF
:10133000806A020553D5820445D4C204626B26D567
:10134000656AAA423BDB236A1D4495420CDD00EE30
:10135000903AF8EEE00A80EE201A94ED070A31EE9A
:10136000000A84ED070A2AE094ED070AD4ED060A84
:1013700020F4805040F4005020EE200A84ED050A4D
:10138000A0620020E0620846FFF7CCF917E0636A2C
:101390009A420CDB20F480409FED160A40F4805006
:1013A00084ED070AA0620846FFF72AFA07E0420424
:1013B00005D440F48040A0620846FFF73BFA606B1A
:1013C000401C60630BE0D4ED050AC10709D0F4EEC0
:1013D000C00AF1EE10FA02DD20F00100A062A06A5E
:1013E00070BDF4EEC00AF1EE10FAF8D240F0010040
:1013F000F4E7000000000000014800F0F4B900002C
:10140000F0640020014800F0EEB9000034650020CF
:101410000B4B01681422994207D20A4B1944B1FBC5
:10142000F2F189000164084908E0054B5B42194468
:10143000B1FBF2F18900016401490839C1637047C9
:1014400008040240F8FFFDBF0000024030B590F8EC
:1014500040500124AC40C56B6C6004686360436815
:10146000102B036803D099600068C26030BD9A6099
:101470000068C16030BD7047F8B50023009390F854
:1014800024201C46012A12D0012280F824204A6818
:101490001F26072A0DD205686F6B521E02EB8202CF
:1014A0009640B7430E68964037436F6319E00220B9
:1014B000F8BD05680D2A0AD22F6BD21F02EB8202FB
:1014C0009640B7430E68964037432F6309E0EF6AB2
:1014D0000D3A02EB82029640B7430E6896403743BE
:1014E000EF620A68072605680A2A0AD9EF680A3AED
:1014F00002EB42029640B7438E6896403743EF6056
:1015000008E02F6902EB42029640B7438E6896408E
:1015100037432F610A68102A04D0112A02D0122AF8
:1015200016D01AE00268956845F4000595600968D0
:10153000102912D10B490C4A0968B1FBF2F101EBF9
:101540008101490000E0491E00910029FBD104E01F
:1015500006490A6842F080720A6080F82440184602
:10156000F8BD00005C00002040420F000000014078
:101570002DE9F0414FF00006040035467DD0A06A09
:10158000002728B9E76284F82470204600F07EF82E
:101590002046FEF776FEA16AC90600D420B1A06AF3
:1015A00040F01000A06268E0A16A21F4885141F087
:1015B0000201A1626268E169E3680A4346EA430105
:1015C0000A43A1684FF48076B14208D0012906D0C1
:1015D0000021D4F814C0BCF1010F02D00AE031465A
:1015E000F7E7F3B1A36A43F02003A362E36A43F091
:1015F0000103E3622368D3F804C02CF4694C4CEA7D
:10160000010CC3F804C021688B68DFF874C003EADA
:101610000C0313438B60A168B1420BD0012909D0A0
:101620000CE0DFF860C0A3690CEB43330B4343F4D9
:101630000061DFE7218A0D05A5F580152168CB6AD9
:1016400023F470032B43CB62216889680E4B194049
:10165000914208D1E762A16A21F0020141F0010143
:10166000A162BDE8F081A06A20F0020040F0100005
:10167000A062E06A40F00100E0620120F1E70000B2
:10168000FDF7E1FF00E0FFFFFE0E1FFF00B5006861
:101690000C4987B0884213D10B48816941F400712D
:1016A00081618069694600F4007005900120009016
:1016B00003200190002002904FF0904000F05AF972
:1016C00007B000BD002401400010024070B543790E
:1016D000012B1AD0012646710223037103681D688D
:1016E00040F6FE749440A543D1E900410C43944078
:1016F0002C431C6001680B68C0249440A3430B601A
:10170000067100214171084670BD022070BD70B5A0
:10171000040003D02079002510B105E0012070BD40
:101720006571204600F008F8022020712561012033
:101730002071002070BD000000B500680C4987B022
:10174000884213D10B48C16941F00051C161C069A1
:10175000694600F000500590102000900320019091
:10176000002002904FF0904000F004F907B000BD57
:10177000007400400010024018B50468009400682E
:10178000104421B1143000900360002018BD0830CF
:10179000F9E730B54279012A12D0012343710222C0
:1017A00002710268146803FA01F52C4314600029E1
:1017B00001680A6806D0C2F383420F2A0AD00DE0FE
:1017C000022030BDC2F383020F2A07D14A6842F0DB
:1017D000010202E04A6842F002024A6003710021FD
:1017E0004171084630BDF0B4C16B0B6801680A68EE
:1017F000046C042606FA04F51D4210D055070ED5D8
:101800000A68920603D40A6822F004020A6090F87B
:10181000401006FA01F5C16B4D60C16A1BE002265B
:1018200006FA04F71F424FF0000C4FF0010516D0E6
:10183000970714D50A68920605D40A6822F00A02AE
:101840000A6080F8215090F840108E40C16B4E60C5
:1018500080F820C0816A002918D0F0BC084708260B
:10186000A6401E4212D0120710D50A6822F00E02BE
:101870000A6090F84010C26B05FA01F1516085636F
:1018800080F8215080F820C0016BE4E7F0BC70477D
:1018900070B5040025D0022084F821002068026879
:1018A00043F6F0718A43D4E901131943D4E90335AF
:1018B0002B43194363691943A3691943E369194326
:1018C000114301602046FFF7A3FD0020A062E06203
:1018D00020636063A063012184F8211084F8200054
:1018E00070BD012070BD70B5044690F82000002541
:1018F00001280CD0012084F8200094F821600020F9
:10190000012E06D084F820000225284670BD022052
:1019100070BD022684F82160A0632068066826F066
:10192000010606602046FFF791FDE06A0028206866
:10193000016802D041F00E0106E041F00A010160A9
:101940002068016821F0040101602068016841F00D
:1019500001010160D9E731B500F0DAF8009C0546D5
:10196000601C00D0641C00F0D3F8401BA042FAD3E6
:1019700038BD00002DE9F84FDFF86C91002209F125
:10198000040A0AF1040B4FF00F080BF1040EA3E058
:1019900001269640334070D04C68022C01D0122CA6
:1019A00011D1D40800EB84073D6A5407E40E08FA0D
:1019B00004FC25EA0C05D1F810C00CFA04FC4CEA32
:1019C000050CC7F820C007685400032591F804C02F
:1019D000A5400CF0030CAF430CFA04FC4CEA070CD6
:1019E000C0F800C04F68012F05D0022F03D0112F7F
:1019F00001D0122F11D18768D1F80CC0AF430CFA77
:101A000004FC4CEA070CC0F808C04768B7430E79DD
:101A1000C6F3001696403E434660C668AE438D68E6
:101A2000A5403543C5604C68E40054D52F4CA569EA
:101A300045F00105A561A46922F0030504F0010445
:101A400000942B4C2E19B7689407250F08FA05F45B
:101A5000A743B0F1904F04D0264CA04203D10124FB
:101A600012E0002410E0244CA04201D102240BE03B
:101A7000224CA04202D1032406E02CE0204CA042DC
:101A800001D1042400E00524AC403C43B460D9F803
:101A900000404D464E689C43F60300D51C432C6025
:101AA000DAF8004055464E689C43B60300D51C4307
:101AB0002C60DBF800405D464E689C43F60200D582
:101AC0001C432C60DEF8004075464E689C43B6020D
:101AD00000D51C432C60521C0B6833FA02F47FF4CF
:101AE00057AFBDE8F88F000000040140001002402D
:101AF000000001400004004800080048000C0048B5
:101B0000001000480AB1816170478162704700008F
:101B100001480068704700005800002090F84120FC
:101B2000202A24D190F84020012A20D0012280F8D8
:101B30004020242280F841200268136823F001032A
:101B400013600268136823F48053136002681368FB
:101B50000B43136001680A6842F001020A60202109
:101B600080F84110002180F840100846704702209C
:101B7000704790F84120202A22D190F84020012A75
:101B80001ED0012280F84020242280F841200268E3
:101B9000136823F0010313600268136823F4706371
:101BA00043EA0121116001680A6842F001020A60FB
:101BB000202180F84110002180F84010084670472D
:101BC0000220704770B5040004D094F8410000254D
:101BD00010B106E0012070BD84F84050204600F0AE
:101BE0004DF8242084F841002068016821F00101AB
:101BF00001606068216820F0706008612068816879
:101C000021F400418160E0680128A06807D040F419
:101C1000044021688860E068022803D006E040F4B0
:101C20000040F6E721684FF4006048602068416892
:101C3000114A114341602068C16821F40041C1602C
:101C4000D4E904010843A16940EA01202168C86081
:101C5000D4E907010843216808602068016841F061
:101C6000010101606564202084F84100256384F847
:101C70004250002070BD00000080000200B50068E6
:101C80000E4987B0884217D14FF44070009012205F
:101C900001900120029003200390042004906946E3
:101CA0000748FFF767FE0748C16941F40011C161A9
:101CB000C06900F40010059007B000BD005400405A
:101CC000000400480010024002480168491C0160FD
:101CD0007047000058000020074810B5016841F027
:101CE00010010160032000F081F8002000F006F8E8
:101CF00000F018F8002010BD0020024010B5044686
:101D000007484FF47A710068B0FBF1F001F019FC5C
:101D100000222146501E00F049F8002010BD0000AE
:101D20005C0000201A4808B5816941F00101816119
:101D3000806900F001000090052000F057F80022B3
:101D400011466FF00B0000F031F8002211466FF0E1
:101D50000A0000F02BF8002211466FF0090000F095
:101D600025F800221146501F00F020F800221146ED
:101D7000101F00F01BF800221146901E00F016F80C
:101D80000022BDE808401146501E00F00FB80000C8
:101D90000010024000F01F02012191404009800024
:101DA00000F1E020C0F8001170470000F0B40E4BC5
:101DB0001B68C3F30223C3F10704042C00D90424D5
:101DC0001D1D072D01D2002300E0DB1E012606FAAF
:101DD00004F56D1E0D409D409E40761E164045EA5E
:101DE0000601F0BC02F06CB90CED00E0064A00F010
:101DF000070110684FF6FF03184040EA012003492D
:101E000008431060704700000CED00E00000FA0588
:101E100010B50C0607D501F07F01C1EBC10100EB45
:101E20008100283005E0C1EBC10100EB810000F525
:101E3000E67099B232B101228272C180190C01811F
:101E4000002010BD002282728180F9E77047C1EB4B
:101E5000C10200EB8202D0F8A403926B03F066B9D2
:101E6000C1EBC10200EB8202D0F8A403D2F8DC215E
:101E700003F0B1B92DE9F04701F07F03C3EBC302D2
:101E80000C0600EB820201D5283201E002F5E67271
:101E9000C9091370517090F8701301294CD00121B9
:101EA00080F87013937A48F6BF75002B537848F288
:101EB00080044BF68F7948F2C0064CF2800748F652
:101EC0008F713BD0002B036892F800C09A4633F81C
:101ED0002C304FEA434855D0B8F1000F03DA0B40DD
:101EE0003B432AF82C30036892F800C09A4633F836
:101EF0002C305FEA436803D50B4033432AF82C307B
:101F00001678D0F800C03CF826300B403B432CF844
:101F10002630117806682B40234326F821301178AB
:101F2000056803EA0903234325F82130002180F8DE
:101F300070130846BDE8F0870220FBE783B192F8F2
:101F400000C0076837F82C305FEA436803D50B40C0
:101F5000334327F82C301278016831F8223036E00C
:101F60001678056835F826305FEA434C03D50B40F8
:101F70003B4325F826301278016831F8223003EA15
:101F8000090325E0B8F1000F03DA0B403B432AF8C0
:101F90002C3092F800C0076837F82C305FEA4368AD
:101FA00003D50B40334327F82C3092F800C0076864
:101FB00037F82C300B40334327F82C301178066863
:101FC00003EA0903234326F82130127801682B40E5
:101FD000234321F82230A9E7F0B50A0601F07F0378
:101FE00005D5C3EBC30200EB8202283205E0C1EB4A
:101FF000C10200EB820202F5E672002595701370B3
:10200000C909517090F87013012920D0012180F87E
:102010007013517814780368002948F68F7633F8E6
:10202000241048F2800714D05FEA416C05D5314096
:1020300048F2C006314323F824101278016848F6AC
:10204000BF7431F82230234083F0300313E00220C4
:10205000F0BD5FEA414C05D531404CF2800631437A
:1020600023F82410127801684BF68F7431F822306F
:10207000234083F440533B4321F8223080F87053CF
:102080000020F0BD01F07F01C1EBC10100EB810038
:10209000B0F8E40180B270472DE9F04F01F07F0500
:1020A000C5EBC5040E0600EB840401D5283401E01D
:1020B00004F5E674C90925706170E260E37090F878
:1020C000701301290DD0012180F87013E17848F6D2
:1020D0008F1349B1012921D002290DD0032926D11E
:1020E00012E00220BDE8F08F2278016831F822501A
:1020F0001D4045F4007318E02278016831F8225041
:102100001D4021F8225012E02178026832F8215057
:102110001D4045F4C06322F8213008E022780168B0
:1021200031F822501D4045F4806321F82230237895
:10213000056848F68F7148F2800235F823704FF435
:1021400080660F4017431F4325F8237094F80AC098
:1021500048F6BF794BF68F7A48F2C0034CF28005FF
:10216000BCF1000F63D094F800C0D0F800B00F406D
:1021700048F2801847EA08072BF82C70E78827F008
:10218000010C0768BB46B7F8507094F80080B6465B
:1021900007EBC80706EB47062BF806C0268926F092
:1021A00001070668B346B6F850C094F800800426CC
:1021B00006EBC806B4440EEB4C0C2BF80C7066789A
:1021C00094F800C00768002E37F82C604FEA4648A4
:1021D0007DD0B8F1000F03DA0E402E4327F82C60B3
:1021E00094F800C0076837F82C605FEA466803D5AA
:1021F0000E401E4327F82C602778066836F82730F3
:102200000B402B4326F827302178056803EA0903A1
:10221000134325F821302178056803EA0A031343A4
:1022200025F82130002180F8701308465AE76778B6
:102230001FB3A58825F001070568B5F850C094F8CC
:1022400000800CEBC80C06EB4C06AF5327780668F1
:1022500036F827505FEA456C03D50D401D4326F83C
:1022600027502178036833F8214004EA090484F0F8
:102270002004144323F82140D4E7A38823F0010766
:1022800003689946B3F850C094F80080042303EB28
:10229000C803634406EB430C29F80C700368B3F8D9
:1022A000507094F800C04FF0060808EBCC0C67445F
:1022B00006EB4706F718E3684FF6FF7C3E2B0CD978
:1022C000C3F34F16DB0601D1761EB6B200E024E060
:1022D0000CEA862343F4004307E0C3F34F06DB0711
:1022E00001D0761CB6B20CEA86233B8027780668BC
:1022F00036F827305FEA434C03D50B402B4326F8D2
:1023000027302378016831F8234004EA0A0484F472
:102310004054144321F8234084E7B8F1000F03DA56
:102320000E402E4327F82C602578076837F8256083
:102330005FEA466C03D50E401E4327F825602778D8
:10234000066836F827500D401D4326F8275026789A
:1023500005EA0A05036885F44051114323F8261065
:102360002478036801EA0901114323F8241059E78E
:10237000F0B501F07F05C5EBC50400EB840404F55E
:10238000EE7400264CC41A4604F81B6C04F81C5D5D
:10239000E568AB4203D92B46D21A626100E0666160
:1023A000062201F07F0102EBC10102684FF4806652
:1023B0004FF6FF75B2F850703E2B394406EB4101E1
:1023C0000A441ED9C3F34F11DB0617D005EA812159
:1023D00041F4004101E005EA812111800068217883
:1023E0004BF68F7330F821201A4082F4405248F2A5
:1023F00080031A4320F821200020F0BD491E89B235
:10240000E4E7C3F34F01DB07E5D0491C89B2E2E7FB
:1024100030B590F87023012A0CD0012480F8704365
:102420000B0601F07F0207D5C2EBC20300EB83036A
:10243000283307E0022030BDC1EBC10300EB83036A
:1024400003F5E673C9099C701A70597048F280034D
:1024500052B10029016831F8224011D048F6BF7509
:102460002C4084F0100410E001684BF6BF740A8819
:10247000224082F4805282F010021A430A8007E060
:102480004BF68F752C4084F480541C4321F8224075
:10249000002180F87013084630BD70B5054601F084
:1024A0007F00C0EBC00105EB81040121C4E90E23CC
:1024B0000022226484F8291004F8280F1E46E168DF
:1024C0008B4203D9581A0E46606100E06261A07A1F
:1024D00038B12178286810F82110490614D52289CE
:1024E00013E0B3B2A2882169286801F0B1FF28681F
:1024F000B0F850102278022303EBC20211445A02B2
:1025000002EB410146521DE0E288B3B2216901F0BD
:102510009FFF607848F68F7210B1012808D011E053
:102520002178286830F82130134048F2C00206E0D4
:102530002178286830F8213013404CF28002134390
:1025400020F821302178286848F6BF7330F8212020
:102550001A4082F0300248F280031A4320F821200A
:10256000002070BD10B504460068B0F844000004B7
:1025700002D5204601F0B4FD2068B0F844104905AA
:102580000AD54FF6FF31A0F84410204600F0E4F8D9
:102590000021204600F0F5F82068B0F84410490406
:1025A00003D54BF6FF71A0F844102068B0F8441032
:1025B000890403D54DF6FF71A0F844102068B0F8E7
:1025C0004410C90412D530F8401F21F004010180E5
:1025D000206830F8401F21F008010180204600F0FB
:1025E000C8F821684EF6FF70A1F844002068B0F8E2
:1025F0004410090518D530F8401F41F0080101804A
:1026000021684FF2FF70A1F84400206830F8401FA5
:1026100041F0040101802068B0F84400C043C004C8
:1026200002D5204600F0D0F82068B0F844108905A3
:1026300006D54FF6FF51A0F84410204600F09DF853
:102640002068B0F84410C90503D54FF6FF61A0F823
:10265000441010BD70B504004FF0000604D094F88B
:102660007103002510B106E0012070BD84F870539D
:10267000204600F043F8032084F8710301220CE0A7
:10268000C6EBC60004EB800080F8292000F8286F14
:10269000761CC570C560056145616068B042EFD8C1
:1026A000002110E0C1EBC10004EB800080F8CD51A7
:1026B00080F8CC1180F8CF51C0F8D851C0F8DC5167
:1026C000491CC0F8E05160688842EBD82068A0F847
:1026D00040202068A0F840502068A0F844502068AE
:1026E000A0F8505021684FF43F40A1F8400084F812
:1026F000245084F87123002070BD000000B50068EC
:10270000134987B0884220D14FF4C0500090022076
:10271000019000200290032003900E20049069464F
:102720004FF09040FFF726F90A48C16941F40001D3
:10273000C161C069002200F40000059011464B20E1
:10274000FFF734FB4B20FFF725FB07B000BD00006F
:10275000005C00400010024010B504460121D0F892
:10276000A40302F023FED4F8A403BDE8104002F055
:10277000ECBDD0F8A40302F007BED0F8A40302F029
:1027800009BE90F87023012A0AD0012280F8702334
:1027900041B180F82410002180F87013084670477A
:1027A0000220704702688021A2F84C10F3E7D0F8AD
:1027B000A42300F55D71104602F00BBE10B5012197
:1027C000FFF744FB002010BD10B50446D0F8A40369
:1027D00002F04CFEA069002804D00348016841F0D3
:1027E0000601016010BD000010ED00E0074908B5CA
:1027F000CA6942F08052CA61C96901F080510091F2
:1028000003490A6802430A6008BD00000010024044
:10281000007000402DE9F84F044600686E4DC0037B
:102820007ED5E8690026C00008D4E86940F08050F1
:10283000E861E869012600F080500090674801686F
:10284000C90511D40168804641F480710160FFF729
:102850005FF9074604E0FFF75BF9C01B642835D831
:10286000D8F80000C005F6D5286A10F4407052D0A0
:10287000A18801F4407181424DD0286A4FF480371D
:1028800097FAA7F1B1FA81F18B0055494FF0010891
:102890000B4420F44070C3F8008497FAA7F3B3FA0E
:1028A00083F301EB83010022C1F800242862C007F2
:1028B00031D0FFF72DF9074641F2883A4FF002096F
:1028C00007E0FFF725F9C11B514502D90320BDE8F8
:1028D000F88F99FAA9F0B0FA80F040F0400049462C
:1028E000B8EB501F01D128680BE091FAA1F0B0FAC3
:1028F00080F040F04000B1EB501F01D1286A00E0A9
:10290000686A99FAA9F1B1FA81F101F01F0108FA98
:1029100001F21042D5D0286A616820F4407000E0CE
:1029200006E0084328621EB1E86920F08050E861A3
:102930002078C00705D0286BA16820F00300084369
:1029400028632078800705D5286BE16820F44030A3
:10295000084328632078400705D5286B216920F4B7
:102960004020084328632078800605D5286B6169DC
:1029700020F01000084328632068800305D56868AC
:10298000A16A20F48000084368602078400605D5DD
:10299000286BA16920F020000843286320780006F6
:1029A00005D56868E16920F44040084368602088E4
:1029B000000505D56868216A20F078400843686002
:1029C0002088400505D5286B616A20F04000084347
:1029D000286300207BE700000010024000700040E8
:1029E000000042422DE9F047DFF8688104460E46B8
:1029F000D8F8000000F00700B0420CD2D8F8001060
:102A000021F007013143C8F80010D8F8000000F0A9
:102A10000700B04273D120784F4F800705D5786802
:102A2000A16820F0F000084378602078C00755D0F6
:102A30006068012201280CD0022828D0022393FAD2
:102A4000A3F1B1FA81F141F02001490904D03968BC
:102A500003E04FF40033F2E7796A93FAA3F3B3FA91
:102A600083F303F01F039A40114248D0796821F0A4
:102A7000030101437960FFF74BF80546606841F2B6
:102A8000883101280CD00228894615D022E04FF069
:102A90000073D4E7FFF73CF8411B494501D916E024
:102AA00089467868C0F381000128F3D116E0FFF76A
:102AB0002FF8411B49450AD87868C0F381000228E5
:102AC000F5D10BE0FFF724F8411B494502D903205B
:102AD000BDE8F087786810F00C0FF3D1D8F800103B
:102AE000404601F00701B1420BD9016821F007010E
:102AF00031430160006800F00700B04201D00120BE
:102B0000E6E72078400705D57868E16820F4E060C2
:102B1000084378602078000706D57868216920F49A
:102B2000605040EAC100786000F022F87968F02235
:102B300092FAA2F201F0F001B2FA82F2D140074A11
:102B4000515CC840064908600020FFF7D7F8002014
:102B5000BEE700000020024000100240805E000836
:102B60005C00002001480068704700005C00002005
:102B7000154B10B55968154801F00C02042A02D013
:102B8000082A01D0124810BD4FF4701494FAA4F42E
:102B900001F47012B4FA84F4E2400E4CDB6AA25CD9
:102BA0000F2494FAA4F403F00F03B4FA84F4E3407E
:102BB000084C1034C903E35C03D5B0FBF3F0504379
:102BC00010BD0548504310BD00100240001BB70067
:102BD00000127A00605E000800093D002DE9F84F00
:102BE00004460078F94EC0074FF0010526D0706802
:102BF0004FF40038C0F38100012807D07068C0F39B
:102C0000810002281BD17068C00318D598FAA8F07B
:102C1000B0FA80F040F02000400901D0306800E0B8
:102C2000706A98FAA8F1B1FA81F101F01F0105FA72
:102C300001F1084261D0606800287DD05DE06068E5
:102C4000B0F5803F0BD010B1B0F5A02F17D0306891
:102C500020F480303060306820F4802002E030685A
:102C600040F480303060F06AA16820F00F00084323
:102C7000F062606818B3FEF74BFF074609E0306862
:102C800040F480203060EAE7FEF742FFC01B642872
:102C900070D898FAA8F0B0FA80F040F0200040090F
:102CA00001D0306800E0706A98FAA8F1B1FA81F1B9
:102CB00001F01F0105FA01F10842E5D01DE0FEF721
:102CC00027FF074604E0FEF723FFC01B6428DFD878
:102CD00098FAA8F0B0FA80F040F02000400901D046
:102CE000306800E0706A98FAA8F1B1FA81F101F059
:102CF0001F0105FA01F10842E5D12078DFF8D08202
:102D000080074FF0000B4FF0020732D570684FF08C
:102D1000F80A10F00C0F07D07068C0F38100022889
:102D200029D17068C00326D497FAA7F0B0FA80F0D2
:102D300040F02000400900E087E001D0306800E06A
:102D4000706A97FAA7F1B1FA81F101F01F0105FA53
:102D500001F1084202D02069012876D130689AFA40
:102D6000AAF26169B2FA82F220F0F80091400843B9
:102D7000306059E05FE1206980B395FAA5F0B0FAC0
:102D800080F048F82050FEF7C3FE814605E0FEF7CC
:102D9000BFFEA0EB0900022899D897FAA7F0B0FA75
:102DA00080F040F02000400901D0306800E0706AF7
:102DB00097FAA7F1B1FA81F101F01F0105FA01F1CB
:102DC0000842E4D03068616920F0F8029AFAAAF06B
:102DD000B0FA80F081400A43326025E0FFE795FABF
:102DE000A5F1B1FA81F148F821B0FEF791FE8146D4
:102DF00005E0FEF78DFEA0EB09000228CCD897FA7B
:102E0000A7F0B0FA80F040F02000400901D030680F
:102E100000E0706A97FAA7F1B1FA81F101F01F01A1
:102E200005FA01F10842E4D1207800076AD5A069CB
:102E3000A0B395FAA5F0B0FA80F008EB8000C0F8D6
:102E40008054FEF765FE814606E07FE1FEF760FEF6
:102E5000A0EB090002289FD897FAA7F0B0FA80F0FB
:102E600040F06000B5EB501F01D130680BE097FADD
:102E7000A7F0B0FA80F040F06000B7EB501F01D12E
:102E8000306A00E0706A97FAA7F1B1FA81F101F0B7
:102E90001F0105FA01F21042D8D033E0FFE795FA9E
:102EA000A5F1B1FA81F108EB8101C1F880B4FEF718
:102EB0002FFE814605E0FEF72BFEA0EB090002285D
:102EC0009CD897FAA7F0B0FA80F040F06000B5EB1C
:102ED000501F01D130680BE097FAA7F0B0FA80F0EC
:102EE00040F06000B7EB501F01D1306A00E0706A1B
:102EF00097FAA7F1B1FA81F101F01F0105FA01F289
:102F00001042D8D12078400772D5F0694FF0000AFE
:102F1000C00009D4F06940F08050F061F0694FF0D2
:102F2000010A00F0805000902A480168C90511D4B8
:102F3000016841F480710160FEF7EAFD814605E019
:102F4000FEF7E6FDA0EB0900642874D8214800686C
:102F5000C005F5D5E06801280AD008B1052811D0D0
:102F6000306A20F001003062306A20F0040002E094
:102F7000306A40F001003062E06830B3FEF7C8FD0F
:102F800081460CE0306A40F004003062F0E7FEF762
:102F9000BFFDA0EB090141F2883081424BD897FA7E
:102FA000A7F0B0FA80F040F04000B5EB501F01D11F
:102FB000306812E097FAA7F0B0FA80F040F04000D5
:102FC000B7EB501F08D1306A07E012E00010024052
:102FD0000000424200700040706A97FAA7F1B1FA0F
:102FE00081F101F01F0105FA01F21042CFD02EE06D
:102FF00034E0FEF78DFD814607E0FEF789FDA0EB8A
:10300000090141F28830814215D897FAA7F0B0FA49
:1030100080F040F04000B5EB501F01D130680CE06B
:1030200097FAA7F0B0FA80F040F04000B7EB501FDD
:1030300002D1306A01E086E0706A97FAA7F1B1FA2E
:1030400081F101F01F0105FA01F21042D5D1BAF168
:10305000000F03D0F06920F08050F061E06998B370
:103060007168C1F38101022970D002284FF080718C
:103070004FF0007A58460AD091FAA1F1B1FA81F1E5
:1030800048F82100FEF744FD044657465FE08B46B2
:1030900091FAA1F1B1FA81F1C14648F82100FEF799
:1030A00037FDA8460746554604E0FEF731FDC01B34
:1030B000022848D895FAA5F0B0FA80F040F0200038
:1030C000400902D0306801E056E0706A95FAA5F137
:1030D000B1FA81F101F01F0208FA02F10842E4D1CD
:1030E000D4E908100843716821F474110843706032
:1030F0009BFAABF0B0FA80F0474649F82080FEF723
:1031000007FD044604E0FEF703FD001B02281AD861
:1031100095FAA5F0B0FA80F040F02000400901D007
:10312000306800E0706A95FAA5F1B1FA81F101F01A
:103130001F0107FA01F10842E5D01DE0FEF7E8FCA7
:10314000001B022803D90320BDE8F88F16E097FA88
:10315000A7F0B0FA80F040F02000400901D03068BC
:1031600000E0706A97FAA7F1B1FA81F101F01F014E
:1031700005FA01F10842E1D10020E5E70120E3E78B
:1031800070B5044690F83C0000250E46012802D098
:103190000125284670BD204601F06EF920B1FF20C0
:1031A00084F83C000325F4E72068416821F006011B
:1031B00041602068416831434160204601F074F964
:1031C0002068416841F010014160022084F83C0011
:1031D000DFE730B590F83C40002394B1FF2C10D0CD
:1031E0000468656825F49E05656004686FF30F0147
:1031F000012A656801D141F480010D436560826157
:1032000000E00123184630BD70B5040044D0002012
:103210000125A061C4E90705C4E909506903C4E9AF
:103220000B016063A0632064204600F039F8206839
:10323000016821F4E05101606168E06801432068A1
:103240000268114301602068416821F0807141608B
:1032500020684168A26811434160104801682269F2
:1032600001F4407191420AD0016821F4407101607B
:1032700001682269114301600220FEF76CFB20689F
:10328000416841F001014160206881680904FCD473
:1032900084F83C50002070BD012070BD00600140EA
:1032A0002DE9F04704462E4900682C4D00260323E3
:1032B0002C4A8F1586B04FF480684FF020094FF4E8
:1032C000405AA84223D1886940F08070886188699B
:1032D000694600F08070059005208DE84900104691
:1032E000FEF748FB214D204805F10C0CC5E900060E
:1032F000AE608CE8C0072846FEF7CAFA10B140F26B
:103300001B1127E065616C6206B0BDE8F087184DBF
:10331000A842F9D1886940F00070886188696946DF
:1033200000F00070059004208DE849001046FEF77B
:1033300021FB104D0C4805F10C0C1430C5E90006BA
:10334000AE608CE8C0072846FEF7A2FA0028D9D064
:103350004FF4A07108A002F016FAD3E70060014014
:10336000001002400004004830040240F0640020D5
:1033700000640140346500202E2E2F5372632F739A
:10338000746D3332663378785F68616C5F6D73702B
:103390002E6300002DE9F041064690F83C00002520
:1033A00014460F46012801D0012518E0304601F0EF
:1033B00063F820B1FF2086F83C0003250FE02021B0
:1033C000306801EB87010844D4E900121143D4E9C5
:1033D00002231A4311430160304601F065F8284684
:1033E000BDE8F08110B50246094C13680020A342E5
:1033F00001D1012907D092F83C30012B05D0022BD6
:1034000003D0042B01D0012010BD916210BD00003B
:10341000006001402DE9F041040005D00025A562BF
:1034200094F85D0018B107E00120BDE8F08184F850
:103430005C50204600F04AF8022684F85D6020685F
:10344000016821F040010160E0684FF4E0629042C1
:1034500001D9002101E04FF48051B0F5706F02D026
:10346000904200D0A562276B012327B9904201D971
:10347000266300E02363D4E901021043D4E9042663
:1034800032431043228B02F400721043E26910436E
:10349000226A1043A26A104322681060626B606A5D
:1034A000A66910430427E26807EA16463243104330
:1034B0000843216848602068C16921F40061C16146
:1034C000256684F85D300020AFE70000F0B50068A5
:1034D000124987B088421ED11148816941F4805158
:1034E00081618069052400F4805005904FF400400C
:1034F00002250026032704948DE8E10069464FF079
:103500009040FEF737FA382004948DE8E1006946D0
:103510000448FEF72FFA07B0F0BD0000003001406C
:1035200000100240000400484FF0E0210428086920
:1035300003D020F004000861704740F00400FAE76F
:10354000704710B5401EB0F1807F01D3012010BD3F
:103550004FF0E02460610F21601700F0B1FD002002
:10356000A06107202061002010BD10B5FFF7E8FF23
:1035700010BD7047704730B590F83C20012A28D024
:10358000012300F83C3F02224270CA688D6822F491
:1035900040722A434D6822F480622A430D6822F467
:1035A00000622A430D6922F480522A434D6922F4B5
:1035B00000522A43896922F480420A43002422F4FB
:1035C00000420A4350F83C1C4A64437004700020D7
:1035D00030BD022030BD30B590F83C20012A20D00B
:1035E000012380F83C30022280F83D2002685468B4
:1035F00024F070045460026854680D682C435460D1
:103600000268946824F080049460026894684968B1
:103610000C43946080F83D30002180F83C1008464F
:1036200030BD022030BD10B5040003D094F83D0039
:1036300010B107E0012010BD002084F83C002046B6
:1036400000F00CF8022084F83D00211D206801F0F4
:103650003FF9012084F83D00002010BD08B5006846
:103660001D4A1E4990420ED1886940F4003088619D
:103670008869002200F40030009011461920FEF7FE
:1036800095FB192022E0164A90420ED1886940F439
:10369000802088618869012200F480200090002148
:1036A0001A20FEF783FB1A2010E00E4A904211D137
:1036B000C86940F40070C861C869002200F4007055
:1036C000009001211B20FEF771FB1B20BDE8084084
:1036D000FEF760BB08BD000000440140001002403E
:1036E00000480140009C00400168CA6842F00102A5
:1036F000CA600068016841F0010101600020704764
:103700000168CA6822F00102CA600068016A41F2D9
:103710001112114207D1016A9210114203D10168BE
:1037200021F0010101600020704770472DE9F04150
:10373000044690F83C000D4601283CD0012684F850
:103740003C60022084F83D00A2B3042A45D02068E2
:10375000082A54D0D5E90027E968036A23F4805386
:103760000362D0F81CC0036A2CF4407C4CEA0727A3
:103770004FF6FF7C27F470470CEA013139434FF4D0
:10378000204723F4204307EA02321A43C161026250
:103790002068C16921F44061C1612068C169AA68DB
:1037A00041EA0221C16184F83D60002084F83C00B8
:1037B000BDE8F08101E00220FAE7D5E90012EB68EC
:1037C000206801F0B3F92068816921F00C01816162
:1037D00020688169AA6811430FE0D5E90012EB68FF
:1037E000206801F0DFF92068816921F4406181617E
:1037F00020688169AA6841EA02218161D3E7D5E99D
:10380000002C2F7B016A21F480710162C169036A77
:1038100021F0030141EA0C0121F0F00C39074FF4CB
:1038200020674CEA116123F4206307EA02221A435D
:10383000C16102622068C16921F00C01C161206888
:10384000C169AA681143ADE710B5040003D094F82C
:103850003D0010B107E0012010BD002084F83C00BD
:10386000204600F00DF8022084F83D00211D20685C
:1038700001F02EF8012084F83D00002010BD00006A
:1038800000B5006887B0B0F1804F17D10C48C1690E
:1038900041F00101C161C069694600F00100059075
:1038A0000420009002200190002002900320039049
:1038B000012004904FF09040FEF75CF807B000BD87
:1038C0000010024070B50446006801694FF0000521
:1038D000C943890715D4C168C943890711D4E91EB2
:1038E000016101202077206880698007204602D08E
:1038F000FFF71BFF04E000F0DBF8204600F09FF923
:10390000257720680169C943490717D4C168C943AD
:10391000490713D46FF00401016102202077206869
:10392000806910F4407F204602D0FFF7FEFE04E0DD
:1039300000F0BEF8204600F082F925772068016982
:10394000C943090716D4C168C943090712D46FF0E7
:1039500008010161042020772068C06980072046A3
:1039600002D0FFF7E2FE04E000F0A2F8204600F0EB
:1039700066F9257720680169C943C90617D4C1686B
:10398000C943C90613D46FF01001016108202077E4
:103990002068C06910F4407F204602D0FFF7C5FEC2
:1039A00004E000F085F8204600F049F9257720680A
:1039B0000169C943C90708D1C168C943C90704D10E
:1039C000891E0161204600F05DF920680169C94344
:1039D000090609D4C168C943090605D46FF08001FE
:1039E00001612046FFF7C5FD20680169C94349060A
:1039F00009D4C168C943490605D46FF0400101618B
:103A0000204600F040F920680169C94389060BD4BB
:103A1000C168C943890607D46FF0200101612046BF
:103A2000BDE87040FFF7A6BD70BD00B5006885B069
:103A3000B0F1804F0FD14FF48060009002200190D0
:103A400000200290032003900A20049069464FF062
:103A50009040FDF78FFF05B000BD30B5044690F8EB
:103A60003C0001280DD0012584F83C50022084F848
:103A70003D0042B1042A0AD0082A0CD00C2A11D1E8
:103A80000DE0022030BD206800F092FF0AE02068BF
:103A900000F0C6FF06E0206800F0F2FF02E02068B8
:103AA00001F01AF884F83D50002084F83C0030BD45
:103AB000704710B5040003D094F83D0010B107E042
:103AC000012010BD002084F83C00204600F00CF8D6
:103AD000022084F83D00211D206800F0F9FE01203D
:103AE00084F83D00002010BD704770B50D460400FD
:103AF00003D094F83D0010B107E0012070BD002014
:103B000084F83C00204600F015F8022084F83D00BF
:103B1000211D206800F0DCFE2068016821F008010A
:103B200001602068016829430160012084F83D009C
:103B3000002070BD704770B5044690F83C000D46FB
:103B400001280DD0012684F83C60022084F83D0055
:103B500042B1042A18D0082A2AD00C2A4DD139E0C3
:103B6000022070BD206800F023FF2068816941F0C9
:103B7000080181612068816921F004018161206868
:103B800081692A69114311E0206800F049FF20682B
:103B9000816941F4006181612068816921F480615B
:103BA0008161206881692A6941EA0221816124E0FA
:103BB000206800F065FF2068C16941F00801C1611B
:103BC0002068C16921F00401C1612068C1692A69C6
:103BD000114311E0206800F07FFF2068C16941F4C3
:103BE0000061C1612068C16921F48061C161206800
:103BF000C1692A6941EA0221C16184F83D6000205F
:103C000084F83C0070BD10B5040003D094F83D006A
:103C100010B107E0012010BD002084F83C002046D0
:103C200000F00CF8022084F83D00211D206800F00F
:103C30004FFE012084F83D00002010BD7047704702
:103C400010B504460068012200F0A6FE0A4821686B
:103C5000814205D00948814202D00948814203D1FE
:103C6000486C40F4004048642068016841F001015C
:103C70000160002010BD00000040014000440140F0
:103C80000048014070477047FEE700003EB50F480E
:103C900000240D498460C460446101600125056110
:103CA0004FF460214460C161FDF762FC00B1FEE7A2
:103CB000CDE90045694605480294FDF7DDFB002883
:103CC00000D0FEE73EBD000000240140400300207C
:103CD00070B5294886B0416941F48001416141696C
:103CE00001F480010591416941F40031416141696C
:103CF00001F400310591416941F48021416141693C
:103D000001F480210591416941F4801141614069CC
:103D10004FF4507400F480104FF09045059000224D
:103D200021462846FDF7EEFE0120CDE900400024A3
:103D30000294694628460394FDF71CFE02200325E1
:103D4000CDE900050D4E694602943046FDF712FE9E
:103D5000A803CDE90004694630460294FDF70AFE47
:103D60004FF48070CDE90005694602940448FDF7E0
:103D700001FE06B070BD00000010024000040048C3
:103D8000000C0048114810B50F490160104941600E
:103D900000210122C0E90212016141618161C1611A
:103DA0000162FDF70FFF00B1FEE700210748FDF7B4
:103DB000B5FE00B1FEE700210448FDF7DAFE002859
:103DC00000D0FEE710BD0000005400408403002036
:103DD0000E0900201FB511480F490024C0E9001446
:103DE0008460C4600461FFF70FFA00B1FEE70021B0
:103DF0000A48FFF7F7FA00B1FEE74FF04060CDE95F
:103E0000000402946A46002104480394FFF7C2FAB2
:103E1000002800D0FEE71FBD00600140D003002055
:103E20001FB511480F490024C0E900148460C46024
:103E30000461FFF7E9F900B1FEE700210A48FFF746
:103E4000D1FA00B1FEE74FF04060CDE900040294E2
:103E50006A46002104480394FFF79CFA002800D02A
:103E6000FEE71FBD0064014014040020104810B597
:103E70000E4901604FF48271416000214FF440729D
:103E8000C0E902124FF480220161C0E90512082244
:103E9000C0E9072107234162C0E90A13C0E90C12F7
:103EA000FFF7B8FA002800D0FEE710BD003001404F
:103EB0005804002010B51F488EB01D49016041F61E
:103EC0001F410024C0E90114C4600461446184619D
:103ED000FFF7A9FB00B1FEE71648FFF7EAFD00B1C6
:103EE000FEE708211348FFF700FE00B1FEE700944B
:103EF00001940294039404940594002269460D48A9
:103F00000694FFF7AAFD00B1FEE707940894099410
:103F10004FF400500A94CDE90B4007A905480D94D1
:103F2000FFF729FB002800D0FEE70EB010BD00000F
:103F300000440140FC04002010B51F488EB01D490C
:103F4000016041F61F410024C0E90114C46004610E
:103F500044618461FFF767FB00B1FEE71648FFF795
:103F600052FE00B1FEE708211348FFF7BEFD00B185
:103F7000FEE76020CDE900040294039404940594C4
:103F8000002269460C480694FFF7D5FD00B1FEE714
:103F90000794089409944FF400500A94CDE90B401B
:103FA00007A905480D94FFF7E6FA002800D0FEE7C0
:103FB0000EB010BD004801403C0500201CB50E4865
:103FC0000C49002401604721C0E9011440F2E731A7
:103FD000C16080218161FFF726FB00B1FEE70094FC
:103FE000694605480194FFF7F6FA002800D0FEE77D
:103FF0001CBD0000009C00407C05002010B520483E
:104000008EB04FF08041016041F61F410024C0E9AD
:10401000011442F20F71C0E9031480218161FFF79E
:1040200013FC00B1FEE71648FFF7EDFD00B1FEE717
:104030000B940BA912480C94FFF7CDFA00B1FEE7E0
:104040000120CDE907400994082207A90C480A94E9
:10405000FFF76CFB00B1FEE76020009041F2873073
:10406000CDE901040C22694605480494FFF763FD7D
:1040700000B1FEE70248FFF7D8FC0EB010BD00000B
:10408000BC04002010B500220849094801F019F8C5
:104090000849074801F017FA0749054800F05EFE95
:1040A000BDE81040024801F05BBA00001400002097
:1040B000786500204001002048000020FEE770479E
:1040C0000907090E002806DA00F00F0000F1E020D1
:1040D00080F8141D704700F1E02080F8001470474C
:1040E0002DE9FC5F04460020ADF8000040F68F7B10
:1040F0004FF006094FF0020A4FF4806885E1BDF8E1
:10410000041011F00F0628D030F82610ADF800107A
:10411000BDF80020120475D501EA0B0120F8261025
:10412000C6EBC60004EB800595F8D60105F5E675EB
:104130000028206867D02978B0F8503030F8212066
:1041400052047DD50AEBC1015A1808EB4201415ACD
:104150008F05BF0D75D0EA88C6E0BDF80410C9060A
:104160002CD4018848F60F7211400180206804F1B8
:104170002805B0F850202B780AEBC3010A4408EB5D
:104180004201405AC0F309002064A16B0844A063B7
:1041900000212046FDF75BFE94F824000028ADD0F6
:1041A00068690028AAD194F82400216840F08000B2
:1041B000A1F84C00002084F8240026E1018804F5D1
:1041C000E675ADF80010BDF8002012051CD5B0F85A
:1041D00050202B7809EBC3010A4408EB4201405AF6
:1041E00004F55D71C0F30903AB61AA88206800F093
:1041F0001AF92068018801EA0B0101802046FEF7C8
:10420000D6FA02E194E053E0BDF800201204D4D5C0
:1042100001EA0B0101802068B0F850202B78464657
:1042200009EBC301114408EB4101405A83059B0D82
:10423000AB610BD0AA882969206800F0F4F801E08E
:1042400048E055E0A9692869084428610021204612
:10425000FDF706FE2068B0F85010891D06EB4101FD
:104260004218E8683E280CD9C0F34F11C00601D1AE
:10427000491E89B24FF6FF7000EA812040F40040E9
:1042800009E0C0F34F01C00701D0491C89B24FF6C5
:10429000FF7000EA8120108020684BF68F72018841
:1042A000114081F4405148F2800211430180ACE09A
:1042B000B0F850202B7809EBC3010A4408EB420107
:1042C000415A8F05BF0D1FD0AA883B46296900F0CF
:1042D000AAF819E009EBC1015A1808EB4201415A4A
:1042E0008F05BF0D04D02A893B46296900F09BF851
:1042F0002978206848F68F7330F821201A4048F258
:10430000C0031A4320F82120A8693844A86128690D
:10431000C2192A616B6913B1E868B84204D92978D7
:104320002046FDF79DFD03E029782046FEF720F8A2
:10433000BDF80000000668D5C6EBC60004EB80059A
:10434000206848F60F7230F82610114020F8261029
:1043500095F8320028350028206812D02978B0F866
:10436000503010F8212052061ED50AEBC1015A1810
:1043700008EB4201405A83059B0DAB6123D0EA88CC
:104380001DE0B0F850202B780AEBC3010A4408EB7B
:104390004201405A83059B0DAB6120D0AA88296950
:1043A000206800F055F81AE009EBC1015A1808EB33
:1043B0004201405A83059B0DAB6104D02A892969CB
:1043C000206800F045F82878216848F68F7331F8A6
:1043D00020201A404CF280031A4321F82020206844
:1043E000B0F850202B780AEBC3010A4408EB4201D5
:1043F000405AC0F30900A86129690A182A6129787E
:104400006B69204663B1FEF748F82068B0F84410A5
:10441000ADF8041009043FF572AE0020BDE8FC9F22
:10442000FDF715FDF1E710B500EB42005C0800F563
:10443000806008D030F8042B01F8012B120A01F833
:10444000012B641EF6D1DA0701D00078087010BD88
:1044500010B55B1C00EB42005B0800F5806009D0E2
:1044600011F8012B5B1E11F8014B42EA042220F8DF
:10447000042BF5D110BD704770B504460068016883
:1044800041F000410160FDF743FB054606E0FDF702
:104490003FFB401BC82801D9032070BD20688068FD
:1044A0000028F4DA002070BD0068016821F00041A6
:1044B00001607047704710B5FDF706FCBDE810407D
:1044C000FFF753B830B59BB0032001210090049151
:1044D00010214FF4803000240591CDE9010402251C
:1044E000CDE90750000109906846FEF777FB00B15F
:1044F000FEE70F20CDE915054FF48065CDE917459E
:10450000022115A81994FEF76DFA00B1FEE70F9489
:10451000124814940A904FF02840CDE911400AA89F
:10452000FEF778F900B1FEE74FF40070FEF75EF990
:104530002846FEF75BF9FEF715FB4FF47A71B0FBE6
:10454000F1F0FEF7FEFF0420FEF7EEFF0022114619
:10455000501EFDF72BFC1BB030BD0000A008020070
:104560001448016841F4700101601348016841F08A
:10457000010101604168114A114041600168104A1F
:1045800011400160016821F480210160416821F43B
:10459000FE014160C16A21F00F01C162016B094A4D
:1045A00011400163002181600249C0038039086025
:1045B0007047000088ED00E0001002400CC07FF85A
:1045C000FFFFF6FECCFC00FF0C4810B50068006849
:1045D000016A41F21112114207D1016A921011428F
:1045E00003D1416C21F4004141640448FCF79BFA7B
:1045F000BDE810400248FFF765B90000A86400203C
:10460000FC0400200C4810B5406A0068016A41F2C1
:104610001112114207D1016A9210114203D1416C6B
:1046200021F40041416404482430FCF77CFABDE8E1
:1046300010400248FFF746B9A86400203C0500205E
:104640002DE9F04197496FF001002DED028B0968CB
:1046500008619448FFF736F99348944D944CD0F88C
:10466000800000287DD0B5F90200B5F9001000EEF9
:10467000100A091AE269F8EEC00A00EE101A204684
:10468000B8EEC00A90478B4928888A6ACB68D05216
:104690008889801CC0F30C00C860002001EB8002F8
:1046A000401C93699B1C93610228F7DB8149688851
:1046B0008A6ACB68D0528889801CC0F30C00C8601D
:1046C000002001EB8002401C93699B1C936102282F
:1046D000F7DB94ED020A784D10EE100A9FED778A11
:1046E000A84201DDB0EE480A10EE100A4FF047472D
:1046F000DFED738AB84201D9B0EE680A6D49BDEEAC
:10470000C00A8A6A10EE100ACB68D0528889801CD1
:10471000C0F30C00C860002001EB8002401C9369CC
:104720009B1C93610228F7DB94ED030A10EE100A3C
:10473000A84201DDB0EE480A10EE100AB84201D9D5
:10474000B0EE680A5B49BDEEC00A8A6A10EE100A34
:10475000CB68D0528889801CC0F30C00C860002050
:1047600000E08EE001EB8002401C93699B1C93618A
:104770000228F5DB534E94ED000AD6ED000A20EE38
:10478000200A10EE100AA84201DDB0EE480A10EE31
:10479000100AB84201D9B0EE680A4649FDEEC00AD7
:1047A0008A6A10EE900ACB68D0528889801CC0F3C8
:1047B0000C00C860002001EB8002401C93699B1C28
:1047C00093610228F7DBBCEEC00A0422002110EE40
:1047D000100A83B23C48FCF7CFFF94ED010AD6EDF6
:1047E000000A20EE200A10EE100AA84201DDB0EE09
:1047F000480A10EE100AB84201D9B0EE680A2D49F5
:10480000BDEEC00A8A6A10EE100ACB68D0528889C1
:10481000801CC0F30C00C860002001EB8002401C2B
:1048200093699B1C93610228F7DB224927488A6A17
:10483000CB680088D0528889801CC0F30C00C86007
:10484000002001EB8002401C93699B1C93610228AD
:10485000F7DB18494AF6CD308A6ACB68D05288898E
:10486000801CC0F30C00C860002001EB8002401CDB
:1048700093699B1C93610228F7DBBDEC028BBDE8BA
:10488000F081B5F90200E16900EE100AB5F9000007
:10489000F8EEC00A00EE100A0548B8EEC00A8847D4
:1048A000F1E600007C050020F02700200800002031
:1048B00010430020BC25002000FEFF4600FEFF46FE
:1048C000000000C704000020700300200200002048
:1048D0002DE9F04702684FF0804A254E254FDFF85A
:1048E00098C0DFF89880264C264DDFF89C90504504
:1048F00007D0B04205D0B84203D0604501D0404552
:1049000005D122F070034A681A43504516D0B042D0
:1049100014D0B84212D0604510D01C4B98420DD034
:104920001B4B98420AD01B4B984207D0A04205D09F
:10493000A84203D0484501D0404503D122F440733A
:10494000CA681A434B6922F080021A4302608A68DF
:10495000C2620A688262A04203D0A84201D04845E0
:1049600001D10969016301214161BDE8F0870000BF
:104970000004004000080040000C0040005C0140C2
:104980000040014000440140004801400018004040
:10499000001C00400020004010B50123046A8B4039
:1049A0009C430462036A8A401343036210BD000003
:1049B000F0B5026A22F001020262026A4368846969
:1049C000144E24F073050C68134F2C4322F002059B
:1049D0008A68DFF848C02A43B04203D0B84201D009
:1049E000604505D122F00805CA682A4322F0040276
:1049F000B04203D0B84201D0604505D14D6923F4DF
:104A000040731D438B692B43436084614968416354
:104A10000262F0BD004001400044014000480140F6
:104A200030B5026A22F010020262036A42688469A9
:104A30000D6824F4E64444EA05248D6823F020033D
:104A400043EA05130B4DA84205D00B4DA84202D0F6
:104A50000A4DA84207D14D6922F4806242EA8502DC
:104A60008D6942EA8502426084614968816303621C
:104A700030BD0000004001400044014000480140BA
:104A800030B5026A22F480720262046A4268C36925
:104A900024F4007423F073050B682B438D6844EAFB
:104AA00005240A4DA84205D0094DA84202D0094D5F
:104AB000A84205D14D6942EA05128D6942EA051204
:104AC0004260C3614968C163046230BD0040014077
:104AD000004401400048014030B5026A22F480528F
:104AE0000262036A4268C4690D6824F4E64444EA39
:104AF00005248D6823F4005343EA0533084DA8428A
:104B000005D0084DA84202D0074DA84202D14D69F8
:104B100042EA85124260C46149680164036230BDA3
:104B200000400140004401400048014070B5046A63
:104B300024F0010404628469056AB0F1804F11D049
:104B4000124EB0420ED0124EB0420BD0114EB042B7
:104B500008D0114EB04205D0104EB04202D0104ED7
:104B6000B04203D124F00304144301E044F00104F3
:104B70001A0724F0F00444EA126225F00A0301F057
:104B80000A0119438261016270BD00000004004007
:104B900000080040000C00400018004000400140A8
:104BA000005C014030B5046A24F010040462856999
:104BB000046A25F4407545EA022222F470454FF656
:104BC000FF7202EA033224F0A0032A43A02404EA7D
:104BD000011119438261016230BDD0F8180220B181
:104BE0000021C0F81412084670470220704770B5C3
:104BF0000546D0F8184200F023FBC4F80C02D5F8A3
:104C0000180248B1D5F81C12D4F80402CA6804F599
:104C100003719047002070BD022070BD70B504463E
:104C20000025812100F072FA0121204600F06EFA81
:104C30008221204600F06AFAD4F8180250B1D4F864
:104C40001C0204F5067440688047206800F08EFD61
:104C500000202060284670BD10B5D0E9864159B1CA
:104C600094F80002FF2807D08B6894F801222146AF
:104C70009847FF2084F80002002010BD0A2101801F
:104C800000487047680000204321018000487047B9
:104C9000B8000020432101800048704774000020C4
:104CA0004321018000487047FC0000202DE9F041BD
:104CB0000546007C00264FF4007770B340230222A3
:104CC0008121284600F01EFB4023022201212846B4
:104CD00000F018FB082303228221284600F012FB73
:104CE0004FF4077000F044FDC5F81802F0B1044617
:104CF000D5F81C02006880470021C4F81412C4F8DB
:104D00001812287CD4F8042290B1402301212846AF
:104D100000F00BFB3046BDE8F081FFE73B46022286
:104D20008121284600F0EEFA3B46CEE70126F1E766
:104D30003B46EBE710B5D0F8181269B1027C002AA7
:104D4000D1F8042205D04023012100F0EEFA002022
:104D500010BD4FF40073F7E7022010BD0246022099
:104D6000002902D00020C2F81C127047D0F81802A7
:104D7000C0F8041200207047D0F81802C0F81022C2
:104D8000C0F808120020704770B50646D0F81852D7
:104D900008780C4610F0600121D0202927D1E28844
:104DA000AAB10006607807D5D6F81C128B68294690
:104DB0009847E288294617E085F80002A07985F82F
:104DC0000102E2882946304600F050F80FE0D6F89C
:104DD0001C12607800228B682146984707E06078B3
:104DE0000A2804D103490122304600F059F8002076
:104DF00070BD00006400002010B5D0F8181289B111
:104E0000D1F814220AB1012010BD0122C1F81422E8
:104E1000B1F8102293B2D1F80822812100F02FFBC3
:104E2000002010BD022010BD10B5D0F81422526829
:104E30009047002010BD134610B50A46002100F02F
:104E400074FA002010BD134610B50A46002100F088
:104E500016FB002010BD10B50446802100F0E6FAD4
:104E60002046BDE81040002100F0E0BA10B5032351
:104E7000C0F80821C0F8F431C0F80C2113460A46E6
:104E8000002100F052FA002010BD10B505210023CA
:104E9000C0F8F4111A46194600F047FA002010BD78
:104EA00010B502238261C0F8F431C26113460A468C
:104EB000002100F0E4FA002010BD10B50421002309
:104EC000C0F8F4111A46194600F0D9FA002010BDB6
:104ED00010B50A46024903A000F0D0F8004810BD02
:104EE000646D002043444320436F6E666967000091
:104EF00012200880004870473400002010B50A4690
:104F0000024903A000F0BAF8004810BD646D00200B
:104F100043444320496E7465726661636500000016
:104F200004200880004870473000002010B50A4671
:104F3000024903A000F0A2F8004810BD646D0020F3
:104F4000436572654C6F6F700000000010B50A4633
:104F5000024903A000F092F8004810BD646D0020E3
:104F6000434C303220436C6F7365642D6C6F6F70EF
:104F70002053797374656D0010B50A46024903A089
:104F800000F07CF8004810BD646D002030303030F7
:104F9000303030303030314100000000F8B5044688
:104FA00048880D46010A08294BD2DFE801F04A047F
:104FB00009174A4A4048D4F81012207C0A6832E0A7
:104FC000207C02260028D4F8140205D0C16A684665
:104FD00088470146467041E0816AF8E7C0B206287A
:104FE0002FD2DFE800F003080D12171CD4F81012BE
:104FF000207C4A6817E0D4F81012207C8A6812E0FE
:10500000D4F81012207CCA680DE0D4F81012207C6D
:105010000A6908E0D4F81012207C4A6903E0D4F849
:105020001012207C8A6969469047014616E0207C70
:1050300038B9D4F81402416B68468847F5E7207CFC
:1050400020B129462046FFF706FFF8BDD4F8140228
:10505000016B68468847014607204870BDF800008C
:105060000028F2D0EA88002AEFD0824200D9024616
:10507000ADF800202046FFF713FFF8BD70B5002300
:1050800000281DD00446002502E06D1CEDB2641C12
:105090002678002EF9D1022404EB45041480CC5468
:1050A0005B1C0322CA5400245B1C06E0CA545B1C30
:1050B000DAB28C54521CD3B2401C0278002AF5D1CB
:1050C00070BD10B580B1D0F8143213B10023C0F810
:1050D000143209B1C0F81012012180F8FC110270DD
:1050E00000F0B2F8002010BD022010BD10B5002461
:1050F000D0F82002FCF770FF30B1012801D002285F
:1051000001D0022400E00124204610BD10B5002487
:10511000D0F82002FCF7AEFE30B1012801D0022801
:1051200001D0022400E00124204610BD2DE9F04109
:105130001746044641B1D4F8140242698AB394F880
:10514000FC01032842D043E0D4F8F411002504F117
:105150001400022933D1D0E902639E4207D9F31A21
:1051600083609AB239462046FFF76DFE12E0406830
:10517000B0FBF3F103FB1101A1B9984212D3D4F8AB
:10518000F81188420ED2002211462046FFF75BFE3E
:10519000C4F8F85100231A461946204600F0C5F815
:1051A0000DE012E0D4F81402C16829B194F8FC01B2
:1051B000032801D1204688472046FFF766FE94F871
:1051C0000002012804D184F8005201E020469047F3
:1051D0000020BDE8F08170B51546044641B1D4F811
:1051E000140282693AB394F8FC01032824D025E024
:1051F000D4F8F41104F5827003291FD1D0E90231EB
:105200008B420BD95B1A83600846834200D3034666
:105210009AB229462046FFF70EFE0FE0D4F814029A
:10522000016929B194F8FC01032801D1204688477F
:105230002046FFF742FE01E020469047002070BD67
:10524000D0F82002FCF71EBF10B504461E481F49C7
:105250000222C0F8A443C4F8200201600821C0E97A
:1052600001120021C0E9031281610162FDF7F2F928
:1052700020B14FF4A07116A000F085FA0022D4F8F6
:1052800020021823114604F50874FCF7C1FD5823C9
:10529000002280212068FCF7BBFDC0230022812171
:1052A0002068FCF7B5FD4FF48873002201212068C7
:1052B000FCF7AEFD4FF48073002282212068FCF7DA
:1052C000A7FD002010BD0000BC690020005C00406C
:1052D0002E2E2F5372632F757362645F636F6E6639
:1052E0002E6300000A0601F07F01D0F82002C1EB16
:1052F000C10100EB810002D590F82A00704790F8B8
:10530000CE01704770B51D4613460024D0F8200228
:105310002A46FCF7C1FE30B1012801D0022801D095
:10532000022400E00124204670BD10B50024D0F80E
:105330002002FDF71DF830B1012801D0022801D06C
:10534000022400E00124204610BD70B5002204466E
:1053500040231146FFF7D6FF40252B46002280212F
:105360002046C4F81051FFF7CDFF0120256284F8D4
:10537000FC01D4F8180228B1D4F81402217942684B
:1053800020469047002070BD90F8FD1180F8FC1178
:105390000020704710B590F8FC11032904D1D0F813
:1053A0001412C96901B18847002010BD01740020A2
:1053B000704710B50024D0F82002FDF7E2F930B1B3
:1053C000012801D0022801D0022400E00124204657
:1053D00010BD70B5044600F50270054600F05FF898
:1053E0000120C4F8F401B4F80E02C4F8F80194F8EE
:1053F000082212F01F000AD001280DD0022810D078
:1054000002F08001204600F011F8002070BD29460E
:10541000204600F0AAF8F8E72946204600F08CF96B
:10542000F3E72946204600F019F9EEE710B500240D
:10543000D0F82002FCF7ECFF30B1012801D002289F
:1054400001D0022400E00124204610BD10B5002444
:10545000D0F82002FDF7B2F930B1012801D00228BE
:1054600001D0022400E00124204610BD90F8FC1178
:1054700080F8FD11042180F8FC110020704710B560
:105480000024D0F82002FDF708F830B1012801D03F
:10549000022801D0022400E00124204610BD0A7831
:1054A00002704A7842708A78CB7802EB03224280FD
:1054B0000A794B7902EB032282808A79C97902EB5F
:1054C0000121C18070470246002011B1C2F81412B8
:1054D00070470220704710B5D0F8142202241AB188
:1054E0001268904700B90024204610BD70B50D46E3
:1054F0001A4E897804463170012928D894F8FC01A5
:10550000022802D0032822D105E099B1032061606E
:1055100084F8FC0109E091B1606888420AD0C1B208
:105520002046FFF781FC317861602046FFF7D3FF0A
:1055300002280CD02046BDE87040FFF7BEBC022018
:1055400084F8FC0120466160FFF76EFCF2E7294613
:105550002046BDE87040FFF77EBC000060000020E0
:1055600010B5FFF773FF002010BD2DE9F0410027B3
:105570004A7801263B460A2A43D2DFE802F03C582B
:105580004251420805422A27FFF708FD63E004461E
:105590008888C8B9C888B8B9887800F07F0594F8B9
:1055A000FC01032810D084F8FE5129462046FFF75D
:1055B00000FF2046FFF781FC1DB1022084F8FC01AA
:1055C00049E084F8FC6146E020461AE0FFF78EFFD0
:1055D00041E0CA88012A14D190F8FC21022A02D0A5
:1055E000032A0ED104E0012200F10801836014E0D7
:1055F0000122011D11E090F8FC21022A04D0032AA7
:1056000002D0FFF728FC26E0C660D0F8041209B1EA
:105610000321C160022200F10C01FFF741FC1AE0F6
:1056200004464888012816D1C4F804620BE00446F9
:1056300090F8FC01022801D00328C5D14888012830
:1056400009D1C4F80432D4F8140282682046904785
:105650002046FFF732FC3846BDE8F08170B50D46B4
:105660000446287800260979C0F34110012806D0A5
:105670006878A0B301281FD003283FD107E0D4F8F1
:1056800014022946826820469047002070BD94F895
:10569000FC01022817D003282CD1688828B921B131
:1056A000802902D02046FFF7C1FED4F81402294613
:1056B00082682046904713E094F8FC01022802D04B
:1056C000032817D103E0C9B180291BD116E06888EF
:1056D000A0B9480604D02046FFF708FDE5E703E03F
:1056E0002046FFF7EAFB09E094F8FC01022807D006
:1056F00003280BD029462046FFF7ADFB304670BD8E
:105700004806FBD02046FFF791FEF7E7080601F0B8
:105710007F0004EB001501D5143501E005F5827515
:105720002046FFF7DFFD00B1012028600222294654
:105730002046FFF7B5FBE1E770B5054690F8FC01A0
:105740000C4603280DD1207901280AD8D5F8140277
:10575000826828469047E08830B92846FFF7ADFBBD
:1057600002E02846FFF777FB002070BD704700007D
:10577000004870479C6700200148FCF7F3BE00001A
:10578000BC690020FEE7FEE702E008C8121F08C15E
:10579000002AFAD170477047002001E001C1121FB2
:1057A000002AFBD17047002381621946C0E9022319
:1057B00000EB8102491C1361936113620229F7DB3C
:1057C00003604360704700000EB5FCF785FAFEF7F2
:1057D00079FEFEF77DFA8048416941F0020141619E
:1057E0004069002200F00200009011463A20FCF7C8
:1057F000DDFA3A20FCF7CEFA002211463B20FCF7F6
:10580000D5FA3B20FCF7C6FA75497448086008468B
:10581000FBF77DFF00B1FEE70020009002460190FB
:1058200069466F48FBF752FF00B1FEE7FEF7D2FA78
:10583000FEF7F6FAFEF726FCFEF7A4FAFEF726FAC4
:10584000FEF714FBFEF7DAFBFEF7B8FBFEF732FBC0
:10585000FEF772FB0C216348FEF7F2F962494FF440
:1058600000552A4601F50050FFF79DFF5F4C4FF4AD
:105870007A705F4944F8900BA1F58150CDE90001A1
:105880005A49A0F5D263A0F5296201F5E950FAF76B
:10589000E9FE57487030FAF7A2FF51480421603002
:1058A000FDF76EFC4E480421A430FDF769FC514E13
:1058B0004B48012231466030FDF78BFC48480122FD
:1058C0003146A430FDF785FC454E603630680168EE
:1058D00041F40031016031680123474A6431706945
:1058E000FCF701F83068416841F40001416044363A
:1058F0003068016841F4003101603F4A316801239A
:10590000921C64317069FBF7EEFF3068416841F426
:105910000001416000231A4606F1E8013748FBF711
:1059200019F9364806F59471243001230022064601
:10593000FBF710F9FAF744FCA26CA16D00FB012003
:1059400082B2208D218F80B289B2CDE90010208BE8
:1059500083B2B4F8900081B22848FBF712F9FAF745
:105960002FFCE26CE16D00FB012082B2A08DA18FC3
:1059700080B289B2CDE90010A08B83B2B4F8940054
:1059800081B23046FBF7FDF800211548FBF701FF17
:1059900015484038FDF7A8FE144C6E11343CA06940
:1059A000B04207D92079800702D5FBF779FB01E0E7
:1059B000FBF75EFBA069A84201D9FBF759FB0C4835
:1059C0006A4601A9B030FBF7E5F90028E7D1DDE927
:1059D0000010FBF73FFAE2E70010024000740040BD
:1059E00070030020BC040020BC050020F02500202E
:1059F000A04200204000060008000020A86400200B
:105A0000010000000300000001000000030000008E
:105A100001000000FB64193C0000000000000000D1
:105A20000000803F00000000000080BFFB64193CC4
:105A300000000000000000000000803F00000000A7
:105A4000000080BF0000803F000000000000000058
:105A50000000803F00000000000000000000803FC8
:105A60007662FDBFA6E47A3F0000803F00000000A0
:105A7000000000000000803FCE29FFBFF0567E3FAF
:105A80000000803F00000000000000000100000056
:105A900003000000010000000300000001000000FE
:105AA000A9134C3C00000000000000000000803FF3
:105AB00000000000000080BFA9134C3C0000000063
:105AC000000000000000803F00000000000080BFD8
:105AD0000000803F00000000000000000000803F48
