:020000040800F2
:10000000587800209D010008D95F00083559000884
:10001000D55F00081D060008798000080000000078
:10002000000000000000000000000000356500082E
:10003000C121000800000000ED64000837650008D9
:10004000B7010008B7010008B7010008B7010008B0
:10005000B7010008B7010008B7010008B7010008A0
:10006000B7010008B7010008B7010008B701000890
:10007000B7010008B7010008B7010008B701000880
:10008000B7010008B7010008B7010008B701000870
:10009000B7010008B7010008B7010008B701000860
:1000A000B701000895660008D966000821670008B6
:1000B000B7010008B7010008B7010008B701000840
:1000C000B7010008B7010008B7010008B701000830
:1000D000B7010008B7010008B7010008B701000820
:1000E000B7010008B7010008B7010008B701000810
:1000F000B7010008B7010008000000000000000080
:100100000000000000000000B7010008B70100086F
:100110000000000000000000B7010008B70100085F
:10012000B7010008B7010008352100084521000883
:10013000B7010008B7010008B7010008B7010008BF
:10014000B7010008000000000000000000000000EF
:10015000000000000000000000000000000000009F
:100160000000000000000000B701000869800008DE
:10017000B701000800000000B701000800000000FF
:1001800000000000B7010008DFF80CD000F0E0F933
:1001900000480047D580000858780020064880476E
:1001A00006480047FEE7FEE7FEE7FEE7FEE7FEE75C
:1001B000FEE7FEE7FEE7FEE7196600088901000892
:1001C000202A04DB203A21FA02F00021704721FAAC
:1001D00002F3D040C2F12002914008431946704713
:1001E0000649074A0868504343F239021044086040
:1001F00040087047014908607047000080010020F6
:100200006D4EC64140EA01039B0703D009E008C9CF
:10021000121F08C0042AFAD203E011F8013B00F8CB
:10022000013B521EF9D270472DE9FE4F81EA0304CB
:1002300004F0004421F0004100944FF0000B23F043
:10024000004350EA01045ED052EA03045BD0C3F3DA
:100250000A54C1F30A552C44A4F2F3340194A0FBD0
:100260000254C1F3130141F48011C3F3130343F4A7
:10027000801301FB024400FB034E840A970A44EA00
:10028000815447EA8357A4FB076802958D0A05FB52
:1002900007854FEA932C04FB0C542705029D4FEA77
:1002A000065847EA1637B5EB08056EEB070C870EC4
:1002B000920E47EA811742EA8312A7FB0201B6EBCE
:1002C0000B0164EB00042B0D43EA0C335E1844EB86
:1002D0001C50DA465146E7FB0201C5F313044FEA0E
:1002E0000B3343EA14534FEA0432019C43EA0603FA
:1002F000A4F10C040294009CCDE900B400F0DAF8FB
:1003000003B0BDE8F08F00200146F9E72DE9F04D7C
:1003100081EA030404F0004B21F0004514464FF03D
:10032000000A23F0004150EA050220D054EA0102FD
:100330001DD0C5F30A570246C5F31303C1F31300DA
:10034000C1F30A5640F4801543F48013A7EB060866
:10035000101BD64608F2FD3873EB050002D308F1F6
:10036000010801E092185B41B8F1000F03DA0020A8
:100370000146BDE8F08D00204FF48011064684460A
:100380000EE0171B73EB050705D3121B63EB050388
:1003900006434CEA010C49084FEA300092185B41D1
:1003A00050EA0107EDD152EA030012D082EA0400BC
:1003B00083EA0501084305D0101BAB4106D2012298
:1003C000002306E000224FF0004302E06FF001023C
:1003D00053101AEB06004CEB085110EB0A0041EBEE
:1003E0000B01BDE8F04D00F056B80EB540F23341B8
:1003F00002910021CDE900110A460B4600F05AF89F
:1004000003B000BD0EB540F2334202920022CDE9A6
:100410000022134600F04EF803B000BD20F000406B
:10042000C20DC0F3160040F400007F2A02DA00205B
:10043000014670470021962A03DCC2F19602D040A3
:100440007047963A00F018B8C1F30A52C1F313018D
:1004500040F2FF3341F480119A4202DA0020014653
:10046000704740F233439A42A2F2334202DC5242D6
:10047000FFF7A6BEAFF30080202A04DB203A00FA83
:1004800002F1002070479140C2F1200320FA03F3EB
:1004900019439040704710B5141E73F1000408DA38
:1004A000401C41F1000192185B411A4301D120F038
:1004B000010010BD2DE9F04D92469B4611B1B1FAF5
:1004C00081F202E0B0FA80F220329046FFF7D4FFCA
:1004D00004460F4640EA0A0041EA0B0153465A46D9
:1004E000084313D0114653EA010019D0C8F1400265
:1004F0005046FFF765FE05460E46504659464246B1
:10050000FFF7BAFF084305D0012004E02046394632
:10051000BDE8F08D0020054346EAE0762C433743E2
:100520000A986305E40AA0EB08000022FD0A44EAE9
:1005300047540A3002D500200146E9E701051019A9
:100540006941DDE9084500196941BDE8F04DA2E7C0
:10055000064C074D06E0E06840F0010394E8070010
:1005600098471034AC42F6D3FFF712FEAC8900086E
:10057000CC89000870B58C1810F8015B15F00703E2
:1005800001D110F8013B2A1106D110F8012B03E02C
:1005900010F8016B01F8016B5B1EF9D12B0705D434
:1005A0000023521E0DD401F8013BFAE710F8013B7D
:1005B000CB1A921C03E013F8015B01F8015B521E99
:1005C000F9D5A142D8D3002070BD70B504460025EE
:1005D0002068806800F00100F0B12068806820F099
:1005E00001002168886002F0FFF905460EE002F084
:1005F000FBF9401B022809D9A06A40F01000A06254
:10060000E06A40F00100E062012070BD206880686F
:1006100000F001000028EAD10020F6E700BFFEE765
:100620000346042B15D007DC7BB1012B0ED0022B27
:100630000DD0032B12D10BE0202B0BD0212B0AD095
:10064000222B09D0232B09D107E008E007E006E0C0
:1006500005E004E003E002E001E000E000BF00BFCD
:10066000002070470020704710B50022044905485B
:1006700006F05AFD0449034806F04FFD002010BD66
:100680006C73002098650020846F002070B50446CC
:100690000D462146094806F040FD084806F019FDC0
:1006A000002605E03046761C215C054801F094F8F0
:1006B0002868B042F6D8002070BD00009865002080
:1006C000F84300202DE9F04104460D4600260A4873
:1006D000D0F81872D7F8140210B10120BDE8F081EB
:1006E0002A462146044806F01FFD034806F06EFD29
:1006F00006463046F2E70000986500202DE9F041FB
:100700002DED048B0546B0EE409AF0EE609A2C4633
:100710002E46B0EE490A206A01F03AFBB0EE408A5C
:1007200086ED008AB0EE480A606A01F031FBF0EE17
:10073000408AB0EEE80AE06AD0F8041801EE101A18
:10074000B8EEC11AC0EE011AF0EE610A00F50061C0
:1007500091ED031AD0F8001800EB8101D1ED001AD9
:1007600031EE611A00F5006181ED031AD0F800182E
:1007700000EB8101C1ED000A00F5006191ED031A63
:1007800031EE201A81ED031AD0F80018491CC0F888
:10079000001800F5006106C9914202DB0021C0F893
:1007A000001800F5006191ED031A86ED011A84ED41
:1007B000028AC4ED038AD6ED010AB0EE600A002178
:1007C000206B01F02BFC0746206B90F8280000F00E
:1007D000010010B1002000F05FFBBDEC048BBDE810
:1007E000F081704770B52DED048B0646F0EE409A0F
:1007F000F0EE608A34463546B0EE690A206A01F0B0
:10080000C7FAB0EE409AB0EEC90AA06AD0F8041850
:1008100001EE101AB8EEC11AC0EE011AF0EE610A2C
:1008200000F5006191ED031AD0F8001800EB81018A
:10083000D1ED001A31EE611A00F5006181ED031A65
:10084000D0F8001800EB8101C1ED000A00F500614D
:1008500091ED031A31EE201A81ED031AD0F8001839
:10086000491CC0F8001800F5006106C9914202DB7E
:100870000021C0F8001800F5006191ED031A85ED24
:10088000001AB0EE680A606A01F082FAB0EE408A9F
:10089000B0EEC80AE06AD0F8041801EE101AB8EEFB
:1008A000C11AC0EE011AF0EE610A00F5006191ED87
:1008B000031AD0F8001800EB8101D1ED001A31EED7
:1008C000611A00F5006181ED031AD0F8001800EB01
:1008D0008101C1ED000A00F5006191ED031A31EECE
:1008E000201A81ED031AD0F80018491CC0F800182E
:1008F00000F5006106C9914202DB0021C0F8001832
:1009000000F5006191ED031A85ED011A84ED029A5C
:1009100084ED038AD5ED000AB0EE600A0021206B59
:1009200001F07CFBD5ED010AB0EE600A0121606B9D
:1009300001F074FB206B90F8280000F0010010B16A
:10094000002000F0A9FA606B90F8280000F0010088
:1009500010B1012000F0A0FABDEC048B70BD70B5A1
:100960002DED048B0646F0EE409AF0EE608A344698
:100970003546B0EE690A206A01F00AFAB0EE409AF4
:10098000B0EEC90AA06AD0F8041801EE101AB8EE49
:10099000C11AC0EE011AF0EE610A00F5006191ED96
:1009A000031AD0F8001800EB8101D1ED001A31EEE6
:1009B000611A00F5006181ED031AD0F8001800EB10
:1009C0008101C1ED000A00F5006191ED031A31EEDD
:1009D000201A81ED031AD0F80018491CC0F800183D
:1009E00000F5006106C9914202DB0021C0F8001841
:1009F00000F5006191ED031A85ED001AB0EE680A6A
:100A0000606A01F0C5F9B0EE408AB0EEC80AE06A4B
:100A1000D0F8041801EE101AB8EEC11AC0EE011A8F
:100A2000F0EE610A00F5006191ED031AD0F80018AC
:100A300000EB8101D1ED001A31EE611A00F5006181
:100A400081ED031AD0F8001800EB8101C1ED000A16
:100A500000F5006191ED031A31EE201A81ED031AC1
:100A6000D0F80018491CC0F8001800F5006106C94C
:100A7000914202DB0021C0F8001800F5006191ED01
:100A8000031A85ED011A84ED029A84ED038AD5EDEF
:100A9000000AB0EE600A0021206B01F0BFFAD5ED2C
:100AA000010AB0EE600A0121606B01F0B7FA206B19
:100AB00090F8280000F0010040B1606B90F8280029
:100AC00000F0010010B1002000F0E6F9BDEC048B4D
:100AD00070BD00002DE9FF4705460E4690461F46B3
:100AE000DDE90C9A00245AE005F1120030F81400F8
:100AF00020F4006105F1120020F81410204600F0E7
:100B0000D7F9C4EB0410C0EBC00007EBC00105F13E
:100B1000200040F8241004EBC41009EB001105F18B
:100B2000280040F82410C4EBC4000AEBC00105F112
:100B3000300040F8241008EB442204EBC41309EB06
:100B40000311C4EB0413C3EBC30307EBC30000F0B2
:100B500075FB06F1E80050F8240006F1D80151F8C1
:100B6000241006F1A80252F8242006F1B80353F825
:100B7000243006F5807C0CEB840CCDE90032CDE905
:100B80000210DCED000AB0EE600AC4EBC40C0AEB04
:100B9000CC00D6E93E23316801F000FA641C022C37
:100BA000A2DB284606F5A07106C900F0BFF8AE61C9
:100BB000A869B0F8A4002882288A062816D2DFE89F
:100BC00000F00306090C0F120C48E8610EE00C4817
:100BD000E8610BE00B48E86108E00B48E86105E0DC
:100BE0000A48E86102E00A48E86100BF00BF09491D
:100BF0000868FFF7FFFABDE8FF870000E307000879
:100C0000410D0008E5070008FD0600085F0900081F
:100C1000190C0008282800402DE9F0412DED028B29
:100C20000446B0EE408AF0EE608A264606F14005A2
:100C3000D5E90221571E61F10000C5E902700027C5
:100C400082EA07007940084305D1204600F008F801
:100C5000002000F021F9BDEC028BBDE8F08100001E
:100C60002DE9F0472DED088B04462646B069008833
:100C70001FFA80F906F14005FFF7B2FA00EE100AFC
:100C8000B8EEC00A9FED191AC0EE010AD5E90010AE
:100C9000401A00EE100AB8EE400A20EE800A10EE6C
:100CA00010AA5046FFF7BAFB074688462868C719BE
:100CB00048F100084846FFF798FB9FED0D0B53ECF9
:100CC000102BFFF723FB41EC190B38464146FFF789
:100CD00099FB53EC192BFFF7A7FAFFF7B5FBC5E912
:100CE0000201BDEC088BBDE8F08700000000004F5A
:100CF000000000000000244090B941F28731094A09
:100D00001268D162074A126811640749098841F4E0
:100D10000051054A11801146098821F4C051118003
:100D2000704700004C0500200400002070B5044608
:100D30000D461646666425642046FFF791FF70BD98
:100D40002DE9F0412DED048B0546F0EE408AB0EE22
:100D5000609A2C462E46B0EE680A206A01F018F818
:100D6000B0EE408AB0EEC80AA06AD0F8041801EECE
:100D7000101AB8EEC11AC0EE011AF0EE610A00F5C1
:100D8000006191ED031AD0F8001800EB8101D1ED5C
:100D9000001A31EE611A00F5006181ED031AD0F8F6
:100DA000001800EB8101C1ED000A00F5006191ED32
:100DB000031A31EE201A81ED031AD0F80018491CED
:100DC000C0F8001800F5006106C9914202DB00215D
:100DD000C0F8001800F5006191ED031A86ED001AC5
:100DE00084ED028AD6ED000AB0EE600A0021206B85
:100DF00001F014F90746206B90F8280000F001007C
:100E000010B1002000F048F8BDEC048BBDE8F08183
:100E100000B50246108A062822D2DFE800F003045B
:100E2000080F161D1CE0106B01F0B4F818E0106BF1
:100E300001F0B0F8506B01F0ADF811E0106B01F06B
:100E4000A9F8506B01F0A6F80AE0106B01F0A2F8C7
:100E5000506B01F09FF803E0106B01F09BF800BFAE
:100E600000BF00BD98B941F28731094A1268D162CA
:100E70004910074A126811640649098841F48051F3
:100E8000044A11801146098821F4205111807047CD
:100E90004C0500200400002010B5044604EBC401FA
:100EA000024A02EB810000F008FC10BD50650020F2
:100EB0007CB5054604F01CFF04F07AFF2B4800F0D7
:100EC000B5FB2A48243000F0B1FB00231A4628491C
:100ED000264800F0D8FA012300222649234824306E
:100EE00000F0D1FAFFF77CF92349D1F8E810224A43
:100EF000D2F8D82000FB012084B21F48B0F8B80017
:100F000080B21D49B1F8C81089B2CDE900101A4865
:100F1000B0F8A80083B21848B0F8200181B2224688
:100F2000124800F0CDFAFFF75BF91349D1F8EC2035
:100F3000D1F8DC1000FB021084B20F48B0F8BC00FE
:100F400080B20D49B1F8CC1089B2CDE900100A4841
:100F5000B0F8AC0083B20848B0F8240181B2224650
:100F60000248243000F0ACFA7CBD0000506500203F
:100F70008C050020CC0500208026002010B50446FA
:100F8000BCB942F20F700B490968C86240100949A8
:100F9000096808640C21074804F0A0FC0648008892
:100FA00040F40060044908800846008820F440505E
:100FB000088010BD4C0500200400002010B5034639
:100FC0004FF48550C05850B341F29C00C05841F2D4
:100FD00014041C4454F82000086041F29C00C058DE
:100FE00041F254041C4454F82000106041F29C006B
:100FF000C058401C082804D241F29C00C058401C34
:1010000003E041F29C00C058C01F41F29C04E05034
:10101000201DC058401E241DE050002010BD4FF080
:10102000FF30FBE710B5034641F29400C05841F28F
:1010300014041C4444F8201041F29400C05841F2BA
:1010400054041C4444F8202041F29400C058401C31
:10105000082804D241F29400C058401C03E041F239
:101060009400C058C01F41F29404E0504FF48550E2
:10107000C058401C4FF48554E050002010BD10B5FE
:101080000446002041F274012144087341F27400C7
:101090002044826841F2740001592046FFF7C2FFE4
:1010A000002010BD024641F298008058084441F2E9
:1010B0001003984203D3002341F29800835041F279
:1010C00098008358901C034441F2740083501044EC
:1010D0008160002041F2740313445860012041F202
:1010E00074031344187341F298008058084441F285
:1010F0001003984204D241F298008058084406E058
:1011000041F2980080580844A0F58050103841F210
:101110009803985041F274008058704710B5024609
:1011200041F274001044406841F2740313449B6818
:10113000984211D241F274001044436841F27400A5
:1011400010444068401C41F274041444606041F251
:1011500074008058C1540BE041F2740010444068A0
:10116000401C41F27403134458604FF0FF3010BD2F
:101170000020FCE70146002041F274020A4410738B
:1011800041F274020A4450607047014641F2740013
:101190000844806841F274020A445268801A704719
:1011A00001460020112934D010DC042928D006DCA7
:1011B00001291CD002291DD003293AD11DE005299F
:1011C00020D0062920D0102933D120E0402928D072
:1011D00006DC14291FD020291FD0212929D11EE087
:1011E000412920D0602922D0832922D11DE040F25C
:1011F000012020E040F201201DE040F201201AE031
:10120000012018E0012016E040F2012013E0062042
:1012100011E002200FE006200DE016200BE00E206A
:1012200009E0012007E0012005E0022003E005209D
:1012300001E0012000BF00BF7047000078B50646FE
:101240000D461446D4F884000B2871D2DFE800F074
:10125000060F18212A333C454E57600038480523B5
:10126000384A39490090304600F024FE60E03748A3
:101270000523374A37490090304600F01BFE57E0FF
:1012800035480523354A36490090304600F012FEB5
:101290004EE034480523344A34490090304600F08B
:1012A00009FE45E032480523324A33490090304672
:1012B00000F000FE3CE031480523314A31490090FE
:1012C000304600F0F7FD33E02F4805232F4A304920
:1012D0000090304600F0EEFD2AE02E4805232E4A0D
:1012E0002E490090304600F0E5FD21E02C48052312
:1012F0002C4A2D490090304600F0DCFD18E02B48C8
:1013000005232B4A2B490090304600F0D3FD0FE017
:101310002948008858B12848001D0090001F038804
:1013200000F5827200F14401304600F0C3FD00BFB9
:1013300000BF2846D4F88C1000F012FE78BD0000E3
:10134000148300087883000828830008B483000809
:1013500018840008C883000854840008B884000872
:1013600068840008F484000858850008088500088F
:1013700094850008F8850008A885000834860008D0
:101380009886000848860008D48600083887000838
:10139000E886000874870008D88700088887000856
:1013A000148800087888000828880008B488000895
:1013B00018890008C88800088401002010B5044678
:1013C000208920F001002081204600F0D3F810BDD4
:1013D00070B50446208940F0020020812569B5F5EA
:1013E000803F02D34FF6FF7000E028460546206894
:1013F000C560002120684161608921680968C86270
:101400000020216809680863206803F0DEFF206877
:101410000068006920F01F002168096808612068E1
:1014200004F04AF870BD018941F001010181704763
:1014300070B5044620680068006985B220680068BD
:10144000006920F01F0021680968086105F00100AB
:1014500018B9204600F0D4F814E0207A00F0020019
:1014600018B1204600F048F80CE0207A00F00400A3
:1014700040B1A08B18B9204600F008F902E02046E0
:1014800000F03AF870BD2DE9F04104460E461546CD
:101490001F4627842660A5800120A840E080802187
:1014A0002068816100212068016102F069FF42F239
:1014B0001071B0FBF1F0401E21684860BDE8F0817A
:1014C000F0B5DDE9055481826F1E4783C3824281F6
:1014D0004FF6FF77C783048307683F683437B0F857
:1014E00004C007EB0C1634600768FA604FF0000C7C
:1014F0000768C7F814C0F0BD70B50446206803F053
:10150000EAFF208920F002002081208940F00800B5
:101510002081A18A2068C160206803F056FF2068FE
:1015200000683430A18800EB0115E08A2860A288A9
:10153000910022681068012205F056FB20680068BF
:10154000006920F01F0021680968086120680068B0
:10155000C068E18840EA410021680968C8602068E5
:1015600003F0AAFF204600F01BF8A08B401EA083CA
:1015700070BD00004FF09041896941F080714FF0DB
:10158000904291611146896941F00071916103496E
:10159000098821F00F01014A1180704704000020E2
:1015A0004FF09041896941F480714FF09042916110
:1015B000018C11B101291ED10EE01049098841F0BA
:1015C00002010E4A11804FF09041896941F04001BB
:1015D0004FF0904291610EE00849098841F00801FE
:1015E000064A11804FF09041896941F040014FF067
:1015F0009042916100BF00BF7047000004000020CE
:1016000010B50446208920F008002081208940F090
:1016100010002081A288910022681068002205F045
:10162000E3FA204600F002F810BD00004FF09041B0
:10163000896941F080714FF090429161018C11B144
:1016400001291ED10EE04FF09041896941F48001DB
:101650004FF0904291610C49098821F002010A4A39
:1016600011800EE04FF09041896941F480014FF004
:10167000904291610449098821F00801024A1180D1
:1016800000BF00BF704700000400002010B50446F2
:10169000206803F020FFA2889100226810680022D1
:1016A00005F0A2FA208920F01C0020812046FFF7D7
:1016B000BDFF204600F052F810BD70B50446207AF8
:1016C00000F0010040B3207A00F01A0020BB20890E
:1016D00040F004002081204600F020F8FEF780FD55
:1016E0004FF6FF7190FBF1F201FB1200A18900FBA4
:1016F00001F54FF6FF70B5FBF0F5608928442061D5
:10170000608BA083206918B12046FFF761FE02E0DC
:101710002046FFF7F1FE00BF70BD00004FF0904182
:10172000896941F400714FF090429161018C11B1CF
:1017300001290ED106E00849098841F00101064A55
:10174000118006E00449098841F00401024A118031
:1017500000BF00BF70470000040000204FF0904120
:10176000896941F000714FF090429161018C11B193
:1017700001290ED106E00849098821F00101064A35
:10178000118006E00449098821F00401024A118011
:1017900000BF00BF704700000400002070B5044681
:1017A0000D4616463246294641F2A4002044FFF772
:1017B00005FC70BD10B5044641F2A4002044FFF7BB
:1017C0005EFC10BD70B504460D46294641F2A400EA
:1017D0002044FFF7A3FC70BD2DE9F04104460D46FF
:1017E0004FF0FF3741F2A40026184000005B00F4E0
:1017F000007000284AD041F274003044007B80B968
:101800002846FFF7CDFC002808DD2846FFF7C8FC76
:10181000804641463046FFF745FC02E03046FFF780
:10182000A9FC3046FFF7B1FC002812DD294620460E
:10183000FFF7C8FF401C40BB3046FFF79BFC42F25D
:101840004810005920F4007142F24810015100275D
:1018500027E03E2D0CD12046FFF7ACFF42F24810A6
:10186000005920F4007142F248100151002718E09D
:101870003046FFF77FFC42F24810005920F4007117
:1018800042F2481001514FF0FF370AE03C2D08D1D9
:1018900042F24810005940F4007142F248100151E0
:1018A00000273846BDE8F0812DE9FC4704460E4686
:1018B000207820287ED00EDC10287CD006DC012881
:1018C00016D002284BD0062848D15CE0112873D0EE
:1018D0001428F9D1CCE041286FD004DC21286DD048
:1018E0004028F1D122E1602869D08328ECD136E18B
:1018F0004FF4A472611C9E48FEF784FC9D489E49EB
:101900009E4B9F4ACDE9001099499E48FFF7E2F8A7
:10191000FEF766FC9649D1F8E810954AD2F8D8202F
:1019200000FB012085B29248B0F8B80080B290491F
:10193000B1F8C81089B2CDE900108D48B0F8A80000
:1019400083B28B48B0F8200181B22A468E48FFF757
:10195000B7FD8C48FFF75CFA00F000FA03E14FF4A2
:101960000072611C8648FEF74DFC82488249834B19
:10197000834ACDE900107E498248FFF7ABF88148E1
:10198000FFF746FAEFE094F8019065887F480580FC
:1019900004F10408AA004146001DFEF733FC0420B0
:1019A00000EB8500071905EB4500820039467748B2
:1019B000443005E070E021E048E0BEE08EE0C1E0A8
:1019C000FEF720FC05EB4500820005EB450007EB28
:1019D00080016F48FEF716FC0A206949C1F88400AF
:1019E00064486549654B664ACDE900106049654821
:1019F000FFF770F86348FFF70BFAB4E0607801AACC
:101A0000002103E08B1CE35C5354491C0429F9DBDF
:101A10009DED010AC0EBC001564B03EBC10181ED06
:101A2000060AC0EBC00103EBC10191ED060AC0EB51
:101A3000C00103EBC101D1ED070A20EE200AC0EB83
:101A4000C00103EBC10181ED050A8CE0607838B973
:101A500000204749C1F8A0004B48FFF7AFFC06E063
:101A600001204349C1F8A0004748FFF7DCFC7AE0B9
:101A7000627801A9002003E0831CE35C0B54401C46
:101A80000428F9DB9DED010AC2EBC200394B03EBE0
:101A9000C00080ED050A66E0A01C6178028801EBB9
:101AA000C103394D05EB83035A81828801EBC103E1
:101AB00005EB83039A81028901EBC10305EB8303E4
:101AC000DA82828901EBC10305EB83039A82028AE1
:101AD00001EBC10305EB83035A8344E0A71C65783F
:101AE000274901EB45213868C1F88C00244901EBF6
:101AF00045217868C1F88400214901EB4521B86887
:101B0000C1F880001E4B03EB452205EBC513DFF83F
:101B100068C00CEB0311C5EB0513C3EBC303DFF87F
:101B20005CC00CEBC300FFF789FB1CE01948406860
:101B300040F002001749486015E06FF002001549B7
:101B4000486010E0601C0A220168B1FBF2F100EE6F
:101B5000101AB8EE400A104981ED000A03E00A4865
:101B6000FFF7ABFD00BF00BF0020BDE8FC87000011
:101B7000802600203043002010330020802C0020DD
:101B800080280020A0430020506500208401002010
:101B9000880200204C2600200800002030B51148A3
:101BA0004FF48073002100F1100454F82140E21832
:101BB0008468944205D88468B2FBF4F4856804FB19
:101BC000152200F1100444F82120083454F8214073
:101BD000E51A00F1180444F8215000BF0020024922
:101BE000087030BD4C2600201400002030B52DEDCB
:101BF000028B81B05248007820B1012862D00228BF
:101C00005FD18CE03C204F490870AD2048704E48B1
:101C1000006B90ED050AB0EE408A9FED4C0AB4EEE1
:101C2000C08AF1EE10FA02DD9FED480A01E0B0EE45
:101C3000480AB0EE408A9FED460AB4EEC08AF1EE43
:101C400010FA02D29FED420A01E0B0EE480AB0EE6F
:101C5000408ABDEEC80A10EE100A00B23949488029
:101C60003948406B90ED050AB0EE408A9FED370A87
:101C7000B4EEC08AF1EE10FA02DD9FED340A01E005
:101C8000B0EE480AB0EE408A9FED310AB4EEC08A49
:101C9000F1EE10FA02D29FED2E0A01E0B0EE480AF2
:101CA000B0EE408ABDEEC80A10EE100A00B2254917
:101CB000888006212348FEF705FD10B90120204940
:101CC000087037E023490969234A88184FF4807166
:101CD000FEF7F8FC10BB0220194908701D484FF4AC
:101CE0008073002100F1100454F82140E218846848
:101CF000944205D88468B2FBF4F4856804FB15228D
:101D000000F1100444F82120083454F82140E51A69
:101D100000F1180444F8215000BF00BF0AE03E2043
:101D2000009001216846FEF7CDFC10B9002004495F
:101D3000087000BF00BF01B0BDEC028B30BD0000D9
:101D4000140000200C000020A043002000FEFF46ED
:101D5000000000C74C2600204C06002010B50A48A1
:101D6000D0F8A00038B90948FFF728FB074824300D
:101D7000FFF724FB06E00548FFF755FB0348243036
:101D8000FFF751FB10BD00008026002050650020A9
:101D900030B5B0EE401AB0EE410A002183E0F0EE1B
:101DA000400A01EB410400F5C07303EB8403D3ED5B
:101DB000001A61EE801AB0EE610A00F5407353F824
:101DC0002120012336E001EB410500F5C07404EB4E
:101DD000850404EB8304D4ED001A01EB410400EB0D
:101DE000840404EB820494ED002A61EE821A01EB74
:101DF000410500F5107404EB850404EB830494EDB5
:101E0000002A01EB410500F1C00404EB850404EB5A
:101E10008204D4ED002A42EE621A71EE801AB0EE0E
:101E2000610A521E002A04DAD0F8404354F82140D7
:101E300022445B1CD0F8404354F821409C42C2DC51
:101E400000F5407353F821305B1C00F5407444F8F2
:101E50002130D0F8403353F8214000F5407353F857
:101E600021309C4204DC002400F5407343F82140FB
:101E700001EB410300EB830400F5407353F821307C
:101E800004EB8303C3ED000A01EB410400F1C0033E
:101E900003EB840400F5407353F8213004EB830313
:101EA00083ED000A491CD0F844238A423FF777AFFC
:101EB00030BD0000F0B504460D46059E002045E00B
:101EC000002140E09FED250A00EB400704EB870767
:101ED00007EB810787ED000A9FED200A00EB400C1D
:101EE00004F1C00707EB8C0707EB810787ED000AB9
:101EF0004FF0000C04F5407747F820C000EB400796
:101F000002EB870707EB810797ED000A00EB400C17
:101F100004F5107707EB8C0707EB810787ED000AC4
:101F200000EB400705EB870707EB810797ED000AF9
:101F300000EB400C04F5C07707EB8C0707EB81073B
:101F400087ED000A491C0329BCDB401C9842B7DB23
:101F5000C4F84063C4F84433F0BD00000000000042
:101F6000002206E09FED0A0A00EB820383ED000ADF
:101F7000521C8A42F6DBC0F804180022C0F8002880
:101F80009FED030A00F5006282ED030A704700002E
:101F9000000000004FF40061816270472DE9F041BC
:101FA000DDE90847DDE9065601FB02FCC0F824C064
:101FB00001FB03FCC0F820C001FB05FC4FF47A785C
:101FC000BCFBF8FCC0F80CC001FB06FCBCFBF8FC39
:101FD000C0F810C001FB04FCBCFBF8FCC0F804C056
:101FE00001FB07FCBCFBF8FCC0F808C001FB04FCCB
:101FF000BCFBF8FCC0F800C04FF0000CC0F82CC0CF
:1020000080ED060AC0F834C0DFED030AC0ED050A12
:10201000C0F828C0BDE8F0810000000070B52DEDCB
:10202000028B0446B0EE408A0D46208D00F400601D
:10203000002879D0208D00F40040002874D1208D34
:1020400000F40050002853D1208D00F4805060B37C
:10205000616A606B884247DBD4E908100844616B11
:1020600088420CDD94ED080AB8EEC00AC8EE000AFA
:1020700094ED070A30EE800A84ED070A34E094ED0F
:10208000070AD4ED060A20EE200A84ED050AA06AAC
:1020900020F48050A062A06A40F40050A0620020AA
:1020A000E0622846FEF728FE1EE0616A606B884207
:1020B0000FDB9FED1F0A84ED070AA06A40F48050F1
:1020C000A062A06A20F48040A0622846FEF7CAFE03
:1020D0000AE0208D00F4804030B9A06A40F48040CE
:1020E000A0622846FEF74AFF606B401C60631BE05D
:1020F00094F8280000F0010058B994ED050AB4EEF8
:10210000C80AF1EE10FA0FD2A06A40F00100A062F6
:102110000AE094ED050AB4EEC80AF1EE10FA03DD08
:10212000A06A20F00100A062A06ABDEC028B70BD25
:102130000000000010B5024800F06AFA10BD00006F
:102140006004002010B5024800F062FA10BD0000E3
:10215000A40400200D4A016891420BD20C4A016888
:10216000891A1422B1FBF2F1890001640849083987
:10217000C1630AE0054A0168891A1422B1FBF2F131
:102180008900016401490839C163704708040240AD
:102190000800024030B590F840500124AC40C56BB7
:1021A0006C60046863604468102C04D10468A26009
:1021B0000468E16003E00468A1600468E26030BD87
:1021C0007047000038B5024600230020009000BF91
:1021D00092F82400012801D1022038BD012082F8A4
:1021E000240000BF4868072812D21068406B0C79A1
:1021F000641E04EB84051F24AC40A0430D796D1EC2
:1022000005EB85050C68AC4020431468606327E04B
:1022100048680D2812D21068006B0C79E41F04EB9B
:1022200084051F24AC40A0430D79ED1F05EB850507
:102230000C68AC4020431468206311E01068C06A49
:102240000C790D3C04EB84051F24AC40A0430D79B0
:102250000D3D05EB85050C68AC4020431468E06239
:1022600008680A2812D91068C0680C780A3C04EB88
:1022700044050724AC40A0430D780A3D05EB450515
:102280008C68AC4020431468E0600FE0106800697F
:102290000C7804EB44050724AC40A0430D7805EB13
:1022A00045058C68AC4020431468206108681028FC
:1022B00002D00868112819D11068806840F4000025
:1022C0001468A0600868102819D110480068104CE4
:1022D000B0FBF4F000EB80004000009002E00098BA
:1022E000401E009000980028F9D108E008681228E4
:1022F00005D10848006840F08070064C206000BF9F
:10230000002082F8240000BF184666E7680000201D
:1023100040420F00000001402DE9F0410446002733
:1023200000250026A84614B90120BDE8F081A06868
:1023300010B1606900B100BFA06A30B90020E0624E
:1023400084F82400204600F089F82046FEF73DF985
:102350000746A06A00F01000002873D1002F71D149
:10236000A06A20F4885040F00200A062E169606831
:102370000843E16840EA41000643A068B0F5807F69
:1023800002D0A068012802D14FF4807000E0002044
:1023900005436069012811D1E06838B9A069401E81
:1023A0004FF4006141EA4030054307E0A06A40F085
:1023B0002000A062E06A40F00100E062206840680E
:1023C00020F46940284321684860206880682149DA
:1023D0000840304321688860A068B0F5807F02D053
:1023E000A068012802D14FF4807000E00020B0F511
:1023F000807F03D1208A401E4FEA00582068C06ABF
:1024000020F4700040EA08002168C86220688068F3
:1024100011490840B04208D10020E062A06A20F0D3
:10242000020040F00100A06211E0A06A20F002006A
:1024300040F01000A062E06A40F00100E062012775
:1024400005E0FFE7A06A40F01000A06201273846CF
:102450006BE70000FDF7E1FFFE0E1FFF10B586B031
:1024600004460F492068884218D100BF0D48806992
:1024700040F400700B4988610846806900F40070E0
:10248000009000BF00BF01200190032002900020B7
:10249000039001A94FF0904000F0BAF906B010BDCA
:1024A000002401400010024070B5034600240025BE
:1024B00000BF5879012801D1022070BD0120587158
:1024C00000BF022018711868046840F6FE70904042
:1024D0008443D1E9000640EA060505FA02F0044308
:1024E0001868046018680668C02090408643186821
:1024F00006600120187100BF0020587100BF00BFA6
:10250000DBE710B504460CB9012010BD207920B9D5
:1025100000206071204600F009F8022020710020A0
:102520002061012020710020EFE7000010B586B087
:1025300004460F492068884218D100BF0D48C06981
:1025400040F000500B49C8610846C06900F00050D7
:10255000009000BF00BF10200190032002900020D7
:10256000039001A94FF0904000F052F906B010BD61
:10257000007400400010024038B50446002000906E
:102580002068009029B902F10800009D28440090BD
:1025900004E002F11400009D2844009000980360BC
:1025A000002038BD024600BF5079012801D1022029
:1025B00070470120507100BF022010711068006840
:1025C00001238B4018431368186061B910680068D4
:1025D00000F03C003C2813D11068406840F0010036
:1025E000136858600CE01068006800F47010B0F5D3
:1025F000701F05D11068406840F0020013685860F1
:102600000120107100BF0020507100BF00BFCFE754
:1026100070B50446E06B05682068066894F84010C1
:10262000042088402840D0B106F00400B8B12068EA
:10263000006800F0200028B92068006820F004003D
:102640002168086094F8401004208840E16B4860DD
:10265000E06A00284ED02046E16A88474AE094F8B4
:10266000401002208840284008B306F00200F0B174
:102670002068006800F0200040B92068006820F061
:102680000A0021680860012084F8210094F84010B5
:1026900002208840E16B486000BF002084F82000E1
:1026A00000BFA06A30B32046A16A884722E094F8B0
:1026B0004010082088402840E0B106F00800C8B16A
:1026C0002068006820F00E002168086094F840102F
:1026D00001208840E16B48600120A06384F821005C
:1026E00000BF002084F8200000BF206B10B12046FE
:1026F000216B884770BD70B5044600250CB90120D8
:1027000070BD022084F821002068056843F6F0704F
:102710008543D4E901010843E1680843216908437E
:1027200061690843A1690843E169084305432068DA
:1027300005602046FFF70EFD0020A062E0622063E6
:102740006063A063012084F82100002084F8200049
:1027500000BFD5E72DE9F04104460D4616461F4659
:102760004FF0000800BF94F82000012802D1022099
:10277000BDE8F081012084F8200000BF94F821001A
:1027800001282CD1022084F821000020A0632068B9
:10279000006820F00100216808603B463246294667
:1027A0002046FFF7F7FCE06A30B12068006840F08F
:1027B0000E00216808600BE02068006840F00A0005
:1027C000216808602068006820F004002168086023
:1027D0002068006840F001002168086006E000BF42
:1027E000002084F8200000BF4FF002084046BFE7F9
:1027F00031B500F0F9F80546009C601C00B1641C7E
:1028000000BF00F0F1F8401BA042FAD338BD000031
:1028100078B50346002200240020CBE00126964034
:102820000D6805EA0604002C72D04D68022D02D016
:102830004D68122D13D1D60803F1200555F8260056
:102840005507EE0E0F25B540A8435607F60E0D6945
:10285000B5402843D60803F1200545F8260018683E
:1028600056000325B540A8430D7905F00305560031
:10287000B540284318604D68012D08D04D68022DE1
:1028800005D04D68112D02D04D68122D13D19868D6
:1028900056000325B540A8435600CD68B5402843EF
:1028A0009860586801259540A8430D79C5F3001537
:1028B000954028435860D86856000325B540A84382
:1028C00056008D68B5402843D8604D6805F08055A6
:1028D000B5F1805F6DD100BF394DAD6945F001059F
:1028E000374EB5613546AD6905F00105009500BF6D
:1028F00000BF4FEAB635960855F8260095072E0F0B
:102900000F25B540A843B3F1904F02D1002515E043
:102910004FE02C4DAB4201D101250FE02A4DAB42D7
:1029200001D102250AE0294DAB4201D1032505E082
:10293000274DAB4201D1042500E005259607360F4F
:10294000B5402843234D960845F82600224D2868B7
:10295000A0434D6805F48035B5F5803F00D1204394
:102960001D4D28602D1D2868A0434D6805F40035D5
:10297000B5F5003F00D12043174D2D1D28602D1DBA
:102980002868A0434D6805F48015B5F5801F00D177
:102990002043114D083528602D1D2868A0434D683F
:1029A00005F40015B5F5001F00D120430A4D0C3584
:1029B0002860521C0D68D540002D7FF42FAF78BDE4
:1029C000001002400004004800080048000C0048C5
:1029D0000010004808000140000401400AB1816174
:1029E00000E0816270470000014800687047000005
:1029F00064000020024692F8410020282DD100BF3B
:102A000092F84000012801D102207047012082F88D
:102A1000400000BF242082F841001068006820F0C8
:102A20000100136818601068006820F48050136873
:102A30001860106800680843136818601068006820
:102A400040F0010013681860202082F8410000BFA8
:102A5000002082F8400000BFD7E70220D5E710B57C
:102A600002460B46002192F8410020282AD100BFDF
:102A700092F84000012801D1022010BD012082F807
:102A8000400000BF242082F841001068006820F058
:102A90000100146820601068016821F4706141EA47
:102AA0000321106801601068006840F0010014689C
:102AB0002060202082F8410000BF002082F8400002
:102AC00000BFDAE70220D8E710B504460CB90120B0
:102AD00010BD94F8410028B9002084F84000204639
:102AE00000F054F8242084F841002068006820F0A9
:102AF000010021680860606820F07060216808614A
:102B00002068806820F4004021688860E06801281F
:102B100005D1A06840F400402168886004E0A06806
:102B200040F4044021688860E068022802D18002F5
:102B3000216848602068406813490843216848605C
:102B40002068C06820F400402168C860D4E904010E
:102B50000843A16940EA01202168C860D4E907015F
:102B60000843216808602068006840F0010021687F
:102B7000086000206064202084F841000020206369
:102B800084F8420000BFA3E70080000210B586B0C1
:102B900004461149206888421CD14FF440700190CE
:102BA000122002900120039003200490042005903D
:102BB00001A90A48FFF72CFE00BF0948C06940F48C
:102BC00000100749C8610846C06900F40010009071
:102BD00000BF00BF06B010BD005400400004004814
:102BE0000010024002480068401C0149086070471C
:102BF0006400002010B50848006840F01000064945
:102C00000860032000F0A6F8002000F007F800F0AC
:102C100019F8002010BD00000020024070B50446E5
:102C2000074800684FF47A71B0FBF1F5284602F0CE
:102C300038FB00222146501E00F04DF8002070BDE8
:102C40006800002008B500BF1B48806940F0010003
:102C5000194988610846806900F00100009000BFB2
:102C600000BF052000F076F8002211466FF00B003F
:102C700000F031F8002211466FF00A0000F02BF846
:102C8000002211466FF0090000F025F800221146DD
:102C9000501F00F020F800221146101F00F01BF812
:102CA00000221146901E00F016F800221146501E18
:102CB00000F011F808BD00000010024000BF00F055
:102CC0001F02012191404209920002F1E022C2F864
:102CD000001100BF70472DE9F05F80460D46164693
:102CE000002703F07BF9074639462A46334601F0B0
:102CF0000700C0F1070ABAF1040F02D94FF0040A25
:102D000001E0C0F1070AD14600F1040ABAF1070F49
:102D100002D24FF0000A01E0A0F1030AD4464FF0BE
:102D2000010A0AFA09FAAAF1010A0AEA020A0AFAE7
:102D30000CFA4FF0010B0BFA0CFBABF1010B0BEA99
:102D4000030B4AEA0B042146404603F04FF9BDE865
:102D5000F09F000000BF00F00702064B19684FF615
:102D6000FF031940044B0B4343EA0221014B196056
:102D700000BF70470CED00E00000FA0570B5054695
:102D80000C4604F08000802808D104F07F00C0EBDE
:102D9000C00605F1280000EB860105E0C4EBC4067F
:102DA00005F5E67000EB86011AB9002088728B8069
:102DB00004E001208872CB80180C0881002070BDCF
:102DC000704770B504460D46C5EBC50304F12801F4
:102DD00001EB83010A692946D4F8A40304F0B4FC8A
:102DE00070BD70B504460D46C5EBC50304F5E6712C
:102DF00001EB83010A692946D4F8A40304F011FD0C
:102E000070BD70B502460B4603F08000802808D1E3
:102E100003F07F00C0EBC00402F1280000EB840146
:102E200007E003F07F00C0EBC00402F5E67000EBA2
:102E3000840103F07F00087003F08000C00948702F
:102E400000BF92F87003012801D1022070BD01205B
:102E500082F8700300BF887A002857D1487850B3B1
:102E60000C786400106810F8140000F0400078B18D
:102E70000C786400106830F8140048F68F74204015
:102E800048F2C00420430D786D00146824F8150042
:102E90000D786D00146834F8154048F6BF7504EAE3
:102EA000050040F4004444F080040E787600156874
:102EB00025F81640F7E00C786400106830F814002C
:102EC00000F4804078B10C786400106830F8140089
:102ED00048F68F7420404CF2800420430D786D003A
:102EE000146824F815000D786D00146834F8154046
:102EF0004BF68F7504EA050040F4004444F080046A
:102F00000E787600156825F81640CCE04878002841
:102F100064D10C786400106830F8140000F480402C
:102F200078B10C786400106830F8140048F68F749B
:102F300020404CF2800420430D786D00146824F882
:102F400015000C786400106810F8140000F04000C0
:102F500078B10C786400106830F8140048F68F746B
:102F6000204048F2C00420430D786D00146824F816
:102F700015000C786400106830F8140048F68F745F
:102F8000204048F2C00420430D786D00146824F8F6
:102F900015000D786D00146834F815404BF68F75E8
:102FA00004EA050040F4004444F080040E78760002
:102FB000156825F816400D786D00146834F8154032
:102FC00048F6BF7504EA050040F4004444F080046C
:102FD0000E787600156825F8164064E00C786400D9
:102FE000106830F8140000F4804078B10C78640068
:102FF000106830F8140048F68F7420404CF28004BA
:1030000020430D786D00146824F815000C786400D6
:10301000106810F8140000F0400078B10C786400DB
:10302000106830F8140048F68F74204048F2C0044D
:1030300020430D786D00146824F815000C786400A6
:10304000106830F8140048F68F7420404CF2800469
:1030500020430D786D00146824F815000D786D007C
:10306000146834F8154048F6BF7504EA050040F4CA
:10307000004444F080040E787600156825F8164068
:103080000D786D00146834F815404BF68F7504EA1E
:10309000050040F4004444F080040E787600156882
:1030A00025F8164000BF00BF002082F8700300BF63
:1030B00000BFCBE670B502460B4603F080008028C7
:1030C00008D103F07F00C0EBC00402F1280000EB40
:1030D000840105E0C3EBC30402F5E67000EB840154
:1030E0000020887003F07F000870C3F3C0104870A0
:1030F00000BF92F87003012801D1022070BD0120A9
:1031000082F8700300BF487870B30C7864001068D0
:1031100010F8140000F0400078B10C7864001068DA
:1031200030F8140048F68F74204048F2C004204361
:103130000D786D00146824F815000D786D00146882
:1031400034F8154048F6BF7504EA050080F0100019
:1031500080F0200040F4004444F080040E787600B3
:10316000156825F816402EE00C786400106830F8D9
:10317000140000F4804078B10C786400106830F8D6
:10318000140048F68F7420404CF2800420430D78E0
:103190006D00146824F815000D786D00146834F87B
:1031A00015404BF68F7504EA050080F4805080F4DA
:1031B000005040F4004444F080040E787600156816
:1031C00025F8164000BF00BF002082F8700300BF42
:1031D00000BF93E7024601F07F00C0EBC00302F599
:1031E000E67000EB8300008B80B270472DE9F04160
:1031F00004460D46002705F08000802808D105F020
:103200007F00C0EBC00604F1280000EB860107E058
:1032100005F07F00C0EBC00604F5E67000EB860108
:1032200005F07F00087005F08000C0094870CA6092
:10323000CB7000BF94F87003012802D10220BDE8D2
:10324000F081012084F8700300BFC87830B10128F4
:1032500038D0022814D0032846D121E00E78760019
:10326000206830F8160048F68F16304040F400769B
:1032700091F800C04FEA4C0C206820F81C6034E044
:103280000E787600206830F8160048F68F16304029
:1032900091F800C04FEA4C0C266826F81C0024E088
:1032A0000E787600206830F8160048F68F16304009
:1032B00040F4C06091F800C04FEA4C0C266826F834
:1032C0001C0012E00E787600206830F8160048F6F0
:1032D0008F16304040F4806691F800C04FEA4C0CE5
:1032E000206820F81C6000E000BF00BF0E78760068
:1032F000206830F8160048F68F76304048F2800695
:1033000030430E78304391F800C04FEA4C0C2668E9
:1033100026F81C00887A00287ED14878F0B3888887
:1033200040104FEA400C2068B0F85060087806EB77
:10333000C000266806F5806626F810C00E78760074
:10334000206810F8160000F0400088B10E78760072
:10335000206830F8160048F68F76304048F2C006F4
:10336000304391F800C04FEA4C0C266826F81C0048
:1033700091F800C04FEA4C0C266836F81C6048F6FD
:10338000BF7C06EA0C0080F0200040F4004646F0C6
:10339000800691F800804FEA480800E004E0D4F885
:1033A00000C02CF81860ABE1888840104FEA400C50
:1033B0002068B0F85060087806EBC000001D266851
:1033C00006F5806626F810C02068B0F850C008786E
:1033D0000CEBC000801DD4F800C00CF5806C0CEB29
:1033E0004006D1F80CC0BCF13E0F19D9D1F80CC081
:1033F000CCF34F1091F80CC00CF01F0CBCF1000F77
:1034000003D1A0F1010C1FFA8CF04FF6FF7C0CEAFF
:10341000802C4CF4004C00E04DE0A6F800C014E015
:10342000D1F80CC0CCF34F0091F80CC00CF0010C9B
:10343000BCF1000F03D000F1010C1FFA8CF04FF625
:10344000FF7C0CEA802CA6F800C00E78760020687D
:1034500030F8160000F4804088B10E7876002068BD
:1034600030F8160048F68F7630404CF28006304334
:1034700091F800C04FEA4C0C266826F81C0091F821
:1034800000C04FEA4C0C266836F81C604BF68F7C67
:1034900006EA0C0080F4805080F4005040F40046AE
:1034A00046F0800691F800804FEA4808D4F800C042
:1034B0002CF8186024E10E787600206830F81600A9
:1034C00040F4807048F68F76304048F280063043F2
:1034D00091F800C04FEA4C0C266826F81C00C888FA
:1034E00040104FEA400C2068B0F85060087806EBB6
:1034F000C000266806F5806626F810C008894010CE
:103500004FEA400C2068B0F85060087806EBC00025
:10351000001D266806F5806626F810C04878002849
:1035200079D10E787600206830F8160000F48040DB
:1035300088B10E787600206830F8160048F68F764D
:1035400030404CF28006304391F800C04FEA4C0CFA
:10355000266826F81C000E787600206810F8160001
:1035600000F0400088B10E787600206830F8160030
:1035700048F68F76304048F2C006304391F800C0DC
:103580004FEA4C0C266826F81C000E78760020685E
:1035900030F8160048F68F76304048F2C0063043C7
:1035A00091F800C04FEA4C0C266826F81C0091F8F0
:1035B00000C04FEA4C0C266836F81C604BF68F7C36
:1035C00006EA0C0080F4805080F4005040F400467D
:1035D00046F0800691F800804FEA4808D4F800C011
:1035E0002CF8186091F800C04FEA4C0C266836F8A9
:1035F0001C6048F6BF7C06EA0C0040F4004646F02A
:10360000800691F800804FEA4808D4F800C02CF8F2
:10361000186075E0FFE70E787600206830F8160035
:1036200000F4804088B10E787600206830F81600EB
:1036300048F68F7630404CF28006304391F800C057
:103640004FEA4C0C266826F81C000E78760020689D
:1036500010F8160000F0400088B10E78760020685F
:1036600030F8160048F68F76304048F2C0063043F6
:1036700091F800C04FEA4C0C266826F81C000E7822
:103680007600206830F8160048F68F7630404CF20D
:103690008006304391F800C04FEA4C0C266826F8AB
:1036A0001C0091F800C04FEA4C0C266836F81C60EC
:1036B00048F6BF7C06EA0C0040F4004646F080065F
:1036C00091F800804FEA4808D4F800C02CF8186040
:1036D00091F800C04FEA4C0C266836F81C604BF697
:1036E0008F7C06EA0C0040F4004646F0800691F814
:1036F00000804FEA4808D4F800C02CF8186000BFDA
:1037000000BF002084F8700300BF384697E5F0B58D
:1037100004460D4605F07F00C0EBC00604F5E670D8
:1037200000EB86010A614B6100208861487005F05A
:103730007F000870CE684869B04204D9CB684869F8
:10374000C01A486102E04B6900204861887A48BB92
:103750002068B0F85070087807EBC000801D27681B
:1037600007F5806707EB40063E2B0ED9C3F34F10D9
:1037700003F01F070FB9471EB8B24FF6FF7707EAED
:10378000802747F4004737800BE0C3F34F0003F076
:1037900001070FB1471CB8B24FF6FF7707EA802741
:1037A00037803AE0487848BB2068B0F85070087815
:1037B00007EBC000801D276807F5806707EB400610
:1037C0003E2B0ED9C3F34F1003F01F070FB9471E4E
:1037D000B8B24FF6FF7707EA802747F400473780F3
:1037E0000BE0C3F34F0003F001070FB1471CB8B261
:1037F0004FF6FF7707EA802737800EE048780128E8
:103800000BD12068B0F85060087806EBC000801D2E
:10381000266806F5806626F810300F787F00266847
:1038200036F817604BF68F7706EA070080F4805071
:1038300080F4005040F4004646F0800691F800C045
:103840004FEA4C0C276827F81C600020F0BD70B5CB
:1038500002460B4600BF92F87003012801D10220F6
:1038600070BD012082F8700300BF03F08000802843
:1038700008D103F07F00C0EBC00402F1280000EB88
:10388000840105E0C3EBC30402F5E67000EB84019C
:103890000120887003F07F000870C3F3C0104870E7
:1038A0000878B0B90D786D00146834F815404BF6FF
:1038B000BF7504EA050080F4805080F0100040F4E9
:1038C000004444F080040E787600156825F8164010
:1038D0002BE04878A0B10D786D00146834F81540DD
:1038E00048F6BF7504EA050080F0100040F400447B
:1038F00044F080040E787600156825F8164014E030
:103900000D786D00146834F815404BF68F7504EA95
:10391000050080F4805040F4004444F080040E78A8
:103920007600156825F8164000BF00BF002082F819
:10393000700300BF00BF93E72DE9F04705460F462F
:1039400090461E464FF0000907F07F00C0EBC00113
:1039500005F1280000EB8104C4F8108066610020A6
:10396000A0610120607007F07F002070E16860694D
:10397000884204D9E6686069801B606102E066697C
:1039800000206061A07A90B9B3B2A288216928684A
:1039900002F08FFD2868B0F85010207801EBC000CD
:1039A000801C296801F5806121F8106039E02178D8
:1039B0004900286810F8110000F04000402802D1AA
:1039C000B4F8089001E0B4F80690B3B221694A4611
:1039D000286802F06EFD607880B921784900286877
:1039E00030F8110048F68F71084048F2C0010843D2
:1039F00022785200296821F8120012E0607801282C
:103A00000FD121784900286830F8110048F68F71ED
:103A100008404CF28001084322785200296821F8BE
:103A2000120022785200296831F8121048F6BF724D
:103A300001EA020080F0100080F0200040F4004114
:103A400041F0800123785B002A6822F813100020DF
:103A5000BDE8F08710B504462068B0F8440000F4D3
:103A60000040B0F5004F02D1204602F0D3FA2068A2
:103A7000B0F8440000F48060B0F5806F0BD14FF6D1
:103A8000FF302168A1F84400204600F043F90021EE
:103A9000204600F062F92068B0F8440000F480404D
:103AA000B0F5804F04D14BF6FF702168A1F84400B7
:103AB0002068B0F8440000F40050B0F5005F04D175
:103AC0004DF6FF702168A1F844002068B0F844006A
:103AD00000F48050B0F5805F19D12068B0F8400044
:103AE0004FF6FB7108402168A1F840002068B0F84B
:103AF00040004FF6F77108402168A1F840002046C9
:103B000000F01DF94EF6FF702168A1F8440020680E
:103B1000B0F8440000F40060B0F5006F1DD12068DB
:103B2000B0F8400040F008002168A1F840004FF2D2
:103B3000FF702168A1F844002068B0F8400040F010
:103B400004002168A1F840002068B0F84400C0F3E8
:103B5000003010B9204600F02DF92068B0F844007C
:103B600000F40070B0F5007F07D14FF6FF502168D8
:103B7000A1F84400204600F0E9F82068B0F84400BD
:103B800000F48070B0F5807F04D14FF6FF602168AB
:103B9000A1F8440010BD70B50446002500260CB9FC
:103BA000012070BD94F8710328B9002084F87003D7
:103BB000204600F07BF8032084F87103002529E0FB
:103BC0000121C5EBC50204F1280000EB8200417021
:103BD000C5EBC50204F1280000F822500021C5EB16
:103BE000C50200EB8200C170C5EBC50204F12800DC
:103BF00000EB8200C160C5EBC50204F1280000EBB8
:103C000082000161C5EBC50204F1280000EB8200CF
:103C100041616D1C6068A842D2D8002528E00021CF
:103C2000C5EBC50204F5E67000EB82004170C5EB00
:103C3000C50204F5E67000F82250C5EBC50200EBA2
:103C40008200C170C5EBC50204F5E67000EB82008E
:103C5000C160C5EBC50204F5E67000EB82000161AE
:103C6000C5EBC50204F5E67000EB820041616D1CF6
:103C70006068A842D3D801202168A1F84000002044
:103C80002168A1F840002168A1F844002168A1F84A
:103C900050004FF43F462068A0F84060002084F8B0
:103CA0002400012084F8710300207AE710B586B063
:103CB000044616492068884225D14FF4C05001902F
:103CC0000220029000200390032004900E20059013
:103CD00001A94FF09040FEF79BFD00BF0C48C06962
:103CE00040F400000A49C8610846C06900F40000B9
:103CF000009000BF00BF002211464B20FEF7EBFFF3
:103D00004B20FEF7DBFF06B010BD0000005C00405A
:103D10000010024070B504460125A068022801D1B8
:103D200000BF01E0012500BF00BF2946D4F8A4036D
:103D300003F0CEFED4F8A40303F090FE70BD10B5DE
:103D40000446D4F8A40303F0ABFE10BD10B504463E
:103D5000D4F8A40303F0ABFE10BD024600BF92F8F6
:103D60007003012801D102207047012082F87003FE
:103D700000BF21B980201368A3F84C0001E082F84D
:103D8000241000BF002082F8700300BF00BFEBE7E3
:103D900010B5044604F55D71D4F8A40303F0BEFE2B
:103DA00010BD10B5044601212046FFF709F8002098
:103DB00010BD000010B50446D4F8A40303F025FF9D
:103DC000A06928B10348006840F006000149086076
:103DD00010BD000010ED00E008B500BF0949C96939
:103DE00041F08051074AD1611146C96901F0805103
:103DF000009100BF00BF044909680143024A1160F5
:103E000008BD00000010024000700040F8B50446F4
:103E100000260025206800F48030B0F5803F75D181
:103E200000279648C06900F0805070B900BF9348E1
:103E3000C06940F080509149C8610846C06900F0EF
:103E40008050009000BF00BF01278D48006800F43B
:103E50008070B0B98A48006840F480708849086072
:103E6000FEF7C2FD064606E0FEF7BEFD801B642895
:103E700001D90320F8BD8248006800F48070002852
:103E8000F2D07E48006A00F44075002D6CD0A08806
:103E900000F44070A84267D07848006A20F440756A
:103EA0000120010491FAA1F1B1FA81F1754A02EB06
:103EB0008101C1F8000400204FF4803191FAA1F192
:103EC000B1FA81F102EB8101C1F800046B4805628F
:103ED00005F00100B8B3FEF787FD064608E0FEF7DF
:103EE00083FD801B41F28831884201D90320C1E75C
:103EF0004020022191FAA1F1B1FA81F10843012198
:103F0000B1EB601F03D15D4800681FE03CE040203A
:103F1000022191FAA1F1B1FA81F108430221B1EB3A
:103F2000601F02D15548006A10E04020022191FA3A
:103F3000A1F1B1FA81F108430421B1EB601F03D173
:103F40004E48406802E00FE04C48406A402102229F
:103F500092FAA2F2B2FA82F2114301F01F02012199
:103F6000914008400028BAD04448006A20F44070CC
:103F70006168084341490862012F04D10846C069BD
:103F800020F08050C86100BF207800F0010038B1F7
:103F90003A48006B20F00300A168084337490863E2
:103FA000207800F00200022807D13448006B20F48A
:103FB0004030E168084331490863207800F004008C
:103FC000042807D12D48006B20F4402021690843C4
:103FD0002A490863207800F02000202807D12748CC
:103FE000006B20F0100061690843244908632068D1
:103FF00000F40030B0F5003F07D12048406820F4BD
:104000008000A16A08431D494860207800F0400004
:10401000402807D11948006B20F02000A16908430F
:1040200016490863207800F08000802807D11348E3
:10403000406820F44040E169084310494860208806
:1040400000F40060B0F5006F07D10C48406820F024
:104050007840216A084309494860208800F480605C
:10406000B0F5806F07D10548006B20F04000616A11
:104070000843024908630020FCE6000000100240EB
:10408000007000400000424270B504460D46002614
:10409000B448006800F00700A8420ED2B14800689A
:1040A00020F007002843AF4908600846006800F088
:1040B0000700A84201D0012070BD207800F0020066
:1040C000022807D1A848406820F0F000A168084302
:1040D000A5494860207800F0010000287CD0606885
:1040E00001283BD12020010391FAA1F1B1FA81F11D
:1040F00008430121B1EB601F02D19B4800681DE01D
:104100002020010391FAA1F1B1FA81F108430221C3
:10411000B1EB601F02D19448006A0FE02020010338
:1041200091FAA1F1B1FA81F108430421B1EB601FCA
:1041300002D18D48406801E08B48406A20210A0383
:1041400092FAA2F2B2FA82F2114301F01F020121A7
:104150009140084000287CD10120ADE7606802282A
:104160003BD12020010591FAA1F1B1FA81F1084378
:104170000121B1EB601F02D17B4800681DE02020C7
:10418000010591FAA1F1B1FA81F108430221B1EBE5
:10419000601F02D17448006A0FE02020010591FAE7
:1041A000A1F1B1FA81F108430421B1EB601F02D102
:1041B0006D48406801E06C48406A20210A0592FA87
:1041C000A2F2B2FA82F2114301F01F0201219140E2
:1041D0000840E8BB01206FE77EE02020022191FA31
:1041E000A1F1B1FA81F108430121B1EB601F02D1C5
:1041F0005D4800681DE02020022191FAA1F1B1FA8A
:1042000081F108430221B1EB601F02D15648006AD8
:104210000FE02020022191FAA1F1B1FA81F10843C7
:104220000421B1EB601F02D14F48406801E04E48C5
:10423000406A2021022292FAA2F2B2FA82F21143DB
:1042400001F01F0201219140084008B9012033E725
:10425000FFE74548406820F0030061680843424991
:104260004860FEF7C1FB06466068012810D108E0EF
:10427000FEF7BAFB801B41F28831884201D9032046
:104280001AE73948406800F00C000428F0D123E018
:104290006068022810D108E0FEF7A6FB801B41F2FF
:1042A0008831884201D9032006E72F48406800F092
:1042B0000C000828F0D10FE008E0FEF795FB801B0A
:1042C00041F28831884201D90320F5E6264840684A
:1042D00000F00C000028F0D12248006800F0070030
:1042E000A8420ED91F48006820F0070028431D4946
:1042F00008600846006800F00700A84201D00120CD
:10430000DAE6207800F00400042807D11648406857
:1043100020F4E060E168084313494860207800F029
:104320000800082808D11048406820F4605021692E
:1043300040EAC1000C49486000F022F80A49496887
:1043400001F0F001F02292FAA2F2B2FA82F2D14028
:10435000064A515CC840064908600020FEF75EFC32
:104360000020A9E6002002400010024094890008C5
:1043700068000020014800687047000068000020C5
:1043800070B5002100240022002300201A4D696826
:1043900001F00C0565B3042D02D0082D27D101E0F2
:1043A000164827E001F470154FF4701696FAA6F639
:1043B000B6FA86F6F540124E735D0F4DED6A05F0C4
:1043C0000F050F2696FAA6F6B6FA86F6F5400D4EBC
:1043D000745D01F480352DB1084DB5FBF4F505FB96
:1043E00003F202E0084D03FB05F2104602E000BFB5
:1043F000064800BF00BF70BD00100240001BB700A0
:10440000748900088489000800093D0000127A00C0
:10441000F8B504460025207800F0010000287BD084
:10442000FA48406800F00C0004280CD0F7484068B7
:1044300000F00C00082845D1F448406800F48030B2
:10444000B0F5803F3ED12020010391FAA1F1B1FAED
:1044500081F108430121B1EB601F02D1EB480068F4
:104460001DE02020010391FAA1F1B1FA81F1084386
:104470000221B1EB601F02D1E448006A0FE0202066
:10448000010391FAA1F1B1FA81F108430421B1EBE2
:10449000601F02D1DD48406801E0DC48406A20210D
:1044A0000A0392FAA2F2B2FA82F2114301F01F0259
:1044B0000121914008400028B1D0606800282BD12C
:1044C0000120F8BD00BF6068B0F5803F06D1CF483D
:1044D000006840F48030CD49086029E0606858B930
:1044E000CA48006820F48030C8490860084600685F
:1044F00020F4802008601BE06068B0F5A02F0CD18C
:10450000C248006840F48020C0490860084600683E
:1045100040F4803008600BE0A1E0BC48006820F463
:104520008030BA4908600846006820F4802008609E
:1045300000BFB648C06A20F00F00A1680843B34925
:10454000C8626068A0B3FEF74FFA054606E0FEF7C2
:104550004BFA401B642801D90320B2E72020010355
:1045600091FAA1F1B1FA81F108430121B1EB601F89
:1045700002D1A64800681EE02020010391FAA1F1B3
:10458000B1FA81F108430221B1EB601F02D19F48CB
:10459000006A10E02020010391FAA1F1B1FA81F143
:1045A00008430421B1EB601F03D19848406802E042
:1045B00010E09648406A20210A0392FAA2F2B2FA69
:1045C00082F2114301F01F020121914008400028AE
:1045D000BDD044E0FEF708FA054606E0FEF704FA0F
:1045E000401B642801D903206BE72020010391FAC6
:1045F000A1F1B1FA81F108430121B1EB601F02D1B1
:10460000824800681DE02020010391FAA1F1B1FA6F
:1046100081F108430221B1EB601F02D17B48006A9F
:104620000FE02020010391FAA1F1B1FA81F10843D2
:104630000421B1EB601F02D17448406801E0734867
:10464000406A20210A0392FAA2F2B2FA82F21143DE
:1046500001F01F020121914008400028BED12078BE
:1046600000F0020002285CD16848406800F00C00AD
:1046700050B16648406800F00C00082852D16348E9
:10468000406800F48030E8BB2020022191FAA1F1BB
:10469000B1FA81F108430121B1EB601F02D15B48FF
:1046A00000681DE02020022191FAA1F1B1FA81F108
:1046B00008430221B1EB601F02D15448006A0FE0A9
:1046C0002020022191FAA1F1B1FA81F108430421DD
:1046D000B1EB601F02D14D48406801E04B48406A91
:1046E0002021022292FAA2F2B2FA82F2114301F0E0
:1046F0001F0201219140084028B12069012802D001
:104700000120DEE60EE04148006820F0F800F822C3
:1047100092FAA2F2B2FA82F26169914008433B49EF
:104720000860B1E0206970B3012191FAA1F0B0FAFC
:1047300080F0374A42F82010FEF756F9054606E0A9
:10474000FEF752F9401B022801D90320B9E62020C8
:10475000022191FAA1F1B1FA81F108430121B1EBF3
:10476000601F02D1294800681EE02020022191FA32
:10477000A1F1B1FA81F108430221B1EB601F03D12D
:104780002248006A10E02CE02020022191FAA1F1D9
:10479000B1FA81F108430421B1EB601F02D11B483B
:1047A000406801E01948406A2021022292FAA2F2F0
:1047B000B2FA82F2114301F01F0201219140084038
:1047C0000028BDD01148006820F0F800F82292FAC5
:1047D000A2F2B2FA82F26169914008430B49086083
:1047E00052E00020012191FAA1F1B1FA81F1084AC9
:1047F00042F82100FEF7F8F805460BE0FEF7F4F862
:10480000401B022806D903205BE60000001002408E
:10481000000042422020022191FAA1F1B1FA81F177
:1048200008430121B1EB601F02D1FB4800681DE085
:104830002020022191FAA1F1B1FA81F1084302216D
:10484000B1EB601F02D1F448006A0FE02020022182
:1048500091FAA1F1B1FA81F108430421B1EB601F93
:1048600002D1ED48406801E0EB48406A2021022275
:1048700092FAA2F2B2FA82F2114301F01F02012170
:10488000914008400028B9D1207800F0080008289D
:1048900051D1A06980B3012090FAA0F1B1FA81F161
:1048A000DE4A02EB8101C1F88004FEF79DF805465F
:1048B00006E0FEF799F8401B022801D9032000E624
:1048C0006020022191FAA1F1B1FA81F1084301219E
:1048D000B1EB601F02D1D04800681EE060200221C9
:1048E00091FAA1F1B1FA81F108430221B1EB601F05
:1048F00003D1C948006A10E01EE06020022191FA4D
:10490000A1F1B1FA81F108430421B1EB601F02D19A
:10491000C148406801E0C048406A6021022292FA22
:10492000A2F2B2FA82F2114301F01F02012191407A
:1049300008400028BDD04FE00020012191FAA1F1EC
:10494000B1FA81F1B54A02EB8101C1F88004FEF7AA
:104950004BF8054606E0FEF747F8401B022801D950
:104960000320AEE56020022191FAA1F1B1FA81F1B4
:1049700008430121B1EB601F02D1A74800681DE088
:104980006020022191FAA1F1B1FA81F108430221DC
:10499000B1EB601F02D1A048006A0FE06020022145
:1049A00091FAA1F1B1FA81F108430421B1EB601F42
:1049B00002D19948406801E09748406A602102228C
:1049C00092FAA2F2B2FA82F2114301F01F0201211F
:1049D000914008400028BED1207800F0040004284F
:1049E00073D100268C48C06900F0805070B900BFB8
:1049F0008948C06940F080508749C8610846C0694D
:104A000000F08050009000BF00BF0126844800687D
:104A100000F48070B0B98248006840F4807080492A
:104A20000860FDF7E1FF054606E0FDF7DDFF401BEE
:104A3000642801D9032044E57948006800F48070B7
:104A40000028F2D000BFE068012806D17248006A51
:104A500040F001007049086227E0E06858B96E48EC
:104A6000006A20F001006C4908620846006A20F0E4
:104A70000400086219E0E06805280BD16648006A66
:104A800040F00400644908620846006A40F00100F2
:104A900008620AE06048006A20F001005E4908628E
:104AA0000846006A20F00400086200BFE068B8B35E
:104AB000FDF79AFF054609E0FDF796FF401B41F21E
:104AC0008831884202D90320FBE48BE04020022198
:104AD00091FAA1F1B1FA81F108430121B1EB601F14
:104AE00002D14D4800681EE04020022191FAA1F158
:104AF000B1FA81F108430221B1EB601F02D14648AF
:104B0000006A10E04020022191FAA1F1B1FA81F18E
:104B100008430421B1EB601F03D13F48406802E025
:104B200010E03D48406A4021022292FAA2F2B2FA15
:104B300082F2114301F01F02012191400840002838
:104B4000BAD046E0FDF750FF054608E0FDF74CFF00
:104B5000401B41F28831884201D90320B1E4402052
:104B6000022191FAA1F1B1FA81F108430121B1EBDF
:104B7000601F02D1284800681DE04020022191FA00
:104B8000A1F1B1FA81F108430221B1EB601F02D11A
:104B90002148006A0FE04020022191FAA1F1B1FA08
:104BA00081F108430421B1EB601F02D11A4840682B
:104BB00001E01948406A4021022292FAA2F2B2FAB8
:104BC00082F2114301F01F020121914008400028A8
:104BD000BCD1012E05D11048C06920F080500E498B
:104BE000C86100BFE069002874D00B48406800F03D
:104BF0000C0008286FD0E06902286DD100204FF02A
:104C0000807191FAA1F1B1FA81F1044A42F82100D0
:104C1000FDF7EAFE05460CE00010024000004242AB
:104C200000700040FDF7E0FE401B022801D9032080
:104C300047E42020010591FAA1F1B1FA81F108437E
:104C40000121B1EB601F02D16F4800681DE02020F8
:104C5000010591FAA1F1B1FA81F108430221B1EB0A
:104C6000601F02D16848006A0FE02020010591FA18
:104C7000A1F1B1FA81F108430421B1EB601F02D127
:104C80006148406801E06048406A20210A0592FAC4
:104C9000A2F2B2FA82F2114301F01F020121914007
:104CA00008400028BED1D4E9081008435649496895
:104CB00021F474110843544948600121080690FA10
:104CC000A0F0B0FA80F0514A42F82010FDF78CFEB7
:104CD000054609E095E092E041E0FDF785FE401BC6
:104CE000022801D9032038E42020010591FAA1F11E
:104CF000B1FA81F108430121B1EB601F02D14248B2
:104D000000681DE02020010591FAA1F1B1FA81F1BE
:104D100008430221B1EB601F02D13B48006A0FE05B
:104D20002020010591FAA1F1B1FA81F10843042193
:104D3000B1EB601F02D13448406801E03248406A5C
:104D400020210A0592FAA2F2B2FA82F2114301F08E
:104D50001F020121914008400028BED051E00021EF
:104D60004FF0807090FAA0F0B0FA80F0274A42F835
:104D70002010FDF739FE054606E0FDF735FE401B25
:104D8000022801D903202FE42020010591FAA1F186
:104D9000B1FA81F108430121B1EB601F02D11A4839
:104DA00000681DE02020010591FAA1F1B1FA81F11E
:104DB00008430221B1EB601F02D11348006A0FE0E3
:104DC0002020010591FAA1F1B1FA81F108430421F3
:104DD000B1EB601F02D10C48406801E00A48406A0C
:104DE00020210A0592FAA2F2B2FA82F2114301F0EE
:104DF0001F020121914008400028BED101E001209E
:104E00007FE400207DE400000010024000004242E8
:104E100070B504460D46002694F83C00012820D1C8
:104E2000204601F064FB20B1FF2084F83C000326FB
:104E300018E02068406820F006002168486020687B
:104E40004068284321684860204601F06CFB2068D8
:104E5000406840F0100021684860022084F83C005F
:104E600000E00126304670BD30B50346002093F8BF
:104E70003C40F4B193F83C40FF2C1AD01C686468A5
:104E800024F49E041D686C60012A09D11C686468C2
:104E90000D0C2D0445F480052C431D686C6006E064
:104EA0001C6864680D0C2D042C431D686C609A61AD
:104EB00000E0012030BD000010B504460CB901200F
:104EC00010BD0020A061E06101202062606200202E
:104ED000A062E0624FF40050206300206063A06392
:104EE0002064204600F044F82068006820F4E05078
:104EF00021680860E1686068084321680968084320
:104F0000216808602068406820F08070216848604F
:104F100020684068A1680843216848601348006819
:104F200000F44071206981420ED01048006820F4DE
:104F300040700E49086008460068216908430B4923
:104F400008600220FDF754FC2068406840F0010032
:104F50002168486000BF2068806800F40040002895
:104F6000F9D1012084F83C000020A9E7006001404D
:104F700010B586B004463D492068884237D100BF4D
:104F80003B48806940F080703949886108468069F3
:104F900000F08070009000BF00BF0520019003204A
:104FA00002900020039001A93248FDF731FC3248FD
:104FB0003249086000204860002130488160C160AB
:104FC0004FF48071016189004161202181614FF4BA
:104FD0004051C161FDF78FFB20B140F21B1128A0A9
:104FE00003F04CF800BF2548606144623CE02B4967
:104FF0002068884238D100BF1D48806940F00070A9
:105000001B4988610846806900F00070009000BF6D
:1050100000BF04200190032002900020039001A90A
:105020001448FDF7F5FB144814301D4908600020B2
:10503000486000211A488160C1604FF480710161AD
:1050400089004161202181614FF44051C161FDF728
:1050500052FB20B14FF4A07109A003F00FF800BF7C
:105060000F486061446200BF06B010BD006001409F
:105070000010024000040048300402406004002098
:105080002E2E2F5372632F73746D333266337878FC
:105090005F68616C5F6D73702E6300000064014097
:1050A000A40400202DE9F04105460E4614460027D1
:1050B000B84695F83C00012801D0012718E02846A1
:1050C00001F015FA20B1FF2085F83C0003270FE01E
:1050D0002868203000EB8608D4E900010843A16865
:1050E0000843E1680843C8F80000284601F01BFAAD
:1050F0003846BDE8F081000010B5024600200C4C97
:105100001368A34203D1012901D101200EE092F8D6
:105110003C30012B07D092F83C30022B03D092F8A0
:105120003C30042B01D1916200E0012010BD000051
:105130000060014070B504460CB9012070BD606A82
:1051400000B900BF0021A16294F85D0028B90020D9
:1051500084F85C00204600F053F8022084F85D00DB
:105160002068006820F0400021680860E068B0F521
:10517000E06F01D9002501E04FF48055E068B0F5FB
:10518000706F05D0E068B0F5E06F01D00021A1623A
:10519000206B40B9E068B0F5E06F02D902212163CD
:1051A00001E001212163D4E9010108432169084399
:1051B00061690843218B01F400710843E1690843E8
:1051C000216A0843A16A0843216808600421A06994
:1051D00001EA1040616A0843616B0843E1680843D3
:1051E0002843216848602068C06920F40060216875
:1051F000C86100202066012084F85D0000209DE742
:1052000010B586B004461949206888422BD100BFEA
:105210001748806940F480501549886108468069C4
:1052200000F48050009000BF00BF4FF40040019098
:105230000220029000200390032004900520059096
:1052400001A94FF09040FDF7E3FA382001900220C9
:10525000029000200390032004900520059001A9EE
:105260000448FDF7D5FA06B010BD0000003001403B
:105270000010024000040048042808D14FF0E0214B
:10528000096941F004014FF0E022116107E04FF09D
:10529000E021096921F004014FF0E022116170471B
:1052A000704770B504462546681EB0F1807F01D373
:1052B00001200FE0681E4FF0E02148610F214FF000
:1052C000FF3000F093FE00204FF0E02188610720BE
:1052D0000861002070BD10B5FFF7E2FF10BD10B5EA
:1052E0000346002200BF93F83C00012801D10220B0
:1052F00010BD012083F83C0000BF022083F83D0070
:1053000022F0FF00CC6840EA040222F440708C686E
:1053100040EA040222F480604C6840EA040222F46D
:1053200000600C6840EA040222F480500C6940EAF4
:10533000040222F400504C6940EA040222F4804046
:105340008C6940EA040222F400408C6940EA0402BD
:1053500018684264012083F83D0000BF002083F8F4
:105360003C0000BF00BFC3E7024600BF92F83C000C
:10537000012801D102207047012082F83C0000BFC3
:10538000022082F83D001068406820F07000136829
:105390005860106840680B681843136858601068BC
:1053A000806820F0800013689860106880684B68FF
:1053B000184313689860012082F83D0000BF002068
:1053C00082F83C0000BF00BFD5E710B504460CB919
:1053D000012010BD94F83D0028B9002084F83C005D
:1053E000204600F00DF8022084F83D00211D2068C1
:1053F00001F092FB012084F83D000020E9E7000065
:1054000038B5044628492068884216D100BF27488D
:10541000806940F40030254988610846806900F4BD
:105420000030009000BF00BF002211461920FDF798
:1054300052FC1920FDF742FC34E01D4920688842E7
:1054400016D100BF1948806940F48020174988614F
:105450000846806900F48020009000BF00BF012250
:1054600000211A20FDF737FC1A20FDF727FC19E070
:1054700010492068884215D100BF0C48C06940F42B
:1054800000700A49C8610846C06900F400700090C5
:1054900000BF00BF002201211B20FDF71CFC1B20C8
:1054A000FDF70CFC38BD0000004401400010024034
:1054B00000480140009C004001460868C06840F078
:1054C00001000A68D0600868006840F001000A68BE
:1054D00010600020704701460868C06820F0010095
:1054E0000A68D06000BF0868006A41F211121040DB
:1054F00050B90868006A9210104028B9086800681E
:1055000020F001000A68106000BF002070472DE9FC
:10551000F04104460D46164600BF94F83C000128B1
:1055200002D10220BDE8F081012084F83C0000BFD8
:10553000022084F83D0096B9EB68D5E90012206896
:1055400001F052FC2068806920F00C00216888611D
:1055500020688069A9680843216888613DE0042EBD
:1055600013D1EB68D5E90012206801F081FC2068B6
:10557000806920F440602168886120688069A9689A
:1055800040EA01202168886127E0082E12D1EB68EB
:10559000D5E90012206801F08AFC2068C06920F07B
:1055A0000C002168C8612068C069A96808432168A7
:1055B000C86112E0EB68D5E90012206801F095FCA3
:1055C0002068C06920F440602168C8612068C06913
:1055D000A96840EA01202168C861012084F83D00E3
:1055E00000BF002084F83C0000BF00BF9AE710B560
:1055F00004460CB9012010BD94F83D0028B90020E4
:1056000084F83C00204600F00DF8022084F83D00AC
:10561000211D206801F080FA012084F83D0000205F
:10562000E9E7000010B586B004462068B0F1804F6D
:105630001CD100BF0E48C06940F001000C49C86190
:105640000846C06900F00100009000BF00BF0420C0
:10565000019002200290002003900320049001207A
:10566000059001A94FF09040FDF7D2F806B010BDAB
:105670000010024010B586B004462068B0F1804F9B
:105680000FD14FF48060019002200290002003901F
:10569000032004900A20059001A94FF09040FDF7E7
:1056A000B7F806B010BD70B504460E46154600BFEB
:1056B00094F83C00012801D1022070BD012084F83B
:1056C0003C0000BF022084F83D0035B1042D09D014
:1056D000082D0CD00C2D14D10EE03146206801F0BD
:1056E00091FA0FE03146206801F0D0FA0AE0314625
:1056F000206801F00BFB05E03146206801F044FB17
:1057000000E000BF00BF012084F83D0000BF002082
:1057100084F83C0000BF00BFCFE710B504460CB9C9
:10572000012010BD94F83D0028B9002084F83C0009
:10573000204600F00CF8022084F83D00211D20686E
:1057400001F0EAF9012084F83D000020E9E7704704
:1057500070B504460D460CB9012070BD94F83D00AB
:1057600028B9002084F83C00204600F017F80220F9
:1057700084F83D00211D206801F0CEF92068006802
:1057800020F008002168086020680068284321682C
:105790000860012084F83D000020DEE7704770B506
:1057A00004460D46164600BF94F83C00012801D17E
:1057B000022070BD012084F83C0000BF022084F864
:1057C0003D0036B1042E1BD0082E31D00C2E5ED1F8
:1057D00045E02946206801F015FA2068806940F00C
:1057E0000800216888612068806920F00400216831
:1057F000886120688069296908432168886147E0D9
:105800002946206801F042FA2068806940F400606F
:10581000216888612068806920F48060216888613F
:1058200020688069296940EA0120216888612FE0A9
:105830002946206801F06AFA2068C06940F0080033
:105840002168C8612068C06920F004002168C8612F
:105850002068C069296908432168C86118E02946A1
:10586000206801F091FA2068C06940F40060216866
:10587000C8612068C06920F480602168C861206820
:10588000C069296940EA01202168C86100E000BFC1
:1058900000BF012084F83D0000BF002084F83C00D8
:1058A00000BF00BF85E710B504460CB9012010BD4C
:1058B00094F83D0028B9002084F83C00204600F010
:1058C0000CF8022084F83D00211D206801F024F925
:1058D000012084F83D000020E9E7704730B5044618
:1058E0000D4601222946206801F07EF90E49206804
:1058F000884207D00D492068884203D00C492068AF
:10590000884201D1012000E0002028B12068406CCD
:1059100040F40040216848642068006840F00100BD
:1059200021680860002030BD004001400044014073
:105930000048014000BFFEE70EB515481549086054
:10594000002114488160C16041614FF46021C16150
:1059500000201049486001210E480161FCF7DCFC81
:1059600020B14FF4A7710CA002F088FB002000903A
:10597000012001900020029069460648FCF722FCB5
:1059800020B14FF4AC7104A002F078FB0EBD000012
:1059900000240140480300202E2E2F5372632F6DE8
:1059A00061696E2E630000000EB50D480D49086058
:1059B0000846FCF7A6FD20B14FF4B4710AA002F02E
:1059C0005DFB002000900190002269460548FCF72D
:1059D0006BFD20B140F2711103A002F04FFB0EBD30
:1059E00000740040780300202E2E2F5372632F6D19
:1059F00061696E2E6300000008B500BF0E48406963
:105A000040F002000C4948610846406900F002007D
:105A1000009000BF00BF002211463A20FDF75BF95D
:105A20003A20FDF74BF9002211463B20FDF753F9D0
:105A30003B20FDF743F908BD0010024000B587B0D8
:105A400000BF3448406940F480003249486108464C
:105A5000406900F48000019000BF00BF00BF08460D
:105A6000406940F4003048610846406900F4003065
:105A7000019000BF00BF00BF0846406940F480208D
:105A800048610846406900F48020019000BF00BFD3
:105A900000BF0846406940F48010486108464069EC
:105AA00000F48010019000BF00BF00224FF450713D
:105AB0004FF09040FCF792FF4FF45070029001209D
:105AC000039000200490059002A94FF09040FCF74D
:105AD0009FFE02200290032003900020049002A960
